{
  "_format": "hh-sol-artifact-1",
  "contractName": "StreamPass",
  "sourceName": "contracts/StreamPass.sol",
  "abi": [
    {
      "inputs": [],
      "stateMutability": "nonpayable",
      "type": "constructor"
    },
    {
      "anonymous": false,
      "inputs": [
        {
          "indexed": true,
          "internalType": "address",
          "name": "owner",
          "type": "address"
        },
        {
          "indexed": true,
          "internalType": "address",
          "name": "approved",
          "type": "address"
        },
        {
          "indexed": true,
          "internalType": "uint256",
          "name": "tokenId",
          "type": "uint256"
        }
      ],
      "name": "Approval",
      "type": "event"
    },
    {
      "anonymous": false,
      "inputs": [
        {
          "indexed": true,
          "internalType": "address",
          "name": "owner",
          "type": "address"
        },
        {
          "indexed": true,
          "internalType": "address",
          "name": "operator",
          "type": "address"
        },
        {
          "indexed": false,
          "internalType": "bool",
          "name": "approved",
          "type": "bool"
        }
      ],
      "name": "ApprovalForAll",
      "type": "event"
    },
    {
      "anonymous": false,
      "inputs": [
        {
          "indexed": true,
          "internalType": "address",
          "name": "previousOwner",
          "type": "address"
        },
        {
          "indexed": true,
          "internalType": "address",
          "name": "newOwner",
          "type": "address"
        }
      ],
      "name": "OwnershipTransferred",
      "type": "event"
    },
    {
      "anonymous": false,
      "inputs": [
        {
          "indexed": true,
          "internalType": "address",
          "name": "from",
          "type": "address"
        },
        {
          "indexed": true,
          "internalType": "address",
          "name": "to",
          "type": "address"
        },
        {
          "indexed": true,
          "internalType": "uint256",
          "name": "tokenId",
          "type": "uint256"
        }
      ],
      "name": "Transfer",
      "type": "event"
    },
    {
      "inputs": [],
      "name": "FR_GIFT",
      "outputs": [
        {
          "internalType": "uint256",
          "name": "",
          "type": "uint256"
        }
      ],
      "stateMutability": "view",
      "type": "function"
    },
    {
      "inputs": [],
      "name": "FR_PER_MINT",
      "outputs": [
        {
          "internalType": "uint256",
          "name": "",
          "type": "uint256"
        }
      ],
      "stateMutability": "view",
      "type": "function"
    },
    {
      "inputs": [],
      "name": "FR_PRICE",
      "outputs": [
        {
          "internalType": "uint256",
          "name": "",
          "type": "uint256"
        }
      ],
      "stateMutability": "view",
      "type": "function"
    },
    {
      "inputs": [],
      "name": "FR_PUBLIC",
      "outputs": [
        {
          "internalType": "uint256",
          "name": "",
          "type": "uint256"
        }
      ],
      "stateMutability": "view",
      "type": "function"
    },
    {
      "inputs": [],
      "name": "PRESALE_LIMIT",
      "outputs": [
        {
          "internalType": "uint256",
          "name": "",
          "type": "uint256"
        }
      ],
      "stateMutability": "view",
      "type": "function"
    },
    {
      "inputs": [
        {
          "internalType": "address[]",
          "name": "_addresses",
          "type": "address[]"
        }
      ],
      "name": "addMultipleToApproveList",
      "outputs": [],
      "stateMutability": "nonpayable",
      "type": "function"
    },
    {
      "inputs": [
        {
          "internalType": "address",
          "name": "_newAddress",
          "type": "address"
        }
      ],
      "name": "addToDenyList",
      "outputs": [],
      "stateMutability": "nonpayable",
      "type": "function"
    },
    {
      "inputs": [
        {
          "internalType": "address",
          "name": "to",
          "type": "address"
        },
        {
          "internalType": "uint256",
          "name": "tokenId",
          "type": "uint256"
        }
      ],
      "name": "approve",
      "outputs": [],
      "stateMutability": "nonpayable",
      "type": "function"
    },
    {
      "inputs": [
        {
          "internalType": "address",
          "name": "",
          "type": "address"
        }
      ],
      "name": "approvelist",
      "outputs": [
        {
          "internalType": "bool",
          "name": "",
          "type": "bool"
        }
      ],
      "stateMutability": "view",
      "type": "function"
    },
    {
      "inputs": [],
      "name": "availableToMint",
      "outputs": [
        {
          "internalType": "uint256",
          "name": "",
          "type": "uint256"
        }
      ],
      "stateMutability": "view",
      "type": "function"
    },
    {
      "inputs": [
        {
          "internalType": "address",
          "name": "owner",
          "type": "address"
        }
      ],
      "name": "balanceOf",
      "outputs": [
        {
          "internalType": "uint256",
          "name": "",
          "type": "uint256"
        }
      ],
      "stateMutability": "view",
      "type": "function"
    },
    {
      "inputs": [
        {
          "internalType": "uint256",
          "name": "tokenQuantity",
          "type": "uint256"
        }
      ],
      "name": "buy",
      "outputs": [],
      "stateMutability": "payable",
      "type": "function"
    },
    {
      "inputs": [
        {
          "internalType": "address",
          "name": "_address",
          "type": "address"
        }
      ],
      "name": "canMint",
      "outputs": [
        {
          "internalType": "bool",
          "name": "",
          "type": "bool"
        },
        {
          "internalType": "string",
          "name": "",
          "type": "string"
        }
      ],
      "stateMutability": "view",
      "type": "function"
    },
    {
      "inputs": [],
      "name": "contractURI",
      "outputs": [
        {
          "internalType": "string",
          "name": "",
          "type": "string"
        }
      ],
      "stateMutability": "view",
      "type": "function"
    },
    {
      "inputs": [],
      "name": "deleteDefaultRoyalty",
      "outputs": [],
      "stateMutability": "nonpayable",
      "type": "function"
    },
    {
      "inputs": [
        {
          "internalType": "address",
          "name": "",
          "type": "address"
        }
      ],
      "name": "denylist",
      "outputs": [
        {
          "internalType": "bool",
          "name": "",
          "type": "bool"
        }
      ],
      "stateMutability": "view",
      "type": "function"
    },
    {
      "inputs": [
        {
          "internalType": "uint256",
          "name": "tokenId",
          "type": "uint256"
        }
      ],
      "name": "getApproved",
      "outputs": [
        {
          "internalType": "address",
          "name": "",
          "type": "address"
        }
      ],
      "stateMutability": "view",
      "type": "function"
    },
    {
      "inputs": [
        {
          "internalType": "address[]",
          "name": "receivers",
          "type": "address[]"
        }
      ],
      "name": "gift",
      "outputs": [],
      "stateMutability": "nonpayable",
      "type": "function"
    },
    {
      "inputs": [],
      "name": "giftedAmount",
      "outputs": [
        {
          "internalType": "uint256",
          "name": "",
          "type": "uint256"
        }
      ],
      "stateMutability": "view",
      "type": "function"
    },
    {
      "inputs": [
        {
          "internalType": "address",
          "name": "owner",
          "type": "address"
        },
        {
          "internalType": "address",
          "name": "operator",
          "type": "address"
        }
      ],
      "name": "isApprovedForAll",
      "outputs": [
        {
          "internalType": "bool",
          "name": "",
          "type": "bool"
        }
      ],
      "stateMutability": "view",
      "type": "function"
    },
    {
      "inputs": [],
      "name": "name",
      "outputs": [
        {
          "internalType": "string",
          "name": "",
          "type": "string"
        }
      ],
      "stateMutability": "view",
      "type": "function"
    },
    {
      "inputs": [],
      "name": "owner",
      "outputs": [
        {
          "internalType": "address",
          "name": "",
          "type": "address"
        }
      ],
      "stateMutability": "view",
      "type": "function"
    },
    {
      "inputs": [
        {
          "internalType": "uint256",
          "name": "tokenId",
          "type": "uint256"
        }
      ],
      "name": "ownerOf",
      "outputs": [
        {
          "internalType": "address",
          "name": "",
          "type": "address"
        }
      ],
      "stateMutability": "view",
      "type": "function"
    },
    {
      "inputs": [
        {
          "internalType": "uint256",
          "name": "tokenQuantity",
          "type": "uint256"
        }
      ],
      "name": "presaleBuy",
      "outputs": [],
      "stateMutability": "payable",
      "type": "function"
    },
    {
      "inputs": [],
      "name": "presaleLive",
      "outputs": [
        {
          "internalType": "bool",
          "name": "",
          "type": "bool"
        }
      ],
      "stateMutability": "view",
      "type": "function"
    },
    {
      "inputs": [
        {
          "internalType": "address",
          "name": "addr",
          "type": "address"
        }
      ],
      "name": "presalePurchasedCount",
      "outputs": [
        {
          "internalType": "uint256",
          "name": "",
          "type": "uint256"
        }
      ],
      "stateMutability": "view",
      "type": "function"
    },
    {
      "inputs": [
        {
          "internalType": "address",
          "name": "",
          "type": "address"
        }
      ],
      "name": "presalerListPurchases",
      "outputs": [
        {
          "internalType": "uint256",
          "name": "",
          "type": "uint256"
        }
      ],
      "stateMutability": "view",
      "type": "function"
    },
    {
      "inputs": [],
      "name": "provenance",
      "outputs": [
        {
          "internalType": "string",
          "name": "",
          "type": "string"
        }
      ],
      "stateMutability": "view",
      "type": "function"
    },
    {
      "inputs": [
        {
          "internalType": "address",
          "name": "_address",
          "type": "address"
        }
      ],
      "name": "removeFromDenyList",
      "outputs": [],
      "stateMutability": "nonpayable",
      "type": "function"
    },
    {
      "inputs": [
        {
          "internalType": "address[]",
          "name": "_addresses",
          "type": "address[]"
        }
      ],
      "name": "removeMultipleFromApproveList",
      "outputs": [],
      "stateMutability": "nonpayable",
      "type": "function"
    },
    {
      "inputs": [],
      "name": "renounceOwnership",
      "outputs": [],
      "stateMutability": "nonpayable",
      "type": "function"
    },
    {
      "inputs": [
        {
          "internalType": "uint256",
          "name": "_tokenId",
          "type": "uint256"
        },
        {
          "internalType": "uint256",
          "name": "_salePrice",
          "type": "uint256"
        }
      ],
      "name": "royaltyInfo",
      "outputs": [
        {
          "internalType": "address",
          "name": "",
          "type": "address"
        },
        {
          "internalType": "uint256",
          "name": "",
          "type": "uint256"
        }
      ],
      "stateMutability": "view",
      "type": "function"
    },
    {
      "inputs": [
        {
          "internalType": "address",
          "name": "from",
          "type": "address"
        },
        {
          "internalType": "address",
          "name": "to",
          "type": "address"
        },
        {
          "internalType": "uint256",
          "name": "tokenId",
          "type": "uint256"
        }
      ],
      "name": "safeTransferFrom",
      "outputs": [],
      "stateMutability": "nonpayable",
      "type": "function"
    },
    {
      "inputs": [
        {
          "internalType": "address",
          "name": "from",
          "type": "address"
        },
        {
          "internalType": "address",
          "name": "to",
          "type": "address"
        },
        {
          "internalType": "uint256",
          "name": "tokenId",
          "type": "uint256"
        },
        {
          "internalType": "bytes",
          "name": "_data",
          "type": "bytes"
        }
      ],
      "name": "safeTransferFrom",
      "outputs": [],
      "stateMutability": "nonpayable",
      "type": "function"
    },
    {
      "inputs": [],
      "name": "saleLive",
      "outputs": [
        {
          "internalType": "bool",
          "name": "",
          "type": "bool"
        }
      ],
      "stateMutability": "view",
      "type": "function"
    },
    {
      "inputs": [
        {
          "internalType": "address",
          "name": "operator",
          "type": "address"
        },
        {
          "internalType": "bool",
          "name": "approved",
          "type": "bool"
        }
      ],
      "name": "setApprovalForAll",
      "outputs": [],
      "stateMutability": "nonpayable",
      "type": "function"
    },
    {
      "inputs": [
        {
          "internalType": "string",
          "name": "URI",
          "type": "string"
        }
      ],
      "name": "setBaseURI",
      "outputs": [],
      "stateMutability": "nonpayable",
      "type": "function"
    },
    {
      "inputs": [
        {
          "internalType": "string",
          "name": "URI",
          "type": "string"
        }
      ],
      "name": "setContractURI",
      "outputs": [],
      "stateMutability": "nonpayable",
      "type": "function"
    },
    {
      "inputs": [
        {
          "internalType": "address",
          "name": "recipient",
          "type": "address"
        },
        {
          "internalType": "uint96",
          "name": "fraction",
          "type": "uint96"
        }
      ],
      "name": "setDefaultRoyalty",
      "outputs": [],
      "stateMutability": "nonpayable",
      "type": "function"
    },
    {
      "inputs": [
        {
          "internalType": "uint256",
          "name": "amount",
          "type": "uint256"
        }
      ],
      "name": "setPreSaleLimit",
      "outputs": [],
      "stateMutability": "nonpayable",
      "type": "function"
    },
    {
      "inputs": [
        {
          "internalType": "uint256",
          "name": "amount",
          "type": "uint256"
        }
      ],
      "name": "setPrice",
      "outputs": [],
      "stateMutability": "nonpayable",
      "type": "function"
    },
    {
      "inputs": [
        {
          "internalType": "string",
          "name": "hash",
          "type": "string"
        }
      ],
      "name": "setProvenanceHash",
      "outputs": [],
      "stateMutability": "nonpayable",
      "type": "function"
    },
    {
      "inputs": [
        {
          "internalType": "address",
          "name": "addr",
          "type": "address"
        }
      ],
      "name": "setSignerAddress",
      "outputs": [],
      "stateMutability": "nonpayable",
      "type": "function"
    },
    {
      "inputs": [
        {
          "internalType": "uint256",
          "name": "tokenId",
          "type": "uint256"
        },
        {
          "internalType": "address",
          "name": "recipient",
          "type": "address"
        },
        {
          "internalType": "uint96",
          "name": "fraction",
          "type": "uint96"
        }
      ],
      "name": "setTokenRoyalty",
      "outputs": [],
      "stateMutability": "nonpayable",
      "type": "function"
    },
    {
      "inputs": [
        {
          "internalType": "address",
          "name": "addr",
          "type": "address"
        }
      ],
      "name": "setVaultAddress",
      "outputs": [],
      "stateMutability": "nonpayable",
      "type": "function"
    },
    {
      "inputs": [
        {
          "internalType": "bytes4",
          "name": "interfaceId",
          "type": "bytes4"
        }
      ],
      "name": "supportsInterface",
      "outputs": [
        {
          "internalType": "bool",
          "name": "",
          "type": "bool"
        }
      ],
      "stateMutability": "view",
      "type": "function"
    },
    {
      "inputs": [],
      "name": "symbol",
      "outputs": [
        {
          "internalType": "string",
          "name": "",
          "type": "string"
        }
      ],
      "stateMutability": "view",
      "type": "function"
    },
    {
      "inputs": [],
      "name": "togglePresaleStatus",
      "outputs": [],
      "stateMutability": "nonpayable",
      "type": "function"
    },
    {
      "inputs": [],
      "name": "toggleSaleStatus",
      "outputs": [],
      "stateMutability": "nonpayable",
      "type": "function"
    },
    {
      "inputs": [
        {
          "internalType": "uint256",
          "name": "tokenId",
          "type": "uint256"
        }
      ],
      "name": "tokenURI",
      "outputs": [
        {
          "internalType": "string",
          "name": "",
          "type": "string"
        }
      ],
      "stateMutability": "view",
      "type": "function"
    },
    {
      "inputs": [],
      "name": "totalSupply",
      "outputs": [
        {
          "internalType": "uint256",
          "name": "",
          "type": "uint256"
        }
      ],
      "stateMutability": "view",
      "type": "function"
    },
    {
      "inputs": [
        {
          "internalType": "address",
          "name": "from",
          "type": "address"
        },
        {
          "internalType": "address",
          "name": "to",
          "type": "address"
        },
        {
          "internalType": "uint256",
          "name": "tokenId",
          "type": "uint256"
        }
      ],
      "name": "transferFrom",
      "outputs": [],
      "stateMutability": "nonpayable",
      "type": "function"
    },
    {
      "inputs": [
        {
          "internalType": "address",
          "name": "newOwner",
          "type": "address"
        }
      ],
      "name": "transferOwnership",
      "outputs": [],
      "stateMutability": "nonpayable",
      "type": "function"
    },
    {
      "inputs": [],
      "name": "withdraw",
      "outputs": [],
      "stateMutability": "nonpayable",
      "type": "function"
    }
  ],
  "bytecode": "0x6080604052600e8054739cfeae92c8a5cdf5d00d91883edc8e2db9a2fea76001600160a01b03199182168117909255600f805490911690911790553480156200004757600080fd5b5060405180604001604052806008815260200167053747265616d31360c41b8152506040518060400160405280600381526020016205331360ec1b8152506200009f620000996200013460201b60201c565b62000138565b6003620000ad838262000342565b506004620000bc828262000342565b50506103e8600a555066b1a2bc2ec5000060095560408051808201909152601f81527f68747470733a2f2f73702e7261642e6c6976652f73747265616d706173732f006020820152600d9062000113908262000342565b50600f546200012e906001600160a01b0316610bb862000188565b6200040e565b3390565b600080546001600160a01b038381166001600160a01b0319831681178455604051919092169283917f8be0079c531659141344cd1fd0a4f28419497f9722a3daafe3b4186f6b6457e09190a35050565b62000194828262000198565b5050565b6127106001600160601b03821611156200020c5760405162461bcd60e51b815260206004820152602a60248201527f455243323938313a20726f79616c7479206665652077696c6c206578636565646044820152692073616c65507269636560b01b60648201526084015b60405180910390fd5b6001600160a01b038216620002645760405162461bcd60e51b815260206004820152601960248201527f455243323938313a20696e76616c696420726563656976657200000000000000604482015260640162000203565b604080518082019091526001600160a01b039092168083526001600160601b039091166020909201829052600160a01b90910217600155565b634e487b7160e01b600052604160045260246000fd5b600181811c90821680620002c857607f821691505b602082108103620002e957634e487b7160e01b600052602260045260246000fd5b50919050565b601f8211156200033d57600081815260208120601f850160051c81016020861015620003185750805b601f850160051c820191505b81811015620003395782815560010162000324565b5050505b505050565b81516001600160401b038111156200035e576200035e6200029d565b62000376816200036f8454620002b3565b84620002ef565b602080601f831160018114620003ae5760008415620003955750858301515b600019600386901b1c1916600185901b17855562000339565b600085815260208120601f198616915b82811015620003df57888601518255948401946001909101908401620003be565b5085821015620003fe5787850151600019600388901b60f8161c191681555b5050505050600190811b01905550565b61353b806200041e6000396000f3fe6080604052600436106103555760003560e01c806370a08231116101bb578063a68157cd116100f7578063c87b56dd11610095578063e8a3d4851161006f578063e8a3d4851461097a578063e985e9c51461098f578063f146877a146109d8578063f2fde38b146109ee57600080fd5b8063c87b56dd14610928578063d96a094a14610948578063e081b7811461095b57600080fd5b8063b88d4fde116100d1578063b88d4fde146108ba578063b903364c146108da578063c0b306031461062e578063c2ba4744146108fa57600080fd5b8063a68157cd14610865578063aa1b103f14610885578063abf23f201461089a57600080fd5b806385535cc511610164578063938e3d7b1161013e578063938e3d7b146107e357806395d89b41146108035780639bf8031614610818578063a22cb4651461084557600080fd5b806385535cc5146107855780638da5cb5b146107a557806391b7f5ed146107c357600080fd5b80637bffb4ce116101955780637bffb4ce14610743578063815f7bbd1461075857806383a9e0491461076b57600080fd5b806370a08231146106f9578063715018a61461071957806374601c3c1461072e57600080fd5b806318160ddd116102955780633ccfd60b1161023357806355f804b31161020d57806355f804b3146106635780635944c753146106835780635ce7af1f146106a35780636352211e146106d957600080fd5b80633ccfd60b146106195780633cef98361461062e57806342842e0e1461064357600080fd5b8063215048cd1161026f578063215048cd1461056a57806323b872dd1461058a5780632a55205a146105aa5780633371bfff146105e957600080fd5b806318160ddd146105295780631aee3f911461053e5780631b57190e1461055457600080fd5b8063081812fc116103025780630f061627116102dc5780630f061627146104a45780630f7309e8146104d457806310969523146104e9578063163e1e611461050957600080fd5b8063081812fc1461042c578063095ea7b3146104645780630b1f703c1461048457600080fd5b8063049c5c4911610333578063049c5c49146103d1578063051e93dc146103e657806306fdde031461040a57600080fd5b806301ffc9a71461035a57806304634d8d1461038f578063046dc166146103b1575b600080fd5b34801561036657600080fd5b5061037a610375366004612dca565b610a0e565b60405190151581526020015b60405180910390f35b34801561039b57600080fd5b506103af6103aa366004612e26565b610a1f565b005b3480156103bd57600080fd5b506103af6103cc366004612e59565b610a2d565b3480156103dd57600080fd5b506103af610a9c565b3480156103f257600080fd5b506103fc6126ac81565b604051908152602001610386565b34801561041657600080fd5b5061041f610b28565b6040516103869190612ec4565b34801561043857600080fd5b5061044c610447366004612ed7565b610bba565b6040516001600160a01b039091168152602001610386565b34801561047057600080fd5b506103af61047f366004612ef0565b610c42565b34801561049057600080fd5b506103af61049f366004612ed7565b610d91565b3480156104b057600080fd5b5061037a6104bf366004612e59565b60106020526000908152604090205460ff1681565b3480156104e057600080fd5b5061041f610dde565b3480156104f557600080fd5b506103af610504366004612f1a565b610e6c565b34801561051557600080fd5b506103af610524366004612f8c565b610ec1565b34801561053557600080fd5b506005546103fc565b34801561054a57600080fd5b506103fc600a5481565b34801561056057600080fd5b506103fc60085481565b34801561057657600080fd5b506103af610585366004612e59565b611039565b34801561059657600080fd5b506103af6105a5366004612fef565b6110a2565b3480156105b657600080fd5b506105ca6105c536600461302b565b611225565b604080516001600160a01b039093168352602083019190915201610386565b3480156105f557600080fd5b5061037a610604366004612e59565b60116020526000908152604090205460ff1681565b34801561062557600080fd5b506103af6112e0565b34801561063a57600080fd5b506103fc606481565b34801561064f57600080fd5b506103af61065e366004612fef565b611364565b34801561066f57600080fd5b506103af61067e366004612f1a565b61137f565b34801561068f57600080fd5b506103af61069e36600461304d565b6113d4565b3480156106af57600080fd5b506103fc6106be366004612e59565b6001600160a01b031660009081526013602052604090205490565b3480156106e557600080fd5b5061044c6106f4366004612ed7565b6113df565b34801561070557600080fd5b506103fc610714366004612e59565b61147f565b34801561072557600080fd5b506103af611564565b34801561073a57600080fd5b506103fc6115b6565b34801561074f57600080fd5b506103af6115cd565b6103af610766366004612ed7565b611629565b34801561077757600080fd5b5060125461037a9060ff1681565b34801561079157600080fd5b506103af6107a0366004612e59565b611930565b3480156107b157600080fd5b506000546001600160a01b031661044c565b3480156107cf57600080fd5b506103af6107de366004612ed7565b61199a565b3480156107ef57600080fd5b506103af6107fe366004612f1a565b6119e7565b34801561080f57600080fd5b5061041f611a3c565b34801561082457600080fd5b506103fc610833366004612e59565b60136020526000908152604090205481565b34801561085157600080fd5b506103af610860366004613089565b611a4b565b34801561087157600080fd5b506103af610880366004612f8c565b611b0f565b34801561089157600080fd5b506103af611c2f565b3480156108a657600080fd5b506103af6108b5366004612f8c565b611c39565b3480156108c657600080fd5b506103af6108d53660046130db565b611d59565b3480156108e657600080fd5b506103af6108f5366004612e59565b611de1565b34801561090657600080fd5b5061091a610915366004612e59565b611e4d565b6040516103869291906131b7565b34801561093457600080fd5b5061041f610943366004612ed7565b611ec7565b6103af610956366004612ed7565b611f76565b34801561096757600080fd5b5060125461037a90610100900460ff1681565b34801561098657600080fd5b5061041f6121ac565b34801561099b57600080fd5b5061037a6109aa3660046131d2565b6001600160a01b03918216600090815260076020908152604080832093909416825291909152205460ff1690565b3480156109e457600080fd5b506103fc60095481565b3480156109fa57600080fd5b506103af610a09366004612e59565b6121bb565b6000610a1982612288565b92915050565b610a2982826122fa565b5050565b6000546001600160a01b03163314610a7a5760405162461bcd60e51b815260206004820181905260248201526000805160206134e683398151915260448201526064015b60405180910390fd5b600e80546001600160a01b0319166001600160a01b0392909216919091179055565b6000546001600160a01b03163314610ae45760405162461bcd60e51b815260206004820181905260248201526000805160206134e68339815191526044820152606401610a71565b6012805460ff610100808304821615810261ff0019909316929092179283905591041615610b1a57670214e8348c4f0000600955565b66b1a2bc2ec500006009555b565b606060038054610b37906131fc565b80601f0160208091040260200160405190810160405280929190818152602001828054610b63906131fc565b8015610bb05780601f10610b8557610100808354040283529160200191610bb0565b820191906000526020600020905b815481529060010190602001808311610b9357829003601f168201915b5050505050905090565b6000610bc582612401565b610c265760405162461bcd60e51b815260206004820152602c60248201527f4552433732313a20617070726f76656420717565727920666f72206e6f6e657860448201526b34b9ba32b73a103a37b5b2b760a11b6064820152608401610a71565b506000908152600660205260409020546001600160a01b031690565b6000610c4d826113df565b9050806001600160a01b0316836001600160a01b031603610cd65760405162461bcd60e51b815260206004820152602160248201527f4552433732313a20617070726f76616c20746f2063757272656e74206f776e6560448201527f72000000000000000000000000000000000000000000000000000000000000006064820152608401610a71565b336001600160a01b0382161480610d1057506001600160a01b038116600090815260076020908152604080832033845290915290205460ff165b610d825760405162461bcd60e51b815260206004820152603860248201527f4552433732313a20617070726f76652063616c6c6572206973206e6f74206f7760448201527f6e6572206e6f7220617070726f76656420666f7220616c6c00000000000000006064820152608401610a71565b610d8c838361244b565b505050565b6000546001600160a01b03163314610dd95760405162461bcd60e51b815260206004820181905260248201526000805160206134e68339815191526044820152606401610a71565b600a55565b600b8054610deb906131fc565b80601f0160208091040260200160405190810160405280929190818152602001828054610e17906131fc565b8015610e645780601f10610e3957610100808354040283529160200191610e64565b820191906000526020600020905b815481529060010190602001808311610e4757829003601f168201915b505050505081565b6000546001600160a01b03163314610eb45760405162461bcd60e51b815260206004820181905260248201526000805160206134e68339815191526044820152606401610a71565b600b610d8c828483613284565b6000546001600160a01b03163314610f095760405162461bcd60e51b815260206004820181905260248201526000805160206134e68339815191526044820152606401610a71565b6005546126ac610f19838361335b565b1115610f675760405162461bcd60e51b815260206004820152600860248201527f4d41585f4d494e540000000000000000000000000000000000000000000000006044820152606401610a71565b600854606490610f7890849061335b565b1115610fc65760405162461bcd60e51b815260206004820152600860248201527f4e4f5f47494654530000000000000000000000000000000000000000000000006044820152606401610a71565b60005b828110156110335760088054906000610fe18361336e565b9190505550611021848483818110610ffb57610ffb613387565b90506020020160208101906110109190612e59565b8361101a8161336e565b94506124b9565b8061102b8161336e565b915050610fc9565b50505050565b6000546001600160a01b031633146110815760405162461bcd60e51b815260206004820181905260248201526000805160206134e68339815191526044820152606401610a71565b6001600160a01b03166000908152601160205260409020805460ff19169055565b6001600160a01b0383166110f85760405162461bcd60e51b815260206004820152601460248201527f696e76616c69642066726f6d20616464726573730000000000000000000000006044820152606401610a71565b6001600160a01b03821661114e5760405162461bcd60e51b815260206004820152601260248201527f696e76616c696420746f206164647265737300000000000000000000000000006044820152606401610a71565b6000811161119e5760405162461bcd60e51b815260206004820152600f60248201527f696e76616c696420746f6b656e496400000000000000000000000000000000006044820152606401610a71565b6111a833826124d3565b61121a5760405162461bcd60e51b815260206004820152603160248201527f4552433732313a207472616e736665722063616c6c6572206973206e6f74206f60448201527f776e6572206e6f7220617070726f7665640000000000000000000000000000006064820152608401610a71565b610d8c8383836125bd565b60008281526002602090815260408083208151808301909252546001600160a01b038116808352600160a01b9091046bffffffffffffffffffffffff169282019290925282916112a45750604080518082019091526001546001600160a01b0381168252600160a01b90046bffffffffffffffffffffffff1660208201525b6020810151600090612710906112c8906bffffffffffffffffffffffff168761339d565b6112d291906133ca565b915196919550909350505050565b6000546001600160a01b031633146113285760405162461bcd60e51b815260206004820181905260248201526000805160206134e68339815191526044820152606401610a71565b600f546040516001600160a01b03909116904780156108fc02916000818181858888f19350505050158015611361573d6000803e3d6000fd5b50565b610d8c83838360405180602001604052806000815250611d59565b6000546001600160a01b031633146113c75760405162461bcd60e51b815260206004820181905260248201526000805160206134e68339815191526044820152606401610a71565b600d610d8c828483613284565b610d8c838383612740565b600080600583815481106113f5576113f5613387565b6000918252602090912001546001600160a01b0316905080610a195760405162461bcd60e51b815260206004820152602960248201527f4552433732313a206f776e657220717565727920666f72206e6f6e657869737460448201527f656e7420746f6b656e00000000000000000000000000000000000000000000006064820152608401610a71565b60006001600160a01b0382166114fd5760405162461bcd60e51b815260206004820152602a60248201527f4552433732313a2062616c616e636520717565727920666f7220746865207a6560448201527f726f2061646472657373000000000000000000000000000000000000000000006064820152608401610a71565b600554600090815b8181101561155b576005818154811061152057611520613387565b6000918252602090912001546001600160a01b039081169086160361154b576115488361336e565b92505b6115548161336e565b9050611505565b50909392505050565b6000546001600160a01b031633146115ac5760405162461bcd60e51b815260206004820181905260248201526000805160206134e68339815191526044820152606401610a71565b610b266000612858565b6005546000906115c8906126ac6133de565b905090565b6000546001600160a01b031633146116155760405162461bcd60e51b815260206004820181905260248201526000805160206134e68339815191526044820152606401610a71565b6012805460ff19811660ff90911615179055565b601254610100900460ff16158015611643575060125460ff165b61168f5760405162461bcd60e51b815260206004820152600e60248201527f50524553414c455f434c4f5345440000000000000000000000000000000000006044820152606401610a71565b336000908152601360205260409020546064906116ad90839061335b565b11156116fb5760405162461bcd60e51b815260206004820152600c60248201527f4558434545445f414c4c4f4300000000000000000000000000000000000000006044820152606401610a71565b606481111561174c5760405162461bcd60e51b815260206004820152601260248201527f4558434545445f46525f5045525f4d494e5400000000000000000000000000006044820152606401610a71565b348160095461175b919061339d565b11156117a95760405162461bcd60e51b815260206004820152601060248201527f494e53554646494349454e545f455448000000000000000000000000000000006044820152606401610a71565b3360009081526010602052604090205460ff166117fd5760405162461bcd60e51b81526020600482015260126024820152712727aa2fa0a8282927ab22a22fa12aaca2a960711b6044820152606401610a71565b3360009081526011602052604090205460ff16156118525760405162461bcd60e51b81526020600482015260126024820152712727aa2fa0a8282927ab22a22fa12aaca2a960711b6044820152606401610a71565b600554600a54611862838361335b565b11156118b05760405162461bcd60e51b815260206004820152601960248201527f4558434545445f4d41585f50524553414c455f535550504c59000000000000006044820152606401610a71565b33600090815260136020526040812080548492906118cf90849061335b565b90915550600090505b82811015611907576118f533836118ee8161336e565b94506128a8565b806118ff8161336e565b9150506118d8565b50600a548103610a29576012805461ffff1916610100179055670214e8348c4f00006009555050565b6000546001600160a01b031633146119785760405162461bcd60e51b815260206004820181905260248201526000805160206134e68339815191526044820152606401610a71565b600f80546001600160a01b0319166001600160a01b0392909216919091179055565b6000546001600160a01b031633146119e25760405162461bcd60e51b815260206004820181905260248201526000805160206134e68339815191526044820152606401610a71565b600955565b6000546001600160a01b03163314611a2f5760405162461bcd60e51b815260206004820181905260248201526000805160206134e68339815191526044820152606401610a71565b600c610d8c828483613284565b606060048054610b37906131fc565b336001600160a01b03831603611aa35760405162461bcd60e51b815260206004820152601960248201527f4552433732313a20617070726f766520746f2063616c6c6572000000000000006044820152606401610a71565b3360008181526007602090815260408083206001600160a01b03871680855290835292819020805460ff191686151590811790915590519081529192917f17307eab39ab6107e8899845ad3d59bd9653f200f220920489ca2b5937696c31910160405180910390a35050565b6000546001600160a01b03163314611b575760405162461bcd60e51b815260206004820181905260248201526000805160206134e68339815191526044820152606401610a71565b6103e8811115611bbd5760405162461bcd60e51b815260206004820152602b60248201527f50726f76696465206c6573732061646472657373657320696e206f6e6520667560448201526a1b98dd1a5bdb8818d85b1b60aa1b6064820152608401610a71565b60005b81811015610d8c57600160106000858585818110611be057611be0613387565b9050602002016020810190611bf59190612e59565b6001600160a01b031681526020810191909152604001600020805460ff191691151591909117905580611c278161336e565b915050611bc0565b610b266000600155565b6000546001600160a01b03163314611c815760405162461bcd60e51b815260206004820181905260248201526000805160206134e68339815191526044820152606401610a71565b612710811115611ce75760405162461bcd60e51b815260206004820152602b60248201527f50726f76696465206c6573732061646472657373657320696e206f6e6520667560448201526a1b98dd1a5bdb8818d85b1b60aa1b6064820152608401610a71565b60005b81811015610d8c57600060106000858585818110611d0a57611d0a613387565b9050602002016020810190611d1f9190612e59565b6001600160a01b031681526020810191909152604001600020805460ff191691151591909117905580611d518161336e565b915050611cea565b611d6333836124d3565b611dd55760405162461bcd60e51b815260206004820152603160248201527f4552433732313a207472616e736665722063616c6c6572206973206e6f74206f60448201527f776e6572206e6f7220617070726f7665640000000000000000000000000000006064820152608401610a71565b611033848484846129d0565b6000546001600160a01b03163314611e295760405162461bcd60e51b815260206004820181905260248201526000805160206134e68339815191526044820152606401610a71565b6001600160a01b03166000908152601160205260409020805460ff19166001179055565b6001600160a01b03811660009081526010602052604081205460609060ff16611eae57505060408051808201909152601181527f496e76616c6964207369676e61747572650000000000000000000000000000006020820152600092909150565b5050604080516020810190915260008152600192909150565b6060611ed282612401565b611f445760405162461bcd60e51b815260206004820152602f60248201527f4552433732314d657461646174613a2055524920717565727920666f72206e6f60448201527f6e6578697374656e7420746f6b656e00000000000000000000000000000000006064820152608401610a71565b600d611f4f83612a4e565b604051602001611f609291906133f1565b6040516020818303038152906040529050919050565b601254610100900460ff16611fcd5760405162461bcd60e51b815260206004820152600b60248201527f53414c455f434c4f5345440000000000000000000000000000000000000000006044820152606401610a71565b60125460ff16156120205760405162461bcd60e51b815260206004820152600c60248201527f4f4e4c595f50524553414c4500000000000000000000000000000000000000006044820152606401610a71565b60648111156120715760405162461bcd60e51b815260206004820152601260248201527f4558434545445f46525f5045525f4d494e5400000000000000000000000000006044820152606401610a71565b3481600954612080919061339d565b11156120ce5760405162461bcd60e51b815260206004820152601060248201527f494e53554646494349454e545f455448000000000000000000000000000000006044820152606401610a71565b3360009081526011602052604090205460ff16156121235760405162461bcd60e51b81526020600482015260126024820152712727aa2fa0a8282927ab22a22fa12aaca2a960711b6044820152606401610a71565b6005546126ac612133838361335b565b11156121815760405162461bcd60e51b815260206004820152601660248201527f4558434545445f4d41585f53414c455f535550504c59000000000000000000006044820152606401610a71565b60005b82811015610d8c5761219a33836118ee8161336e565b806121a48161336e565b915050612184565b6060600c8054610b37906131fc565b6000546001600160a01b031633146122035760405162461bcd60e51b815260206004820181905260248201526000805160206134e68339815191526044820152606401610a71565b6001600160a01b03811661227f5760405162461bcd60e51b815260206004820152602660248201527f4f776e61626c653a206e6577206f776e657220697320746865207a65726f206160448201527f64647265737300000000000000000000000000000000000000000000000000006064820152608401610a71565b61136181612858565b60006001600160e01b031982167f80ac58cd0000000000000000000000000000000000000000000000000000000014806122eb57506001600160e01b031982167f5b5e139f00000000000000000000000000000000000000000000000000000000145b80610a195750610a1982612b83565b6127106bffffffffffffffffffffffff8216111561236d5760405162461bcd60e51b815260206004820152602a60248201527f455243323938313a20726f79616c7479206665652077696c6c206578636565646044820152692073616c65507269636560b01b6064820152608401610a71565b6001600160a01b0382166123c35760405162461bcd60e51b815260206004820152601960248201527f455243323938313a20696e76616c6964207265636569766572000000000000006044820152606401610a71565b604080518082019091526001600160a01b039092168083526bffffffffffffffffffffffff9091166020909201829052600160a01b90910217600155565b60055460009082108015610a19575060006001600160a01b03166005838154811061242e5761242e613387565b6000918252602090912001546001600160a01b0316141592915050565b600081815260066020526040902080546001600160a01b0319166001600160a01b0384169081179091558190612480826113df565b6001600160a01b03167f8c5be1e5ebec7d5bd14f71427d1e84f3dd0314c0f7b2291e5b200ac8c7c3b92560405160405180910390a45050565b610a29828260405180602001604052806000815250612bea565b60006124de82612401565b61253f5760405162461bcd60e51b815260206004820152602c60248201527f4552433732313a206f70657261746f7220717565727920666f72206e6f6e657860448201526b34b9ba32b73a103a37b5b2b760a11b6064820152608401610a71565b600061254a836113df565b9050806001600160a01b0316846001600160a01b031614806125855750836001600160a01b031661257a84610bba565b6001600160a01b0316145b806125b557506001600160a01b0380821660009081526007602090815260408083209388168352929052205460ff165b949350505050565b826001600160a01b03166125d0826113df565b6001600160a01b03161461264c5760405162461bcd60e51b815260206004820152602960248201527f4552433732313a207472616e73666572206f6620746f6b656e2074686174206960448201527f73206e6f74206f776e00000000000000000000000000000000000000000000006064820152608401610a71565b6001600160a01b0382166126c75760405162461bcd60e51b8152602060048201526024808201527f4552433732313a207472616e7366657220746f20746865207a65726f2061646460448201527f72657373000000000000000000000000000000000000000000000000000000006064820152608401610a71565b6126d260008261244b565b81600582815481106126e6576126e6613387565b6000918252602082200180546001600160a01b0319166001600160a01b03938416179055604051839285811692908716917fddf252ad1be2c89b69c2b068fc378daa952ba7f163c4a11628f55a4df523b3ef9190a4505050565b6127106bffffffffffffffffffffffff821611156127b35760405162461bcd60e51b815260206004820152602a60248201527f455243323938313a20726f79616c7479206665652077696c6c206578636565646044820152692073616c65507269636560b01b6064820152608401610a71565b6001600160a01b0382166128095760405162461bcd60e51b815260206004820152601b60248201527f455243323938313a20496e76616c696420706172616d657465727300000000006044820152606401610a71565b6040805180820182526001600160a01b0393841681526bffffffffffffffffffffffff92831660208083019182526000968752600290529190942093519051909116600160a01b029116179055565b600080546001600160a01b038381166001600160a01b0319831681178455604051919092169283917f8be0079c531659141344cd1fd0a4f28419497f9722a3daafe3b4186f6b6457e09190a35050565b6001600160a01b0382166128fe5760405162461bcd60e51b815260206004820181905260248201527f4552433732313a206d696e7420746f20746865207a65726f20616464726573736044820152606401610a71565b61290781612401565b156129545760405162461bcd60e51b815260206004820152601c60248201527f4552433732313a20746f6b656e20616c7265616479206d696e746564000000006044820152606401610a71565b6005805460018101825560009182527f036b6384b5eca791c62761152d0c79bb0604c104a5fb6f4eb0703f3154bb3db00180546001600160a01b0319166001600160a01b0385169081179091556040518392907fddf252ad1be2c89b69c2b068fc378daa952ba7f163c4a11628f55a4df523b3ef908290a45050565b6129db8484846125bd565b6129e784848484612c68565b6110335760405162461bcd60e51b815260206004820152603260248201527f4552433732313a207472616e7366657220746f206e6f6e20455243373231526560448201527131b2b4bb32b91034b6b83632b6b2b73a32b960711b6064820152608401610a71565b606081600003612a9157505060408051808201909152600181527f3000000000000000000000000000000000000000000000000000000000000000602082015290565b8160005b8115612abb5780612aa58161336e565b9150612ab49050600a836133ca565b9150612a95565b60008167ffffffffffffffff811115612ad657612ad66130c5565b6040519080825280601f01601f191660200182016040528015612b00576020820181803683370190505b5090505b84156125b557612b156001836133de565b9150612b22600a86613478565b612b2d90603061335b565b60f81b818381518110612b4257612b42613387565b60200101907effffffffffffffffffffffffffffffffffffffffffffffffffffffffffffff1916908160001a905350612b7c600a866133ca565b9450612b04565b60006001600160e01b031982167f2a55205a000000000000000000000000000000000000000000000000000000001480610a1957507f01ffc9a7000000000000000000000000000000000000000000000000000000006001600160e01b0319831614610a19565b612bf483836128a8565b612c016000848484612c68565b610d8c5760405162461bcd60e51b815260206004820152603260248201527f4552433732313a207472616e7366657220746f206e6f6e20455243373231526560448201527131b2b4bb32b91034b6b83632b6b2b73a32b960711b6064820152608401610a71565b60006001600160a01b0384163b15612da957604051630a85bd0160e11b81526001600160a01b0385169063150b7a0290612cac90339089908890889060040161348c565b6020604051808303816000875af1925050508015612ce7575060408051601f3d908101601f19168201909252612ce4918101906134c8565b60015b612d8f573d808015612d15576040519150601f19603f3d011682016040523d82523d6000602084013e612d1a565b606091505b508051600003612d875760405162461bcd60e51b815260206004820152603260248201527f4552433732313a207472616e7366657220746f206e6f6e20455243373231526560448201527131b2b4bb32b91034b6b83632b6b2b73a32b960711b6064820152608401610a71565b805181602001fd5b6001600160e01b031916630a85bd0160e11b1490506125b5565b506001949350505050565b6001600160e01b03198116811461136157600080fd5b600060208284031215612ddc57600080fd5b8135612de781612db4565b9392505050565b80356001600160a01b0381168114612e0557600080fd5b919050565b80356bffffffffffffffffffffffff81168114612e0557600080fd5b60008060408385031215612e3957600080fd5b612e4283612dee565b9150612e5060208401612e0a565b90509250929050565b600060208284031215612e6b57600080fd5b612de782612dee565b60005b83811015612e8f578181015183820152602001612e77565b50506000910152565b60008151808452612eb0816020860160208601612e74565b601f01601f19169290920160200192915050565b602081526000612de76020830184612e98565b600060208284031215612ee957600080fd5b5035919050565b60008060408385031215612f0357600080fd5b612f0c83612dee565b946020939093013593505050565b60008060208385031215612f2d57600080fd5b823567ffffffffffffffff80821115612f4557600080fd5b818501915085601f830112612f5957600080fd5b813581811115612f6857600080fd5b866020828501011115612f7a57600080fd5b60209290920196919550909350505050565b60008060208385031215612f9f57600080fd5b823567ffffffffffffffff80821115612fb757600080fd5b818501915085601f830112612fcb57600080fd5b813581811115612fda57600080fd5b8660208260051b8501011115612f7a57600080fd5b60008060006060848603121561300457600080fd5b61300d84612dee565b925061301b60208501612dee565b9150604084013590509250925092565b6000806040838503121561303e57600080fd5b50508035926020909101359150565b60008060006060848603121561306257600080fd5b8335925061307260208501612dee565b915061308060408501612e0a565b90509250925092565b6000806040838503121561309c57600080fd5b6130a583612dee565b9150602083013580151581146130ba57600080fd5b809150509250929050565b634e487b7160e01b600052604160045260246000fd5b600080600080608085870312156130f157600080fd5b6130fa85612dee565b935061310860208601612dee565b925060408501359150606085013567ffffffffffffffff8082111561312c57600080fd5b818701915087601f83011261314057600080fd5b813581811115613152576131526130c5565b604051601f8201601f19908116603f0116810190838211818310171561317a5761317a6130c5565b816040528281528a602084870101111561319357600080fd5b82602086016020830137600060208483010152809550505050505092959194509250565b82151581526040602082015260006125b56040830184612e98565b600080604083850312156131e557600080fd5b6131ee83612dee565b9150612e5060208401612dee565b600181811c9082168061321057607f821691505b60208210810361323057634e487b7160e01b600052602260045260246000fd5b50919050565b601f821115610d8c57600081815260208120601f850160051c8101602086101561325d5750805b601f850160051c820191505b8181101561327c57828155600101613269565b505050505050565b67ffffffffffffffff83111561329c5761329c6130c5565b6132b0836132aa83546131fc565b83613236565b6000601f8411600181146132e457600085156132cc5750838201355b600019600387901b1c1916600186901b17835561333e565b600083815260209020601f19861690835b8281101561331557868501358255602094850194600190920191016132f5565b50868210156133325760001960f88860031b161c19848701351681555b505060018560011b0183555b5050505050565b634e487b7160e01b600052601160045260246000fd5b80820180821115610a1957610a19613345565b60006001820161338057613380613345565b5060010190565b634e487b7160e01b600052603260045260246000fd5b8082028115828204841417610a1957610a19613345565b634e487b7160e01b600052601260045260246000fd5b6000826133d9576133d96133b4565b500490565b81810381811115610a1957610a19613345565b60008084546133ff816131fc565b60018281168015613417576001811461342c5761345b565b60ff198416875282151583028701945061345b565b8860005260208060002060005b858110156134525781548a820152908401908201613439565b50505082870194505b50505050835161346f818360208801612e74565b01949350505050565b600082613487576134876133b4565b500690565b60006001600160a01b038087168352808616602084015250836040830152608060608301526134be6080830184612e98565b9695505050505050565b6000602082840312156134da57600080fd5b8151612de781612db456fe4f776e61626c653a2063616c6c6572206973206e6f7420746865206f776e6572a2646970667358221220a63fbe89cde6b5d0dfd067ff6dd4a68e720bd22ff794d75a7fa61043c394680564736f6c63430008110033",
  "linkReferences": {},
  "deployedLinkReferences": {}
}