{
  "_format": "hh-sol-artifact-1",
  "contractName": "StreamPass",
  "sourceName": "contracts/StreamPass.sol",
  "abi": [
    {
      "inputs": [],
      "stateMutability": "nonpayable",
      "type": "constructor"
    },
    {
      "anonymous": false,
      "inputs": [
        {
          "indexed": true,
          "internalType": "address",
          "name": "owner",
          "type": "address"
        },
        {
          "indexed": true,
          "internalType": "address",
          "name": "approved",
          "type": "address"
        },
        {
          "indexed": true,
          "internalType": "uint256",
          "name": "tokenId",
          "type": "uint256"
        }
      ],
      "name": "Approval",
      "type": "event"
    },
    {
      "anonymous": false,
      "inputs": [
        {
          "indexed": true,
          "internalType": "address",
          "name": "owner",
          "type": "address"
        },
        {
          "indexed": true,
          "internalType": "address",
          "name": "operator",
          "type": "address"
        },
        {
          "indexed": false,
          "internalType": "bool",
          "name": "approved",
          "type": "bool"
        }
      ],
      "name": "ApprovalForAll",
      "type": "event"
    },
    {
      "anonymous": false,
      "inputs": [
        {
          "indexed": true,
          "internalType": "address",
          "name": "previousOwner",
          "type": "address"
        },
        {
          "indexed": true,
          "internalType": "address",
          "name": "newOwner",
          "type": "address"
        }
      ],
      "name": "OwnershipTransferred",
      "type": "event"
    },
    {
      "anonymous": false,
      "inputs": [
        {
          "indexed": true,
          "internalType": "address",
          "name": "from",
          "type": "address"
        },
        {
          "indexed": true,
          "internalType": "address",
          "name": "to",
          "type": "address"
        },
        {
          "indexed": true,
          "internalType": "uint256",
          "name": "tokenId",
          "type": "uint256"
        }
      ],
      "name": "Transfer",
      "type": "event"
    },
    {
      "inputs": [],
      "name": "AGC_GIFT",
      "outputs": [
        {
          "internalType": "uint256",
          "name": "",
          "type": "uint256"
        }
      ],
      "stateMutability": "view",
      "type": "function"
    },
    {
      "inputs": [],
      "name": "AGC_MAX",
      "outputs": [
        {
          "internalType": "uint256",
          "name": "",
          "type": "uint256"
        }
      ],
      "stateMutability": "view",
      "type": "function"
    },
    {
      "inputs": [],
      "name": "AGC_PER_MINT",
      "outputs": [
        {
          "internalType": "uint256",
          "name": "",
          "type": "uint256"
        }
      ],
      "stateMutability": "view",
      "type": "function"
    },
    {
      "inputs": [],
      "name": "AGC_PRICE",
      "outputs": [
        {
          "internalType": "uint256",
          "name": "",
          "type": "uint256"
        }
      ],
      "stateMutability": "view",
      "type": "function"
    },
    {
      "inputs": [],
      "name": "AGC_PUBLIC",
      "outputs": [
        {
          "internalType": "uint256",
          "name": "",
          "type": "uint256"
        }
      ],
      "stateMutability": "view",
      "type": "function"
    },
    {
      "inputs": [
        {
          "internalType": "address",
          "name": "to",
          "type": "address"
        },
        {
          "internalType": "uint256",
          "name": "tokenId",
          "type": "uint256"
        }
      ],
      "name": "approve",
      "outputs": [],
      "stateMutability": "nonpayable",
      "type": "function"
    },
    {
      "inputs": [
        {
          "internalType": "address",
          "name": "owner",
          "type": "address"
        }
      ],
      "name": "balanceOf",
      "outputs": [
        {
          "internalType": "uint256",
          "name": "",
          "type": "uint256"
        }
      ],
      "stateMutability": "view",
      "type": "function"
    },
    {
      "inputs": [
        {
          "internalType": "bytes32",
          "name": "hash",
          "type": "bytes32"
        },
        {
          "internalType": "bytes",
          "name": "signature",
          "type": "bytes"
        },
        {
          "internalType": "uint256",
          "name": "tokenQuantity",
          "type": "uint256"
        }
      ],
      "name": "buy",
      "outputs": [],
      "stateMutability": "payable",
      "type": "function"
    },
    {
      "inputs": [],
      "name": "contractURI",
      "outputs": [
        {
          "internalType": "string",
          "name": "",
          "type": "string"
        }
      ],
      "stateMutability": "view",
      "type": "function"
    },
    {
      "inputs": [
        {
          "internalType": "uint256",
          "name": "tokenId",
          "type": "uint256"
        }
      ],
      "name": "getApproved",
      "outputs": [
        {
          "internalType": "address",
          "name": "",
          "type": "address"
        }
      ],
      "stateMutability": "view",
      "type": "function"
    },
    {
      "inputs": [
        {
          "internalType": "address[]",
          "name": "receivers",
          "type": "address[]"
        }
      ],
      "name": "gift",
      "outputs": [],
      "stateMutability": "nonpayable",
      "type": "function"
    },
    {
      "inputs": [],
      "name": "giftedAmount",
      "outputs": [
        {
          "internalType": "uint256",
          "name": "",
          "type": "uint256"
        }
      ],
      "stateMutability": "view",
      "type": "function"
    },
    {
      "inputs": [
        {
          "internalType": "address",
          "name": "owner",
          "type": "address"
        },
        {
          "internalType": "address",
          "name": "operator",
          "type": "address"
        }
      ],
      "name": "isApprovedForAll",
      "outputs": [
        {
          "internalType": "bool",
          "name": "",
          "type": "bool"
        }
      ],
      "stateMutability": "view",
      "type": "function"
    },
    {
      "inputs": [],
      "name": "name",
      "outputs": [
        {
          "internalType": "string",
          "name": "",
          "type": "string"
        }
      ],
      "stateMutability": "view",
      "type": "function"
    },
    {
      "inputs": [],
      "name": "owner",
      "outputs": [
        {
          "internalType": "address",
          "name": "",
          "type": "address"
        }
      ],
      "stateMutability": "view",
      "type": "function"
    },
    {
      "inputs": [
        {
          "internalType": "uint256",
          "name": "tokenId",
          "type": "uint256"
        }
      ],
      "name": "ownerOf",
      "outputs": [
        {
          "internalType": "address",
          "name": "",
          "type": "address"
        }
      ],
      "stateMutability": "view",
      "type": "function"
    },
    {
      "inputs": [
        {
          "internalType": "bytes32",
          "name": "hash",
          "type": "bytes32"
        },
        {
          "internalType": "bytes",
          "name": "signature",
          "type": "bytes"
        },
        {
          "internalType": "uint256",
          "name": "tokenQuantity",
          "type": "uint256"
        }
      ],
      "name": "presaleBuy",
      "outputs": [],
      "stateMutability": "payable",
      "type": "function"
    },
    {
      "inputs": [],
      "name": "presaleLive",
      "outputs": [
        {
          "internalType": "bool",
          "name": "",
          "type": "bool"
        }
      ],
      "stateMutability": "view",
      "type": "function"
    },
    {
      "inputs": [
        {
          "internalType": "address",
          "name": "addr",
          "type": "address"
        }
      ],
      "name": "presalePurchasedCount",
      "outputs": [
        {
          "internalType": "uint256",
          "name": "",
          "type": "uint256"
        }
      ],
      "stateMutability": "view",
      "type": "function"
    },
    {
      "inputs": [
        {
          "internalType": "address",
          "name": "",
          "type": "address"
        }
      ],
      "name": "presalerListPurchases",
      "outputs": [
        {
          "internalType": "uint256",
          "name": "",
          "type": "uint256"
        }
      ],
      "stateMutability": "view",
      "type": "function"
    },
    {
      "inputs": [],
      "name": "provenance",
      "outputs": [
        {
          "internalType": "string",
          "name": "",
          "type": "string"
        }
      ],
      "stateMutability": "view",
      "type": "function"
    },
    {
      "inputs": [],
      "name": "renounceOwnership",
      "outputs": [],
      "stateMutability": "nonpayable",
      "type": "function"
    },
    {
      "inputs": [
        {
          "internalType": "address",
          "name": "from",
          "type": "address"
        },
        {
          "internalType": "address",
          "name": "to",
          "type": "address"
        },
        {
          "internalType": "uint256",
          "name": "tokenId",
          "type": "uint256"
        }
      ],
      "name": "safeTransferFrom",
      "outputs": [],
      "stateMutability": "nonpayable",
      "type": "function"
    },
    {
      "inputs": [
        {
          "internalType": "address",
          "name": "from",
          "type": "address"
        },
        {
          "internalType": "address",
          "name": "to",
          "type": "address"
        },
        {
          "internalType": "uint256",
          "name": "tokenId",
          "type": "uint256"
        },
        {
          "internalType": "bytes",
          "name": "_data",
          "type": "bytes"
        }
      ],
      "name": "safeTransferFrom",
      "outputs": [],
      "stateMutability": "nonpayable",
      "type": "function"
    },
    {
      "inputs": [],
      "name": "saleLive",
      "outputs": [
        {
          "internalType": "bool",
          "name": "",
          "type": "bool"
        }
      ],
      "stateMutability": "view",
      "type": "function"
    },
    {
      "inputs": [
        {
          "internalType": "address",
          "name": "operator",
          "type": "address"
        },
        {
          "internalType": "bool",
          "name": "approved",
          "type": "bool"
        }
      ],
      "name": "setApprovalForAll",
      "outputs": [],
      "stateMutability": "nonpayable",
      "type": "function"
    },
    {
      "inputs": [
        {
          "internalType": "string",
          "name": "URI",
          "type": "string"
        }
      ],
      "name": "setBaseURI",
      "outputs": [],
      "stateMutability": "nonpayable",
      "type": "function"
    },
    {
      "inputs": [
        {
          "internalType": "string",
          "name": "URI",
          "type": "string"
        }
      ],
      "name": "setContractURI",
      "outputs": [],
      "stateMutability": "nonpayable",
      "type": "function"
    },
    {
      "inputs": [
        {
          "internalType": "string",
          "name": "hash",
          "type": "string"
        }
      ],
      "name": "setProvenanceHash",
      "outputs": [],
      "stateMutability": "nonpayable",
      "type": "function"
    },
    {
      "inputs": [
        {
          "internalType": "address",
          "name": "addr",
          "type": "address"
        }
      ],
      "name": "setSignerAddress",
      "outputs": [],
      "stateMutability": "nonpayable",
      "type": "function"
    },
    {
      "inputs": [
        {
          "internalType": "address",
          "name": "addr",
          "type": "address"
        }
      ],
      "name": "setVaultAddress",
      "outputs": [],
      "stateMutability": "nonpayable",
      "type": "function"
    },
    {
      "inputs": [
        {
          "internalType": "bytes4",
          "name": "interfaceId",
          "type": "bytes4"
        }
      ],
      "name": "supportsInterface",
      "outputs": [
        {
          "internalType": "bool",
          "name": "",
          "type": "bool"
        }
      ],
      "stateMutability": "view",
      "type": "function"
    },
    {
      "inputs": [],
      "name": "symbol",
      "outputs": [
        {
          "internalType": "string",
          "name": "",
          "type": "string"
        }
      ],
      "stateMutability": "view",
      "type": "function"
    },
    {
      "inputs": [],
      "name": "togglePresaleStatus",
      "outputs": [],
      "stateMutability": "nonpayable",
      "type": "function"
    },
    {
      "inputs": [],
      "name": "toggleSaleStatus",
      "outputs": [],
      "stateMutability": "nonpayable",
      "type": "function"
    },
    {
      "inputs": [
        {
          "internalType": "uint256",
          "name": "tokenId",
          "type": "uint256"
        }
      ],
      "name": "tokenURI",
      "outputs": [
        {
          "internalType": "string",
          "name": "",
          "type": "string"
        }
      ],
      "stateMutability": "view",
      "type": "function"
    },
    {
      "inputs": [
        {
          "internalType": "address",
          "name": "from",
          "type": "address"
        },
        {
          "internalType": "address",
          "name": "to",
          "type": "address"
        },
        {
          "internalType": "uint256",
          "name": "tokenId",
          "type": "uint256"
        }
      ],
      "name": "transferFrom",
      "outputs": [],
      "stateMutability": "nonpayable",
      "type": "function"
    },
    {
      "inputs": [
        {
          "internalType": "address",
          "name": "newOwner",
          "type": "address"
        }
      ],
      "name": "transferOwnership",
      "outputs": [],
      "stateMutability": "nonpayable",
      "type": "function"
    },
    {
      "inputs": [],
      "name": "withdraw",
      "outputs": [],
      "stateMutability": "nonpayable",
      "type": "function"
    }
  ],
  "bytecode": "0x6080604052600a8054739cfeae92c8a5cdf5d00d91883edc8e2db9a2fea76001600160a01b03199182168117909255600b805490911690911790553480156200004757600080fd5b506040518060400160405280600881526020016753747265616d313160c01b8152506040518060400160405280600381526020016253313160e81b8152506200009f62000099620000c560201b60201c565b620000c9565b6001620000ad8382620001be565b506002620000bc8282620001be565b5050506200028a565b3390565b600080546001600160a01b038381166001600160a01b0319831681178455604051919092169283917f8be0079c531659141344cd1fd0a4f28419497f9722a3daafe3b4186f6b6457e09190a35050565b634e487b7160e01b600052604160045260246000fd5b600181811c908216806200014457607f821691505b6020821081036200016557634e487b7160e01b600052602260045260246000fd5b50919050565b601f821115620001b957600081815260208120601f850160051c81016020861015620001945750805b601f850160051c820191505b81811015620001b557828155600101620001a0565b5050505b505050565b81516001600160401b03811115620001da57620001da62000119565b620001f281620001eb84546200012f565b846200016b565b602080601f8311600181146200022a5760008415620002115750858301515b600019600386901b1c1916600185901b178555620001b5565b600085815260208120601f198616915b828110156200025b578886015182559484019460019091019084016200023a565b50858210156200027a5787850151600019600388901b60f8161c191681555b5050505050600190811b01905550565b612d43806200029a6000396000f3fe6080604052600436106102a05760003560e01c806370a082311161016e578063a62ee636116100cb578063df03bd381161007f578063e8a3d48511610064578063e8a3d485146106f3578063e985e9c514610708578063f2fde38b1461075157600080fd5b8063df03bd38146106bf578063e081b781146106d257600080fd5b8063b88d4fde116100b0578063b88d4fde14610669578063c87b56dd14610689578063ced90fef146106a957600080fd5b8063a62ee63614610640578063b4f149a41461065657600080fd5b80638da5cb5b1161012257806395d89b411161010757806395d89b41146105de5780639bf80316146105f3578063a22cb4651461062057600080fd5b80638da5cb5b146105a0578063938e3d7b146105be57600080fd5b80637bffb4ce116101535780637bffb4ce1461054a57806383a9e0491461055f57806385535cc51461058057600080fd5b806370a0823114610515578063715018a61461053557600080fd5b80631b57190e1161021c57806355f804b3116101d05780635ce7af1f116101b55780635ce7af1f146104aa5780636352211e146104e05780636f2d582a1461050057600080fd5b806355f804b3146104745780635861cca51461049457600080fd5b806333039c7c1161020157806333039c7c146104245780633ccfd60b1461043f57806342842e0e1461045457600080fd5b80631b57190e146103e057806323b872dd1461040457600080fd5b8063081812fc116102735780630f7309e8116102585780630f7309e81461038b57806310969523146103a0578063163e1e61146103c057600080fd5b8063081812fc14610333578063095ea7b31461036b57600080fd5b806301ffc9a7146102a5578063046dc166146102da578063049c5c49146102fc57806306fdde0314610311575b600080fd5b3480156102b157600080fd5b506102c56102c0366004612613565b610771565b60405190151581526020015b60405180910390f35b3480156102e657600080fd5b506102fa6102f5366004612653565b61080e565b005b34801561030857600080fd5b506102fa61087d565b34801561031d57600080fd5b50610326610901565b6040516102d191906126be565b34801561033f57600080fd5b5061035361034e3660046126d1565b610993565b6040516001600160a01b0390911681526020016102d1565b34801561037757600080fd5b506102fa6103863660046126ea565b610a1b565b34801561039757600080fd5b50610326610b6a565b3480156103ac57600080fd5b506102fa6103bb366004612714565b610bf8565b3480156103cc57600080fd5b506102fa6103db366004612786565b610c4d565b3480156103ec57600080fd5b506103f660065481565b6040519081526020016102d1565b34801561041057600080fd5b506102fa61041f3660046127e9565b610dc6565b34801561043057600080fd5b506103f666b1a2bc2ec5000081565b34801561044b57600080fd5b506102fa610e4d565b34801561046057600080fd5b506102fa61046f3660046127e9565b610ed1565b34801561048057600080fd5b506102fa61048f366004612714565b610eec565b3480156104a057600080fd5b506103f661251c81565b3480156104b657600080fd5b506103f66104c5366004612653565b6001600160a01b03166000908152600c602052604090205490565b3480156104ec57600080fd5b506103536104fb3660046126d1565b610f41565b34801561050c57600080fd5b506103f6603281565b34801561052157600080fd5b506103f6610530366004612653565b610fe1565b34801561054157600080fd5b506102fa6110c6565b34801561055657600080fd5b506102fa61111a565b34801561056b57600080fd5b50600b546102c590600160a01b900460ff1681565b34801561058c57600080fd5b506102fa61059b366004612653565b61119e565b3480156105ac57600080fd5b506000546001600160a01b0316610353565b3480156105ca57600080fd5b506102fa6105d9366004612714565b611208565b3480156105ea57600080fd5b5061032661125d565b3480156105ff57600080fd5b506103f661060e366004612653565b600c6020526000908152604090205481565b34801561062c57600080fd5b506102fa61063b366004612825565b61126c565b34801561064c57600080fd5b506103f661271081565b6102fa610664366004612904565b611330565b34801561067557600080fd5b506102fa610684366004612954565b6115ce565b34801561069557600080fd5b506103266106a43660046126d1565b611656565b3480156106b557600080fd5b506103f66101f481565b6102fa6106cd366004612904565b611705565b3480156106de57600080fd5b50600b546102c590600160a81b900460ff1681565b3480156106ff57600080fd5b50610326611948565b34801561071457600080fd5b506102c56107233660046129bc565b6001600160a01b03918216600090815260056020908152604080832093909416825291909152205460ff1690565b34801561075d57600080fd5b506102fa61076c366004612653565b611957565b60006001600160e01b031982167f80ac58cd0000000000000000000000000000000000000000000000000000000014806107d457506001600160e01b031982167f5b5e139f00000000000000000000000000000000000000000000000000000000145b8061080857507f01ffc9a7000000000000000000000000000000000000000000000000000000006001600160e01b03198316145b92915050565b6000546001600160a01b0316331461085b5760405162461bcd60e51b81526020600482018190526024820152600080516020612cee83398151915260448201526064015b60405180910390fd5b600a80546001600160a01b0319166001600160a01b0392909216919091179055565b6000546001600160a01b031633146108c55760405162461bcd60e51b81526020600482018190526024820152600080516020612cee8339815191526044820152606401610852565b600b80547fffffffffffffffffffff00ffffffffffffffffffffffffffffffffffffffffff8116600160a81b9182900460ff1615909102179055565b606060018054610910906129ef565b80601f016020809104026020016040519081016040528092919081815260200182805461093c906129ef565b80156109895780601f1061095e57610100808354040283529160200191610989565b820191906000526020600020905b81548152906001019060200180831161096c57829003601f168201915b5050505050905090565b600061099e82611a24565b6109ff5760405162461bcd60e51b815260206004820152602c60248201527f4552433732313a20617070726f76656420717565727920666f72206e6f6e657860448201526b34b9ba32b73a103a37b5b2b760a11b6064820152608401610852565b506000908152600460205260409020546001600160a01b031690565b6000610a2682610f41565b9050806001600160a01b0316836001600160a01b031603610aaf5760405162461bcd60e51b815260206004820152602160248201527f4552433732313a20617070726f76616c20746f2063757272656e74206f776e6560448201527f72000000000000000000000000000000000000000000000000000000000000006064820152608401610852565b336001600160a01b0382161480610ae957506001600160a01b038116600090815260056020908152604080832033845290915290205460ff165b610b5b5760405162461bcd60e51b815260206004820152603860248201527f4552433732313a20617070726f76652063616c6c6572206973206e6f74206f7760448201527f6e6572206e6f7220617070726f76656420666f7220616c6c00000000000000006064820152608401610852565b610b658383611a6e565b505050565b60078054610b77906129ef565b80601f0160208091040260200160405190810160405280929190818152602001828054610ba3906129ef565b8015610bf05780601f10610bc557610100808354040283529160200191610bf0565b820191906000526020600020905b815481529060010190602001808311610bd357829003601f168201915b505050505081565b6000546001600160a01b03163314610c405760405162461bcd60e51b81526020600482018190526024820152600080516020612cee8339815191526044820152606401610852565b6007610b65828483612a77565b6000546001600160a01b03163314610c955760405162461bcd60e51b81526020600482018190526024820152600080516020612cee8339815191526044820152606401610852565b600354612710610ca58383612b4d565b1115610cf35760405162461bcd60e51b815260206004820152600860248201527f4d41585f4d494e540000000000000000000000000000000000000000000000006044820152606401610852565b6006546101f490610d05908490612b4d565b1115610d535760405162461bcd60e51b815260206004820152600860248201527f4e4f5f47494654530000000000000000000000000000000000000000000000006044820152606401610852565b60005b82811015610dc05760068054906000610d6e83612b60565b9190505550610dae848483818110610d8857610d88612b79565b9050602002016020810190610d9d9190612653565b83610da781612b60565b9450611adc565b80610db881612b60565b915050610d56565b50505050565b610dd03382611afa565b610e425760405162461bcd60e51b815260206004820152603160248201527f4552433732313a207472616e736665722063616c6c6572206973206e6f74206f60448201527f776e6572206e6f7220617070726f7665640000000000000000000000000000006064820152608401610852565b610b65838383611be4565b6000546001600160a01b03163314610e955760405162461bcd60e51b81526020600482018190526024820152600080516020612cee8339815191526044820152606401610852565b600b546040516001600160a01b03909116904780156108fc02916000818181858888f19350505050158015610ece573d6000803e3d6000fd5b50565b610b65838383604051806020016040528060008152506115ce565b6000546001600160a01b03163314610f345760405162461bcd60e51b81526020600482018190526024820152600080516020612cee8339815191526044820152606401610852565b6009610b65828483612a77565b60008060038381548110610f5757610f57612b79565b6000918252602090912001546001600160a01b03169050806108085760405162461bcd60e51b815260206004820152602960248201527f4552433732313a206f776e657220717565727920666f72206e6f6e657869737460448201527f656e7420746f6b656e00000000000000000000000000000000000000000000006064820152608401610852565b60006001600160a01b03821661105f5760405162461bcd60e51b815260206004820152602a60248201527f4552433732313a2062616c616e636520717565727920666f7220746865207a6560448201527f726f2061646472657373000000000000000000000000000000000000000000006064820152608401610852565b600354600090815b818110156110bd576003818154811061108257611082612b79565b6000918252602090912001546001600160a01b03908116908616036110ad576110aa83612b60565b92505b6110b681612b60565b9050611067565b50909392505050565b6000546001600160a01b0316331461110e5760405162461bcd60e51b81526020600482018190526024820152600080516020612cee8339815191526044820152606401610852565b6111186000611d67565b565b6000546001600160a01b031633146111625760405162461bcd60e51b81526020600482018190526024820152600080516020612cee8339815191526044820152606401610852565b600b80547fffffffffffffffffffffff00ffffffffffffffffffffffffffffffffffffffff8116600160a01b9182900460ff1615909102179055565b6000546001600160a01b031633146111e65760405162461bcd60e51b81526020600482018190526024820152600080516020612cee8339815191526044820152606401610852565b600b80546001600160a01b0319166001600160a01b0392909216919091179055565b6000546001600160a01b031633146112505760405162461bcd60e51b81526020600482018190526024820152600080516020612cee8339815191526044820152606401610852565b6008610b65828483612a77565b606060028054610910906129ef565b336001600160a01b038316036112c45760405162461bcd60e51b815260206004820152601960248201527f4552433732313a20617070726f766520746f2063616c6c6572000000000000006044820152606401610852565b3360008181526005602090815260408083206001600160a01b03871680855290835292819020805460ff191686151590811790915590519081529192917f17307eab39ab6107e8899845ad3d59bd9653f200f220920489ca2b5937696c31910160405180910390a35050565b600b54600160a81b900460ff161580156113535750600b54600160a01b900460ff165b61139f5760405162461bcd60e51b815260206004820152600e60248201527f50524553414c455f434c4f5345440000000000000000000000000000000000006044820152606401610852565b6113a98383611db7565b6113f55760405162461bcd60e51b815260206004820152601660248201527f4449524543545f4d494e545f444953414c4c4f574544000000000000000000006044820152606401610852565b336000908152600c6020526040902054603290611413908390612b4d565b11156114615760405162461bcd60e51b815260206004820152600c60248201527f4558434545445f414c4c4f4300000000000000000000000000000000000000006044820152606401610852565b60328111156114b25760405162461bcd60e51b815260206004820152601360248201527f4558434545445f4147435f5045525f4d494e54000000000000000000000000006044820152606401610852565b346114c48266b1a2bc2ec50000612b8f565b11156115125760405162461bcd60e51b815260206004820152601060248201527f494e53554646494349454e545f455448000000000000000000000000000000006044820152606401610852565b60035461251c6115228383612b4d565b11156115705760405162461bcd60e51b815260206004820152601660248201527f4558434545445f4d41585f53414c455f535550504c59000000000000000000006044820152606401610852565b336000908152600c60205260408120805484929061158f908490612b4d565b90915550600090505b828110156115c7576115b533836115ae81612b60565b9450611ddb565b806115bf81612b60565b915050611598565b5050505050565b6115d83383611afa565b61164a5760405162461bcd60e51b815260206004820152603160248201527f4552433732313a207472616e736665722063616c6c6572206973206e6f74206f60448201527f776e6572206e6f7220617070726f7665640000000000000000000000000000006064820152608401610852565b610dc084848484611f03565b606061166182611a24565b6116d35760405162461bcd60e51b815260206004820152602f60248201527f4552433732314d657461646174613a2055524920717565727920666f72206e6f60448201527f6e6578697374656e7420746f6b656e00000000000000000000000000000000006064820152608401610852565b60096116de83611f81565b6040516020016116ef929190612ba6565b6040516020818303038152906040529050919050565b600b54600160a81b900460ff1661175e5760405162461bcd60e51b815260206004820152600b60248201527f53414c455f434c4f5345440000000000000000000000000000000000000000006044820152606401610852565b600b54600160a01b900460ff16156117b85760405162461bcd60e51b815260206004820152600c60248201527f4f4e4c595f50524553414c4500000000000000000000000000000000000000006044820152606401610852565b6117c28383611db7565b61180e5760405162461bcd60e51b815260206004820152601660248201527f4449524543545f4d494e545f444953414c4c4f574544000000000000000000006044820152606401610852565b603281111561185f5760405162461bcd60e51b815260206004820152601360248201527f4558434545445f4147435f5045525f4d494e54000000000000000000000000006044820152606401610852565b346118718266b1a2bc2ec50000612b8f565b11156118bf5760405162461bcd60e51b815260206004820152601060248201527f494e53554646494349454e545f455448000000000000000000000000000000006044820152606401610852565b60035461251c6118cf8383612b4d565b111561191d5760405162461bcd60e51b815260206004820152601660248201527f4558434545445f4d41585f53414c455f535550504c59000000000000000000006044820152606401610852565b60005b828110156115c75761193633836115ae81612b60565b8061194081612b60565b915050611920565b606060088054610910906129ef565b6000546001600160a01b0316331461199f5760405162461bcd60e51b81526020600482018190526024820152600080516020612cee8339815191526044820152606401610852565b6001600160a01b038116611a1b5760405162461bcd60e51b815260206004820152602660248201527f4f776e61626c653a206e6577206f776e657220697320746865207a65726f206160448201527f64647265737300000000000000000000000000000000000000000000000000006064820152608401610852565b610ece81611d67565b60035460009082108015610808575060006001600160a01b031660038381548110611a5157611a51612b79565b6000918252602090912001546001600160a01b0316141592915050565b600081815260046020526040902080546001600160a01b0319166001600160a01b0384169081179091558190611aa382610f41565b6001600160a01b03167f8c5be1e5ebec7d5bd14f71427d1e84f3dd0314c0f7b2291e5b200ac8c7c3b92560405160405180910390a45050565b611af68282604051806020016040528060008152506120b6565b5050565b6000611b0582611a24565b611b665760405162461bcd60e51b815260206004820152602c60248201527f4552433732313a206f70657261746f7220717565727920666f72206e6f6e657860448201526b34b9ba32b73a103a37b5b2b760a11b6064820152608401610852565b6000611b7183610f41565b9050806001600160a01b0316846001600160a01b03161480611bac5750836001600160a01b0316611ba184610993565b6001600160a01b0316145b80611bdc57506001600160a01b0380821660009081526005602090815260408083209388168352929052205460ff165b949350505050565b826001600160a01b0316611bf782610f41565b6001600160a01b031614611c735760405162461bcd60e51b815260206004820152602960248201527f4552433732313a207472616e73666572206f6620746f6b656e2074686174206960448201527f73206e6f74206f776e00000000000000000000000000000000000000000000006064820152608401610852565b6001600160a01b038216611cee5760405162461bcd60e51b8152602060048201526024808201527f4552433732313a207472616e7366657220746f20746865207a65726f2061646460448201527f72657373000000000000000000000000000000000000000000000000000000006064820152608401610852565b611cf9600082611a6e565b8160038281548110611d0d57611d0d612b79565b6000918252602082200180546001600160a01b0319166001600160a01b03938416179055604051839285811692908716917fddf252ad1be2c89b69c2b068fc378daa952ba7f163c4a11628f55a4df523b3ef9190a4505050565b600080546001600160a01b038381166001600160a01b0319831681178455604051919092169283917f8be0079c531659141344cd1fd0a4f28419497f9722a3daafe3b4186f6b6457e09190a35050565b6000611dc38383612134565b600a546001600160a01b039182169116149392505050565b6001600160a01b038216611e315760405162461bcd60e51b815260206004820181905260248201527f4552433732313a206d696e7420746f20746865207a65726f20616464726573736044820152606401610852565b611e3a81611a24565b15611e875760405162461bcd60e51b815260206004820152601c60248201527f4552433732313a20746f6b656e20616c7265616479206d696e746564000000006044820152606401610852565b6003805460018101825560009182527fc2575a0e9e593c00f959f8c92f12db2869c3395a3b0502d05e2516446f71f85b0180546001600160a01b0319166001600160a01b0385169081179091556040518392907fddf252ad1be2c89b69c2b068fc378daa952ba7f163c4a11628f55a4df523b3ef908290a45050565b611f0e848484611be4565b611f1a84848484612158565b610dc05760405162461bcd60e51b815260206004820152603260248201527f4552433732313a207472616e7366657220746f206e6f6e20455243373231526560448201527131b2b4bb32b91034b6b83632b6b2b73a32b960711b6064820152608401610852565b606081600003611fc457505060408051808201909152600181527f3000000000000000000000000000000000000000000000000000000000000000602082015290565b8160005b8115611fee5780611fd881612b60565b9150611fe79050600a83612c43565b9150611fc8565b60008167ffffffffffffffff81111561200957612009612861565b6040519080825280601f01601f191660200182016040528015612033576020820181803683370190505b5090505b8415611bdc57612048600183612c57565b9150612055600a86612c6a565b612060906030612b4d565b60f81b81838151811061207557612075612b79565b60200101907effffffffffffffffffffffffffffffffffffffffffffffffffffffffffffff1916908160001a9053506120af600a86612c43565b9450612037565b6120c08383611ddb565b6120cd6000848484612158565b610b655760405162461bcd60e51b815260206004820152603260248201527f4552433732313a207472616e7366657220746f206e6f6e20455243373231526560448201527131b2b4bb32b91034b6b83632b6b2b73a32b960711b6064820152608401610852565b600080600061214385856122a4565b9150915061215081612312565b509392505050565b60006001600160a01b0384163b1561229957604051630a85bd0160e11b81526001600160a01b0385169063150b7a029061219c903390899088908890600401612c7e565b6020604051808303816000875af19250505080156121d7575060408051601f3d908101601f191682019092526121d491810190612cba565b60015b61227f573d808015612205576040519150601f19603f3d011682016040523d82523d6000602084013e61220a565b606091505b5080516000036122775760405162461bcd60e51b815260206004820152603260248201527f4552433732313a207472616e7366657220746f206e6f6e20455243373231526560448201527131b2b4bb32b91034b6b83632b6b2b73a32b960711b6064820152608401610852565b805181602001fd5b6001600160e01b031916630a85bd0160e11b149050611bdc565b506001949350505050565b60008082516041036122da5760208301516040840151606085015160001a6122ce878285856124c8565b9450945050505061230b565b825160400361230357602083015160408401516122f88683836125b5565b93509350505061230b565b506000905060025b9250929050565b600081600481111561232657612326612cd7565b0361232e5750565b600181600481111561234257612342612cd7565b0361238f5760405162461bcd60e51b815260206004820152601860248201527f45434453413a20696e76616c6964207369676e617475726500000000000000006044820152606401610852565b60028160048111156123a3576123a3612cd7565b036123f05760405162461bcd60e51b815260206004820152601f60248201527f45434453413a20696e76616c6964207369676e6174757265206c656e677468006044820152606401610852565b600381600481111561240457612404612cd7565b0361245c5760405162461bcd60e51b815260206004820152602260248201527f45434453413a20696e76616c6964207369676e6174757265202773272076616c604482015261756560f01b6064820152608401610852565b600481600481111561247057612470612cd7565b03610ece5760405162461bcd60e51b815260206004820152602260248201527f45434453413a20696e76616c6964207369676e6174757265202776272076616c604482015261756560f01b6064820152608401610852565b6000807f7fffffffffffffffffffffffffffffff5d576e7357a4501ddfe92f46681b20a08311156124ff57506000905060036125ac565b8460ff16601b1415801561251757508460ff16601c14155b1561252857506000905060046125ac565b6040805160008082526020820180845289905260ff881692820192909252606081018690526080810185905260019060a0016020604051602081039080840390855afa15801561257c573d6000803e3d6000fd5b5050604051601f1901519150506001600160a01b0381166125a5576000600192509250506125ac565b9150600090505b94509492505050565b6000807f7fffffffffffffffffffffffffffffffffffffffffffffffffffffffffffffff831660ff84901c601b016125ef878288856124c8565b935093505050935093915050565b6001600160e01b031981168114610ece57600080fd5b60006020828403121561262557600080fd5b8135612630816125fd565b9392505050565b80356001600160a01b038116811461264e57600080fd5b919050565b60006020828403121561266557600080fd5b61263082612637565b60005b83811015612689578181015183820152602001612671565b50506000910152565b600081518084526126aa81602086016020860161266e565b601f01601f19169290920160200192915050565b6020815260006126306020830184612692565b6000602082840312156126e357600080fd5b5035919050565b600080604083850312156126fd57600080fd5b61270683612637565b946020939093013593505050565b6000806020838503121561272757600080fd5b823567ffffffffffffffff8082111561273f57600080fd5b818501915085601f83011261275357600080fd5b81358181111561276257600080fd5b86602082850101111561277457600080fd5b60209290920196919550909350505050565b6000806020838503121561279957600080fd5b823567ffffffffffffffff808211156127b157600080fd5b818501915085601f8301126127c557600080fd5b8135818111156127d457600080fd5b8660208260051b850101111561277457600080fd5b6000806000606084860312156127fe57600080fd5b61280784612637565b925061281560208501612637565b9150604084013590509250925092565b6000806040838503121561283857600080fd5b61284183612637565b91506020830135801515811461285657600080fd5b809150509250929050565b634e487b7160e01b600052604160045260246000fd5b600082601f83011261288857600080fd5b813567ffffffffffffffff808211156128a3576128a3612861565b604051601f8301601f19908116603f011681019082821181831017156128cb576128cb612861565b816040528381528660208588010111156128e457600080fd5b836020870160208301376000602085830101528094505050505092915050565b60008060006060848603121561291957600080fd5b83359250602084013567ffffffffffffffff81111561293757600080fd5b61294386828701612877565b925050604084013590509250925092565b6000806000806080858703121561296a57600080fd5b61297385612637565b935061298160208601612637565b925060408501359150606085013567ffffffffffffffff8111156129a457600080fd5b6129b087828801612877565b91505092959194509250565b600080604083850312156129cf57600080fd5b6129d883612637565b91506129e660208401612637565b90509250929050565b600181811c90821680612a0357607f821691505b602082108103612a2357634e487b7160e01b600052602260045260246000fd5b50919050565b601f821115610b6557600081815260208120601f850160051c81016020861015612a505750805b601f850160051c820191505b81811015612a6f57828155600101612a5c565b505050505050565b67ffffffffffffffff831115612a8f57612a8f612861565b612aa383612a9d83546129ef565b83612a29565b6000601f841160018114612ad75760008515612abf5750838201355b600019600387901b1c1916600186901b1783556115c7565b600083815260209020601f19861690835b82811015612b085786850135825560209485019460019092019101612ae8565b5086821015612b255760001960f88860031b161c19848701351681555b505060018560011b0183555050505050565b634e487b7160e01b600052601160045260246000fd5b8082018082111561080857610808612b37565b600060018201612b7257612b72612b37565b5060010190565b634e487b7160e01b600052603260045260246000fd5b808202811582820484141761080857610808612b37565b6000808454612bb4816129ef565b60018281168015612bcc5760018114612be157612c10565b60ff1984168752821515830287019450612c10565b8860005260208060002060005b85811015612c075781548a820152908401908201612bee565b50505082870194505b505050508351612c2481836020880161266e565b01949350505050565b634e487b7160e01b600052601260045260246000fd5b600082612c5257612c52612c2d565b500490565b8181038181111561080857610808612b37565b600082612c7957612c79612c2d565b500690565b60006001600160a01b03808716835280861660208401525083604083015260806060830152612cb06080830184612692565b9695505050505050565b600060208284031215612ccc57600080fd5b8151612630816125fd565b634e487b7160e01b600052602160045260246000fdfe4f776e61626c653a2063616c6c6572206973206e6f7420746865206f776e6572a2646970667358221220e6eac952fa93e62491348151199686c7dbf0064644176229b4cce308ff2b836464736f6c63430008110033",
  "linkReferences": {},
  "deployedLinkReferences": {}
}