{
  "_format": "hh-sol-artifact-1",
  "contractName": "StreamA",
  "sourceName": "contracts/StreamA.sol",
  "abi": [
    {
      "inputs": [],
      "stateMutability": "nonpayable",
      "type": "constructor"
    },
    {
      "anonymous": false,
      "inputs": [
        {
          "indexed": true,
          "internalType": "address",
          "name": "owner",
          "type": "address"
        },
        {
          "indexed": true,
          "internalType": "address",
          "name": "approved",
          "type": "address"
        },
        {
          "indexed": true,
          "internalType": "uint256",
          "name": "tokenId",
          "type": "uint256"
        }
      ],
      "name": "Approval",
      "type": "event"
    },
    {
      "anonymous": false,
      "inputs": [
        {
          "indexed": true,
          "internalType": "address",
          "name": "owner",
          "type": "address"
        },
        {
          "indexed": true,
          "internalType": "address",
          "name": "operator",
          "type": "address"
        },
        {
          "indexed": false,
          "internalType": "bool",
          "name": "approved",
          "type": "bool"
        }
      ],
      "name": "ApprovalForAll",
      "type": "event"
    },
    {
      "anonymous": false,
      "inputs": [
        {
          "indexed": true,
          "internalType": "address",
          "name": "previousOwner",
          "type": "address"
        },
        {
          "indexed": true,
          "internalType": "address",
          "name": "newOwner",
          "type": "address"
        }
      ],
      "name": "OwnershipTransferred",
      "type": "event"
    },
    {
      "anonymous": false,
      "inputs": [
        {
          "indexed": true,
          "internalType": "address",
          "name": "from",
          "type": "address"
        },
        {
          "indexed": true,
          "internalType": "address",
          "name": "to",
          "type": "address"
        },
        {
          "indexed": true,
          "internalType": "uint256",
          "name": "tokenId",
          "type": "uint256"
        }
      ],
      "name": "Transfer",
      "type": "event"
    },
    {
      "inputs": [],
      "name": "FR_GIFT",
      "outputs": [
        {
          "internalType": "uint256",
          "name": "",
          "type": "uint256"
        }
      ],
      "stateMutability": "view",
      "type": "function"
    },
    {
      "inputs": [],
      "name": "FR_PER_MINT",
      "outputs": [
        {
          "internalType": "uint256",
          "name": "",
          "type": "uint256"
        }
      ],
      "stateMutability": "view",
      "type": "function"
    },
    {
      "inputs": [],
      "name": "FR_PRICE",
      "outputs": [
        {
          "internalType": "uint256",
          "name": "",
          "type": "uint256"
        }
      ],
      "stateMutability": "view",
      "type": "function"
    },
    {
      "inputs": [],
      "name": "FR_PUBLIC",
      "outputs": [
        {
          "internalType": "uint256",
          "name": "",
          "type": "uint256"
        }
      ],
      "stateMutability": "view",
      "type": "function"
    },
    {
      "inputs": [
        {
          "internalType": "address[]",
          "name": "_addresses",
          "type": "address[]"
        }
      ],
      "name": "addMultipleToApproveList",
      "outputs": [],
      "stateMutability": "nonpayable",
      "type": "function"
    },
    {
      "inputs": [
        {
          "internalType": "address",
          "name": "_newAddress",
          "type": "address"
        }
      ],
      "name": "addToApproveList",
      "outputs": [],
      "stateMutability": "nonpayable",
      "type": "function"
    },
    {
      "inputs": [
        {
          "internalType": "address",
          "name": "_newAddress",
          "type": "address"
        }
      ],
      "name": "addToDenyList",
      "outputs": [],
      "stateMutability": "nonpayable",
      "type": "function"
    },
    {
      "inputs": [
        {
          "internalType": "address",
          "name": "to",
          "type": "address"
        },
        {
          "internalType": "uint256",
          "name": "tokenId",
          "type": "uint256"
        }
      ],
      "name": "approve",
      "outputs": [],
      "stateMutability": "nonpayable",
      "type": "function"
    },
    {
      "inputs": [
        {
          "internalType": "address",
          "name": "",
          "type": "address"
        }
      ],
      "name": "approvelist",
      "outputs": [
        {
          "internalType": "bool",
          "name": "",
          "type": "bool"
        }
      ],
      "stateMutability": "view",
      "type": "function"
    },
    {
      "inputs": [],
      "name": "availableToMint",
      "outputs": [
        {
          "internalType": "uint256",
          "name": "",
          "type": "uint256"
        }
      ],
      "stateMutability": "view",
      "type": "function"
    },
    {
      "inputs": [
        {
          "internalType": "address",
          "name": "owner",
          "type": "address"
        }
      ],
      "name": "balanceOf",
      "outputs": [
        {
          "internalType": "uint256",
          "name": "",
          "type": "uint256"
        }
      ],
      "stateMutability": "view",
      "type": "function"
    },
    {
      "inputs": [
        {
          "internalType": "uint256",
          "name": "tokenQuantity",
          "type": "uint256"
        }
      ],
      "name": "buy",
      "outputs": [],
      "stateMutability": "payable",
      "type": "function"
    },
    {
      "inputs": [],
      "name": "contractURI",
      "outputs": [
        {
          "internalType": "string",
          "name": "",
          "type": "string"
        }
      ],
      "stateMutability": "view",
      "type": "function"
    },
    {
      "inputs": [
        {
          "internalType": "address",
          "name": "",
          "type": "address"
        }
      ],
      "name": "denylist",
      "outputs": [
        {
          "internalType": "bool",
          "name": "",
          "type": "bool"
        }
      ],
      "stateMutability": "view",
      "type": "function"
    },
    {
      "inputs": [
        {
          "internalType": "uint256",
          "name": "tokenId",
          "type": "uint256"
        }
      ],
      "name": "getApproved",
      "outputs": [
        {
          "internalType": "address",
          "name": "",
          "type": "address"
        }
      ],
      "stateMutability": "view",
      "type": "function"
    },
    {
      "inputs": [
        {
          "internalType": "address[]",
          "name": "receivers",
          "type": "address[]"
        }
      ],
      "name": "gift",
      "outputs": [],
      "stateMutability": "nonpayable",
      "type": "function"
    },
    {
      "inputs": [],
      "name": "giftedAmount",
      "outputs": [
        {
          "internalType": "uint256",
          "name": "",
          "type": "uint256"
        }
      ],
      "stateMutability": "view",
      "type": "function"
    },
    {
      "inputs": [
        {
          "internalType": "address",
          "name": "owner",
          "type": "address"
        },
        {
          "internalType": "address",
          "name": "operator",
          "type": "address"
        }
      ],
      "name": "isApprovedForAll",
      "outputs": [
        {
          "internalType": "bool",
          "name": "",
          "type": "bool"
        }
      ],
      "stateMutability": "view",
      "type": "function"
    },
    {
      "inputs": [],
      "name": "name",
      "outputs": [
        {
          "internalType": "string",
          "name": "",
          "type": "string"
        }
      ],
      "stateMutability": "view",
      "type": "function"
    },
    {
      "inputs": [],
      "name": "owner",
      "outputs": [
        {
          "internalType": "address",
          "name": "",
          "type": "address"
        }
      ],
      "stateMutability": "view",
      "type": "function"
    },
    {
      "inputs": [
        {
          "internalType": "uint256",
          "name": "tokenId",
          "type": "uint256"
        }
      ],
      "name": "ownerOf",
      "outputs": [
        {
          "internalType": "address",
          "name": "",
          "type": "address"
        }
      ],
      "stateMutability": "view",
      "type": "function"
    },
    {
      "inputs": [
        {
          "internalType": "uint256",
          "name": "tokenQuantity",
          "type": "uint256"
        }
      ],
      "name": "presaleBuy",
      "outputs": [],
      "stateMutability": "payable",
      "type": "function"
    },
    {
      "inputs": [],
      "name": "presaleLive",
      "outputs": [
        {
          "internalType": "bool",
          "name": "",
          "type": "bool"
        }
      ],
      "stateMutability": "view",
      "type": "function"
    },
    {
      "inputs": [
        {
          "internalType": "address",
          "name": "addr",
          "type": "address"
        }
      ],
      "name": "presalePurchasedCount",
      "outputs": [
        {
          "internalType": "uint256",
          "name": "",
          "type": "uint256"
        }
      ],
      "stateMutability": "view",
      "type": "function"
    },
    {
      "inputs": [
        {
          "internalType": "address",
          "name": "",
          "type": "address"
        }
      ],
      "name": "presalerListPurchases",
      "outputs": [
        {
          "internalType": "uint256",
          "name": "",
          "type": "uint256"
        }
      ],
      "stateMutability": "view",
      "type": "function"
    },
    {
      "inputs": [],
      "name": "provenance",
      "outputs": [
        {
          "internalType": "string",
          "name": "",
          "type": "string"
        }
      ],
      "stateMutability": "view",
      "type": "function"
    },
    {
      "inputs": [
        {
          "internalType": "address",
          "name": "_address",
          "type": "address"
        }
      ],
      "name": "removeFromApproveList",
      "outputs": [],
      "stateMutability": "nonpayable",
      "type": "function"
    },
    {
      "inputs": [
        {
          "internalType": "address",
          "name": "_address",
          "type": "address"
        }
      ],
      "name": "removeFromDenyList",
      "outputs": [],
      "stateMutability": "nonpayable",
      "type": "function"
    },
    {
      "inputs": [
        {
          "internalType": "address[]",
          "name": "_addresses",
          "type": "address[]"
        }
      ],
      "name": "removeMultipleFromApproveList",
      "outputs": [],
      "stateMutability": "nonpayable",
      "type": "function"
    },
    {
      "inputs": [],
      "name": "renounceOwnership",
      "outputs": [],
      "stateMutability": "nonpayable",
      "type": "function"
    },
    {
      "inputs": [
        {
          "internalType": "address",
          "name": "from",
          "type": "address"
        },
        {
          "internalType": "address",
          "name": "to",
          "type": "address"
        },
        {
          "internalType": "uint256",
          "name": "tokenId",
          "type": "uint256"
        }
      ],
      "name": "safeTransferFrom",
      "outputs": [],
      "stateMutability": "nonpayable",
      "type": "function"
    },
    {
      "inputs": [
        {
          "internalType": "address",
          "name": "from",
          "type": "address"
        },
        {
          "internalType": "address",
          "name": "to",
          "type": "address"
        },
        {
          "internalType": "uint256",
          "name": "tokenId",
          "type": "uint256"
        },
        {
          "internalType": "bytes",
          "name": "_data",
          "type": "bytes"
        }
      ],
      "name": "safeTransferFrom",
      "outputs": [],
      "stateMutability": "nonpayable",
      "type": "function"
    },
    {
      "inputs": [],
      "name": "saleLive",
      "outputs": [
        {
          "internalType": "bool",
          "name": "",
          "type": "bool"
        }
      ],
      "stateMutability": "view",
      "type": "function"
    },
    {
      "inputs": [
        {
          "internalType": "address",
          "name": "operator",
          "type": "address"
        },
        {
          "internalType": "bool",
          "name": "approved",
          "type": "bool"
        }
      ],
      "name": "setApprovalForAll",
      "outputs": [],
      "stateMutability": "nonpayable",
      "type": "function"
    },
    {
      "inputs": [
        {
          "internalType": "string",
          "name": "URI",
          "type": "string"
        }
      ],
      "name": "setBaseURI",
      "outputs": [],
      "stateMutability": "nonpayable",
      "type": "function"
    },
    {
      "inputs": [
        {
          "internalType": "string",
          "name": "URI",
          "type": "string"
        }
      ],
      "name": "setContractURI",
      "outputs": [],
      "stateMutability": "nonpayable",
      "type": "function"
    },
    {
      "inputs": [
        {
          "internalType": "uint256",
          "name": "amount",
          "type": "uint256"
        }
      ],
      "name": "setPrice",
      "outputs": [],
      "stateMutability": "nonpayable",
      "type": "function"
    },
    {
      "inputs": [
        {
          "internalType": "string",
          "name": "hash",
          "type": "string"
        }
      ],
      "name": "setProvenanceHash",
      "outputs": [],
      "stateMutability": "nonpayable",
      "type": "function"
    },
    {
      "inputs": [
        {
          "internalType": "address",
          "name": "addr",
          "type": "address"
        }
      ],
      "name": "setSignerAddress",
      "outputs": [],
      "stateMutability": "nonpayable",
      "type": "function"
    },
    {
      "inputs": [
        {
          "internalType": "address",
          "name": "addr",
          "type": "address"
        }
      ],
      "name": "setVaultAddress",
      "outputs": [],
      "stateMutability": "nonpayable",
      "type": "function"
    },
    {
      "inputs": [
        {
          "internalType": "bytes4",
          "name": "interfaceId",
          "type": "bytes4"
        }
      ],
      "name": "supportsInterface",
      "outputs": [
        {
          "internalType": "bool",
          "name": "",
          "type": "bool"
        }
      ],
      "stateMutability": "view",
      "type": "function"
    },
    {
      "inputs": [],
      "name": "symbol",
      "outputs": [
        {
          "internalType": "string",
          "name": "",
          "type": "string"
        }
      ],
      "stateMutability": "view",
      "type": "function"
    },
    {
      "inputs": [],
      "name": "togglePresaleStatus",
      "outputs": [],
      "stateMutability": "nonpayable",
      "type": "function"
    },
    {
      "inputs": [],
      "name": "toggleSaleStatus",
      "outputs": [],
      "stateMutability": "nonpayable",
      "type": "function"
    },
    {
      "inputs": [
        {
          "internalType": "uint256",
          "name": "tokenId",
          "type": "uint256"
        }
      ],
      "name": "tokenURI",
      "outputs": [
        {
          "internalType": "string",
          "name": "",
          "type": "string"
        }
      ],
      "stateMutability": "view",
      "type": "function"
    },
    {
      "inputs": [],
      "name": "totalSupply",
      "outputs": [
        {
          "internalType": "uint256",
          "name": "",
          "type": "uint256"
        }
      ],
      "stateMutability": "view",
      "type": "function"
    },
    {
      "inputs": [
        {
          "internalType": "address",
          "name": "from",
          "type": "address"
        },
        {
          "internalType": "address",
          "name": "to",
          "type": "address"
        },
        {
          "internalType": "uint256",
          "name": "tokenId",
          "type": "uint256"
        }
      ],
      "name": "transferFrom",
      "outputs": [],
      "stateMutability": "nonpayable",
      "type": "function"
    },
    {
      "inputs": [
        {
          "internalType": "address",
          "name": "newOwner",
          "type": "address"
        }
      ],
      "name": "transferOwnership",
      "outputs": [],
      "stateMutability": "nonpayable",
      "type": "function"
    },
    {
      "inputs": [],
      "name": "withdraw",
      "outputs": [],
      "stateMutability": "nonpayable",
      "type": "function"
    }
  ],
  "bytecode": "0x6080604052600b80546001600160a01b0319908116739d582750f758b6a2dc2397669e55a19099aa18ee17909155600c805490911673c049af472eec8ce544765974c7ae88cf2b1333931790553480156200005957600080fd5b506040518060400160405280600881526020016714dd1c99585b504d60c21b8152506040518060400160405280600381526020016214d04d60ea1b815250620000b1620000ab6200012660201b60201c565b6200012a565b6001620000bf83826200021f565b506002620000ce82826200021f565b5050666a94d74f4300006007555060408051808201909152601f81527f68747470733a2f2f73702e7261642e6c6976652f73747265616d706173732f006020820152600a906200011f90826200021f565b50620002eb565b3390565b600080546001600160a01b038381166001600160a01b0319831681178455604051919092169283917f8be0079c531659141344cd1fd0a4f28419497f9722a3daafe3b4186f6b6457e09190a35050565b634e487b7160e01b600052604160045260246000fd5b600181811c90821680620001a557607f821691505b602082108103620001c657634e487b7160e01b600052602260045260246000fd5b50919050565b601f8211156200021a57600081815260208120601f850160051c81016020861015620001f55750805b601f850160051c820191505b81811015620002165782815560010162000201565b5050505b505050565b81516001600160401b038111156200023b576200023b6200017a565b62000253816200024c845462000190565b84620001cc565b602080601f8311600181146200028b5760008415620002725750858301515b600019600386901b1c1916600185901b17855562000216565b600085815260208120601f198616915b82811015620002bc578886015182559484019460019091019084016200029b565b5085821015620002db5787850151600019600388901b60f8161c191681555b5050505050600190811b01905550565b612f0c80620002fb6000396000f3fe60806040526004361061031e5760003560e01c8063715018a6116101a5578063a68157cd116100ec578063d0b368a011610095578063e8a3d4851161006f578063e8a3d4851461088c578063e985e9c5146108a1578063f146877a146108ea578063f2fde38b1461090057600080fd5b8063d0b368a01461083a578063d96a094a1461085a578063e081b7811461086d57600080fd5b8063b903364c116100c6578063b903364c146107fa578063c0b3060314610563578063c87b56dd1461081a57600080fd5b8063a68157cd1461079a578063abf23f20146107ba578063b88d4fde146107da57600080fd5b80638da5cb5b1161014e57806395d89b411161012857806395d89b41146107385780639bf803161461074d578063a22cb4651461077a57600080fd5b80638da5cb5b146106da57806391b7f5ed146106f8578063938e3d7b1461071857600080fd5b8063815f7bbd1161017f578063815f7bbd1461068d57806383a9e049146106a057806385535cc5146106ba57600080fd5b8063715018a61461064e57806374601c3c146106635780637bffb4ce1461067857600080fd5b80631b57190e1161026957806342842e0e116102125780635ce7af1f116101ec5780635ce7af1f146105d85780636352211e1461060e57806370a082311461062e57600080fd5b806342842e0e1461057857806355f804b314610598578063568f57e1146105b857600080fd5b80633371bfff116102435780633371bfff1461051e5780633ccfd60b1461054e5780633cef98361461056357600080fd5b80631b57190e146104c8578063215048cd146104de57806323b872dd146104fe57600080fd5b8063095ea7b3116102cb57806310969523116102a55780631096952314610472578063163e1e611461049257806318160ddd146104b257600080fd5b8063095ea7b31461040d5780630f0616271461042d5780630f7309e81461045d57600080fd5b8063051e93dc116102fc578063051e93dc1461038f57806306fdde03146103b3578063081812fc146103d557600080fd5b806301ffc9a714610323578063046dc16614610358578063049c5c491461037a575b600080fd5b34801561032f57600080fd5b5061034361033e36600461285a565b610920565b60405190151581526020015b60405180910390f35b34801561036457600080fd5b5061037861037336600461289a565b6109bd565b005b34801561038657600080fd5b50610378610a2c565b34801561039b57600080fd5b506103a56126ac81565b60405190815260200161034f565b3480156103bf57600080fd5b506103c8610a91565b60405161034f9190612905565b3480156103e157600080fd5b506103f56103f0366004612918565b610b23565b6040516001600160a01b03909116815260200161034f565b34801561041957600080fd5b50610378610428366004612931565b610bab565b34801561043957600080fd5b5061034361044836600461289a565b600d6020526000908152604090205460ff1681565b34801561046957600080fd5b506103c8610cfa565b34801561047e57600080fd5b5061037861048d36600461295b565b610d88565b34801561049e57600080fd5b506103786104ad3660046129cd565b610ddd565b3480156104be57600080fd5b506103a561271081565b3480156104d457600080fd5b506103a560065481565b3480156104ea57600080fd5b506103786104f936600461289a565b610f55565b34801561050a57600080fd5b50610378610519366004612a30565b610fbe565b34801561052a57600080fd5b5061034361053936600461289a565b600e6020526000908152604090205460ff1681565b34801561055a57600080fd5b50610378611045565b34801561056f57600080fd5b506103a5606481565b34801561058457600080fd5b50610378610593366004612a30565b6110c9565b3480156105a457600080fd5b506103786105b336600461295b565b6110e4565b3480156105c457600080fd5b506103786105d336600461289a565b611139565b3480156105e457600080fd5b506103a56105f336600461289a565b6001600160a01b031660009081526010602052604090205490565b34801561061a57600080fd5b506103f5610629366004612918565b6111a2565b34801561063a57600080fd5b506103a561064936600461289a565b611242565b34801561065a57600080fd5b50610378611327565b34801561066f57600080fd5b506103a561137b565b34801561068457600080fd5b50610378611392565b61037861069b366004612918565b6113ee565b3480156106ac57600080fd5b50600f546103439060ff1681565b3480156106c657600080fd5b506103786106d536600461289a565b6116cc565b3480156106e657600080fd5b506000546001600160a01b03166103f5565b34801561070457600080fd5b50610378610713366004612918565b611736565b34801561072457600080fd5b5061037861073336600461295b565b611783565b34801561074457600080fd5b506103c86117d8565b34801561075957600080fd5b506103a561076836600461289a565b60106020526000908152604090205481565b34801561078657600080fd5b50610378610795366004612a6c565b6117e7565b3480156107a657600080fd5b506103786107b53660046129cd565b6118ab565b3480156107c657600080fd5b506103786107d53660046129cd565b6119cb565b3480156107e657600080fd5b506103786107f5366004612abe565b611aeb565b34801561080657600080fd5b5061037861081536600461289a565b611b73565b34801561082657600080fd5b506103c8610835366004612918565b611bdf565b34801561084657600080fd5b5061037861085536600461289a565b611c8e565b610378610868366004612918565b611cfa565b34801561087957600080fd5b50600f5461034390610100900460ff1681565b34801561089857600080fd5b506103c8611f30565b3480156108ad57600080fd5b506103436108bc366004612b9a565b6001600160a01b03918216600090815260056020908152604080832093909416825291909152205460ff1690565b3480156108f657600080fd5b506103a560075481565b34801561090c57600080fd5b5061037861091b36600461289a565b611f3f565b60006001600160e01b031982167f80ac58cd00000000000000000000000000000000000000000000000000000000148061098357506001600160e01b031982167f5b5e139f00000000000000000000000000000000000000000000000000000000145b806109b757507f01ffc9a7000000000000000000000000000000000000000000000000000000006001600160e01b03198316145b92915050565b6000546001600160a01b03163314610a0a5760405162461bcd60e51b81526020600482018190526024820152600080516020612eb783398151915260448201526064015b60405180910390fd5b600b80546001600160a01b0319166001600160a01b0392909216919091179055565b6000546001600160a01b03163314610a745760405162461bcd60e51b81526020600482018190526024820152600080516020612eb78339815191526044820152606401610a01565b600f805461ff001981166101009182900460ff1615909102179055565b606060018054610aa090612bcd565b80601f0160208091040260200160405190810160405280929190818152602001828054610acc90612bcd565b8015610b195780601f10610aee57610100808354040283529160200191610b19565b820191906000526020600020905b815481529060010190602001808311610afc57829003601f168201915b5050505050905090565b6000610b2e8261200c565b610b8f5760405162461bcd60e51b815260206004820152602c60248201527f4552433732313a20617070726f76656420717565727920666f72206e6f6e657860448201526b34b9ba32b73a103a37b5b2b760a11b6064820152608401610a01565b506000908152600460205260409020546001600160a01b031690565b6000610bb6826111a2565b9050806001600160a01b0316836001600160a01b031603610c3f5760405162461bcd60e51b815260206004820152602160248201527f4552433732313a20617070726f76616c20746f2063757272656e74206f776e6560448201527f72000000000000000000000000000000000000000000000000000000000000006064820152608401610a01565b336001600160a01b0382161480610c7957506001600160a01b038116600090815260056020908152604080832033845290915290205460ff165b610ceb5760405162461bcd60e51b815260206004820152603860248201527f4552433732313a20617070726f76652063616c6c6572206973206e6f74206f7760448201527f6e6572206e6f7220617070726f76656420666f7220616c6c00000000000000006064820152608401610a01565b610cf58383612056565b505050565b60088054610d0790612bcd565b80601f0160208091040260200160405190810160405280929190818152602001828054610d3390612bcd565b8015610d805780601f10610d5557610100808354040283529160200191610d80565b820191906000526020600020905b815481529060010190602001808311610d6357829003601f168201915b505050505081565b6000546001600160a01b03163314610dd05760405162461bcd60e51b81526020600482018190526024820152600080516020612eb78339815191526044820152606401610a01565b6008610cf5828483612c55565b6000546001600160a01b03163314610e255760405162461bcd60e51b81526020600482018190526024820152600080516020612eb78339815191526044820152606401610a01565b600354612710610e358383612d2c565b1115610e835760405162461bcd60e51b815260206004820152600860248201527f4d41585f4d494e540000000000000000000000000000000000000000000000006044820152606401610a01565b600654606490610e94908490612d2c565b1115610ee25760405162461bcd60e51b815260206004820152600860248201527f4e4f5f47494654530000000000000000000000000000000000000000000000006044820152606401610a01565b60005b82811015610f4f5760068054906000610efd83612d3f565b9190505550610f3d848483818110610f1757610f17612d58565b9050602002016020810190610f2c919061289a565b83610f3681612d3f565b94506120c4565b80610f4781612d3f565b915050610ee5565b50505050565b6000546001600160a01b03163314610f9d5760405162461bcd60e51b81526020600482018190526024820152600080516020612eb78339815191526044820152606401610a01565b6001600160a01b03166000908152600e60205260409020805460ff19169055565b610fc833826120e2565b61103a5760405162461bcd60e51b815260206004820152603160248201527f4552433732313a207472616e736665722063616c6c6572206973206e6f74206f60448201527f776e6572206e6f7220617070726f7665640000000000000000000000000000006064820152608401610a01565b610cf58383836121cc565b6000546001600160a01b0316331461108d5760405162461bcd60e51b81526020600482018190526024820152600080516020612eb78339815191526044820152606401610a01565b600c546040516001600160a01b03909116904780156108fc02916000818181858888f193505050501580156110c6573d6000803e3d6000fd5b50565b610cf583838360405180602001604052806000815250611aeb565b6000546001600160a01b0316331461112c5760405162461bcd60e51b81526020600482018190526024820152600080516020612eb78339815191526044820152606401610a01565b600a610cf5828483612c55565b6000546001600160a01b031633146111815760405162461bcd60e51b81526020600482018190526024820152600080516020612eb78339815191526044820152606401610a01565b6001600160a01b03166000908152600d60205260409020805460ff19169055565b600080600383815481106111b8576111b8612d58565b6000918252602090912001546001600160a01b03169050806109b75760405162461bcd60e51b815260206004820152602960248201527f4552433732313a206f776e657220717565727920666f72206e6f6e657869737460448201527f656e7420746f6b656e00000000000000000000000000000000000000000000006064820152608401610a01565b60006001600160a01b0382166112c05760405162461bcd60e51b815260206004820152602a60248201527f4552433732313a2062616c616e636520717565727920666f7220746865207a6560448201527f726f2061646472657373000000000000000000000000000000000000000000006064820152608401610a01565b600354600090815b8181101561131e57600381815481106112e3576112e3612d58565b6000918252602090912001546001600160a01b039081169086160361130e5761130b83612d3f565b92505b61131781612d3f565b90506112c8565b50909392505050565b6000546001600160a01b0316331461136f5760405162461bcd60e51b81526020600482018190526024820152600080516020612eb78339815191526044820152606401610a01565b611379600061234f565b565b60035460009061138d90612710612d6e565b905090565b6000546001600160a01b031633146113da5760405162461bcd60e51b81526020600482018190526024820152600080516020612eb78339815191526044820152606401610a01565b600f805460ff19811660ff90911615179055565b600f54610100900460ff161580156114085750600f5460ff165b6114545760405162461bcd60e51b815260206004820152600e60248201527f50524553414c455f434c4f5345440000000000000000000000000000000000006044820152606401610a01565b33600090815260106020526040902054606490611472908390612d2c565b11156114c05760405162461bcd60e51b815260206004820152600c60248201527f4558434545445f414c4c4f4300000000000000000000000000000000000000006044820152606401610a01565b60648111156115115760405162461bcd60e51b815260206004820152601260248201527f4558434545445f46525f5045525f4d494e5400000000000000000000000000006044820152606401610a01565b34816007546115209190612d81565b111561156e5760405162461bcd60e51b815260206004820152601060248201527f494e53554646494349454e545f455448000000000000000000000000000000006044820152606401610a01565b6003546126ac61157e8383612d2c565b11156115cc5760405162461bcd60e51b815260206004820152601660248201527f4558434545445f4d41585f53414c455f535550504c59000000000000000000006044820152606401610a01565b336000908152600d602052604090205460ff166116205760405162461bcd60e51b81526020600482015260126024820152712727aa2fa0a8282927ab22a22fa12aaca2a960711b6044820152606401610a01565b336000908152600e602052604090205460ff16156116755760405162461bcd60e51b81526020600482015260126024820152712727aa2fa0a8282927ab22a22fa12aaca2a960711b6044820152606401610a01565b3360009081526010602052604081208054849290611694908490612d2c565b90915550600090505b82811015610cf5576116ba33836116b381612d3f565b945061239f565b806116c481612d3f565b91505061169d565b6000546001600160a01b031633146117145760405162461bcd60e51b81526020600482018190526024820152600080516020612eb78339815191526044820152606401610a01565b600c80546001600160a01b0319166001600160a01b0392909216919091179055565b6000546001600160a01b0316331461177e5760405162461bcd60e51b81526020600482018190526024820152600080516020612eb78339815191526044820152606401610a01565b600755565b6000546001600160a01b031633146117cb5760405162461bcd60e51b81526020600482018190526024820152600080516020612eb78339815191526044820152606401610a01565b6009610cf5828483612c55565b606060028054610aa090612bcd565b336001600160a01b0383160361183f5760405162461bcd60e51b815260206004820152601960248201527f4552433732313a20617070726f766520746f2063616c6c6572000000000000006044820152606401610a01565b3360008181526005602090815260408083206001600160a01b03871680855290835292819020805460ff191686151590811790915590519081529192917f17307eab39ab6107e8899845ad3d59bd9653f200f220920489ca2b5937696c31910160405180910390a35050565b6000546001600160a01b031633146118f35760405162461bcd60e51b81526020600482018190526024820152600080516020612eb78339815191526044820152606401610a01565b6127108111156119595760405162461bcd60e51b815260206004820152602b60248201527f50726f76696465206c6573732061646472657373657320696e206f6e6520667560448201526a1b98dd1a5bdb8818d85b1b60aa1b6064820152608401610a01565b60005b81811015610cf5576001600d600085858581811061197c5761197c612d58565b9050602002016020810190611991919061289a565b6001600160a01b031681526020810191909152604001600020805460ff1916911515919091179055806119c381612d3f565b91505061195c565b6000546001600160a01b03163314611a135760405162461bcd60e51b81526020600482018190526024820152600080516020612eb78339815191526044820152606401610a01565b612710811115611a795760405162461bcd60e51b815260206004820152602b60248201527f50726f76696465206c6573732061646472657373657320696e206f6e6520667560448201526a1b98dd1a5bdb8818d85b1b60aa1b6064820152608401610a01565b60005b81811015610cf5576000600d6000858585818110611a9c57611a9c612d58565b9050602002016020810190611ab1919061289a565b6001600160a01b031681526020810191909152604001600020805460ff191691151591909117905580611ae381612d3f565b915050611a7c565b611af533836120e2565b611b675760405162461bcd60e51b815260206004820152603160248201527f4552433732313a207472616e736665722063616c6c6572206973206e6f74206f60448201527f776e6572206e6f7220617070726f7665640000000000000000000000000000006064820152608401610a01565b610f4f848484846124c7565b6000546001600160a01b03163314611bbb5760405162461bcd60e51b81526020600482018190526024820152600080516020612eb78339815191526044820152606401610a01565b6001600160a01b03166000908152600e60205260409020805460ff19166001179055565b6060611bea8261200c565b611c5c5760405162461bcd60e51b815260206004820152602f60248201527f4552433732314d657461646174613a2055524920717565727920666f72206e6f60448201527f6e6578697374656e7420746f6b656e00000000000000000000000000000000006064820152608401610a01565b600a611c6783612545565b604051602001611c78929190612d98565b6040516020818303038152906040529050919050565b6000546001600160a01b03163314611cd65760405162461bcd60e51b81526020600482018190526024820152600080516020612eb78339815191526044820152606401610a01565b6001600160a01b03166000908152600d60205260409020805460ff19166001179055565b600f54610100900460ff16611d515760405162461bcd60e51b815260206004820152600b60248201527f53414c455f434c4f5345440000000000000000000000000000000000000000006044820152606401610a01565b600f5460ff1615611da45760405162461bcd60e51b815260206004820152600c60248201527f4f4e4c595f50524553414c4500000000000000000000000000000000000000006044820152606401610a01565b6064811115611df55760405162461bcd60e51b815260206004820152601260248201527f4558434545445f46525f5045525f4d494e5400000000000000000000000000006044820152606401610a01565b3481600754611e049190612d81565b1115611e525760405162461bcd60e51b815260206004820152601060248201527f494e53554646494349454e545f455448000000000000000000000000000000006044820152606401610a01565b336000908152600e602052604090205460ff1615611ea75760405162461bcd60e51b81526020600482015260126024820152712727aa2fa0a8282927ab22a22fa12aaca2a960711b6044820152606401610a01565b6003546126ac611eb78383612d2c565b1115611f055760405162461bcd60e51b815260206004820152601660248201527f4558434545445f4d41585f53414c455f535550504c59000000000000000000006044820152606401610a01565b60005b82811015610cf557611f1e33836116b381612d3f565b80611f2881612d3f565b915050611f08565b606060098054610aa090612bcd565b6000546001600160a01b03163314611f875760405162461bcd60e51b81526020600482018190526024820152600080516020612eb78339815191526044820152606401610a01565b6001600160a01b0381166120035760405162461bcd60e51b815260206004820152602660248201527f4f776e61626c653a206e6577206f776e657220697320746865207a65726f206160448201527f64647265737300000000000000000000000000000000000000000000000000006064820152608401610a01565b6110c68161234f565b600354600090821080156109b7575060006001600160a01b03166003838154811061203957612039612d58565b6000918252602090912001546001600160a01b0316141592915050565b600081815260046020526040902080546001600160a01b0319166001600160a01b038416908117909155819061208b826111a2565b6001600160a01b03167f8c5be1e5ebec7d5bd14f71427d1e84f3dd0314c0f7b2291e5b200ac8c7c3b92560405160405180910390a45050565b6120de82826040518060200160405280600081525061267a565b5050565b60006120ed8261200c565b61214e5760405162461bcd60e51b815260206004820152602c60248201527f4552433732313a206f70657261746f7220717565727920666f72206e6f6e657860448201526b34b9ba32b73a103a37b5b2b760a11b6064820152608401610a01565b6000612159836111a2565b9050806001600160a01b0316846001600160a01b031614806121945750836001600160a01b031661218984610b23565b6001600160a01b0316145b806121c457506001600160a01b0380821660009081526005602090815260408083209388168352929052205460ff165b949350505050565b826001600160a01b03166121df826111a2565b6001600160a01b03161461225b5760405162461bcd60e51b815260206004820152602960248201527f4552433732313a207472616e73666572206f6620746f6b656e2074686174206960448201527f73206e6f74206f776e00000000000000000000000000000000000000000000006064820152608401610a01565b6001600160a01b0382166122d65760405162461bcd60e51b8152602060048201526024808201527f4552433732313a207472616e7366657220746f20746865207a65726f2061646460448201527f72657373000000000000000000000000000000000000000000000000000000006064820152608401610a01565b6122e1600082612056565b81600382815481106122f5576122f5612d58565b6000918252602082200180546001600160a01b0319166001600160a01b03938416179055604051839285811692908716917fddf252ad1be2c89b69c2b068fc378daa952ba7f163c4a11628f55a4df523b3ef9190a4505050565b600080546001600160a01b038381166001600160a01b0319831681178455604051919092169283917f8be0079c531659141344cd1fd0a4f28419497f9722a3daafe3b4186f6b6457e09190a35050565b6001600160a01b0382166123f55760405162461bcd60e51b815260206004820181905260248201527f4552433732313a206d696e7420746f20746865207a65726f20616464726573736044820152606401610a01565b6123fe8161200c565b1561244b5760405162461bcd60e51b815260206004820152601c60248201527f4552433732313a20746f6b656e20616c7265616479206d696e746564000000006044820152606401610a01565b6003805460018101825560009182527fc2575a0e9e593c00f959f8c92f12db2869c3395a3b0502d05e2516446f71f85b0180546001600160a01b0319166001600160a01b0385169081179091556040518392907fddf252ad1be2c89b69c2b068fc378daa952ba7f163c4a11628f55a4df523b3ef908290a45050565b6124d28484846121cc565b6124de848484846126f8565b610f4f5760405162461bcd60e51b815260206004820152603260248201527f4552433732313a207472616e7366657220746f206e6f6e20455243373231526560448201527131b2b4bb32b91034b6b83632b6b2b73a32b960711b6064820152608401610a01565b60608160000361258857505060408051808201909152600181527f3000000000000000000000000000000000000000000000000000000000000000602082015290565b8160005b81156125b2578061259c81612d3f565b91506125ab9050600a83612e35565b915061258c565b60008167ffffffffffffffff8111156125cd576125cd612aa8565b6040519080825280601f01601f1916602001820160405280156125f7576020820181803683370190505b5090505b84156121c45761260c600183612d6e565b9150612619600a86612e49565b612624906030612d2c565b60f81b81838151811061263957612639612d58565b60200101907effffffffffffffffffffffffffffffffffffffffffffffffffffffffffffff1916908160001a905350612673600a86612e35565b94506125fb565b612684838361239f565b61269160008484846126f8565b610cf55760405162461bcd60e51b815260206004820152603260248201527f4552433732313a207472616e7366657220746f206e6f6e20455243373231526560448201527131b2b4bb32b91034b6b83632b6b2b73a32b960711b6064820152608401610a01565b60006001600160a01b0384163b1561283957604051630a85bd0160e11b81526001600160a01b0385169063150b7a029061273c903390899088908890600401612e5d565b6020604051808303816000875af1925050508015612777575060408051601f3d908101601f1916820190925261277491810190612e99565b60015b61281f573d8080156127a5576040519150601f19603f3d011682016040523d82523d6000602084013e6127aa565b606091505b5080516000036128175760405162461bcd60e51b815260206004820152603260248201527f4552433732313a207472616e7366657220746f206e6f6e20455243373231526560448201527131b2b4bb32b91034b6b83632b6b2b73a32b960711b6064820152608401610a01565b805181602001fd5b6001600160e01b031916630a85bd0160e11b1490506121c4565b506001949350505050565b6001600160e01b0319811681146110c657600080fd5b60006020828403121561286c57600080fd5b813561287781612844565b9392505050565b80356001600160a01b038116811461289557600080fd5b919050565b6000602082840312156128ac57600080fd5b6128778261287e565b60005b838110156128d05781810151838201526020016128b8565b50506000910152565b600081518084526128f18160208601602086016128b5565b601f01601f19169290920160200192915050565b60208152600061287760208301846128d9565b60006020828403121561292a57600080fd5b5035919050565b6000806040838503121561294457600080fd5b61294d8361287e565b946020939093013593505050565b6000806020838503121561296e57600080fd5b823567ffffffffffffffff8082111561298657600080fd5b818501915085601f83011261299a57600080fd5b8135818111156129a957600080fd5b8660208285010111156129bb57600080fd5b60209290920196919550909350505050565b600080602083850312156129e057600080fd5b823567ffffffffffffffff808211156129f857600080fd5b818501915085601f830112612a0c57600080fd5b813581811115612a1b57600080fd5b8660208260051b85010111156129bb57600080fd5b600080600060608486031215612a4557600080fd5b612a4e8461287e565b9250612a5c6020850161287e565b9150604084013590509250925092565b60008060408385031215612a7f57600080fd5b612a888361287e565b915060208301358015158114612a9d57600080fd5b809150509250929050565b634e487b7160e01b600052604160045260246000fd5b60008060008060808587031215612ad457600080fd5b612add8561287e565b9350612aeb6020860161287e565b925060408501359150606085013567ffffffffffffffff80821115612b0f57600080fd5b818701915087601f830112612b2357600080fd5b813581811115612b3557612b35612aa8565b604051601f8201601f19908116603f01168101908382118183101715612b5d57612b5d612aa8565b816040528281528a6020848701011115612b7657600080fd5b82602086016020830137600060208483010152809550505050505092959194509250565b60008060408385031215612bad57600080fd5b612bb68361287e565b9150612bc46020840161287e565b90509250929050565b600181811c90821680612be157607f821691505b602082108103612c0157634e487b7160e01b600052602260045260246000fd5b50919050565b601f821115610cf557600081815260208120601f850160051c81016020861015612c2e5750805b601f850160051c820191505b81811015612c4d57828155600101612c3a565b505050505050565b67ffffffffffffffff831115612c6d57612c6d612aa8565b612c8183612c7b8354612bcd565b83612c07565b6000601f841160018114612cb55760008515612c9d5750838201355b600019600387901b1c1916600186901b178355612d0f565b600083815260209020601f19861690835b82811015612ce65786850135825560209485019460019092019101612cc6565b5086821015612d035760001960f88860031b161c19848701351681555b505060018560011b0183555b5050505050565b634e487b7160e01b600052601160045260246000fd5b808201808211156109b7576109b7612d16565b600060018201612d5157612d51612d16565b5060010190565b634e487b7160e01b600052603260045260246000fd5b818103818111156109b7576109b7612d16565b80820281158282048414176109b7576109b7612d16565b6000808454612da681612bcd565b60018281168015612dbe5760018114612dd357612e02565b60ff1984168752821515830287019450612e02565b8860005260208060002060005b85811015612df95781548a820152908401908201612de0565b50505082870194505b505050508351612e168183602088016128b5565b01949350505050565b634e487b7160e01b600052601260045260246000fd5b600082612e4457612e44612e1f565b500490565b600082612e5857612e58612e1f565b500690565b60006001600160a01b03808716835280861660208401525083604083015260806060830152612e8f60808301846128d9565b9695505050505050565b600060208284031215612eab57600080fd5b81516128778161284456fe4f776e61626c653a2063616c6c6572206973206e6f7420746865206f776e6572a2646970667358221220792e601e4f9da9377375537b5e0ba44f907e0287b6c1655de6f13ea1cb0d33af64736f6c63430008110033",
  "linkReferences": {},
  "deployedLinkReferences": {}
}