{
  "_format": "hh-sol-artifact-1",
  "contractName": "StreamA",
  "sourceName": "contracts/StreamA.sol",
  "abi": [
    {
      "inputs": [],
      "stateMutability": "nonpayable",
      "type": "constructor"
    },
    {
      "anonymous": false,
      "inputs": [
        {
          "indexed": true,
          "internalType": "address",
          "name": "owner",
          "type": "address"
        },
        {
          "indexed": true,
          "internalType": "address",
          "name": "approved",
          "type": "address"
        },
        {
          "indexed": true,
          "internalType": "uint256",
          "name": "tokenId",
          "type": "uint256"
        }
      ],
      "name": "Approval",
      "type": "event"
    },
    {
      "anonymous": false,
      "inputs": [
        {
          "indexed": true,
          "internalType": "address",
          "name": "owner",
          "type": "address"
        },
        {
          "indexed": true,
          "internalType": "address",
          "name": "operator",
          "type": "address"
        },
        {
          "indexed": false,
          "internalType": "bool",
          "name": "approved",
          "type": "bool"
        }
      ],
      "name": "ApprovalForAll",
      "type": "event"
    },
    {
      "anonymous": false,
      "inputs": [
        {
          "indexed": true,
          "internalType": "address",
          "name": "previousOwner",
          "type": "address"
        },
        {
          "indexed": true,
          "internalType": "address",
          "name": "newOwner",
          "type": "address"
        }
      ],
      "name": "OwnershipTransferred",
      "type": "event"
    },
    {
      "anonymous": false,
      "inputs": [
        {
          "indexed": true,
          "internalType": "address",
          "name": "from",
          "type": "address"
        },
        {
          "indexed": true,
          "internalType": "address",
          "name": "to",
          "type": "address"
        },
        {
          "indexed": true,
          "internalType": "uint256",
          "name": "tokenId",
          "type": "uint256"
        }
      ],
      "name": "Transfer",
      "type": "event"
    },
    {
      "inputs": [],
      "name": "FR_GIFT",
      "outputs": [
        {
          "internalType": "uint256",
          "name": "",
          "type": "uint256"
        }
      ],
      "stateMutability": "view",
      "type": "function"
    },
    {
      "inputs": [],
      "name": "FR_PER_MINT",
      "outputs": [
        {
          "internalType": "uint256",
          "name": "",
          "type": "uint256"
        }
      ],
      "stateMutability": "view",
      "type": "function"
    },
    {
      "inputs": [],
      "name": "FR_PRICE",
      "outputs": [
        {
          "internalType": "uint256",
          "name": "",
          "type": "uint256"
        }
      ],
      "stateMutability": "view",
      "type": "function"
    },
    {
      "inputs": [],
      "name": "FR_PUBLIC",
      "outputs": [
        {
          "internalType": "uint256",
          "name": "",
          "type": "uint256"
        }
      ],
      "stateMutability": "view",
      "type": "function"
    },
    {
      "inputs": [
        {
          "internalType": "address[]",
          "name": "_addresses",
          "type": "address[]"
        }
      ],
      "name": "addMultipleToApproveList",
      "outputs": [],
      "stateMutability": "nonpayable",
      "type": "function"
    },
    {
      "inputs": [
        {
          "internalType": "address",
          "name": "_newAddress",
          "type": "address"
        }
      ],
      "name": "addToApproveList",
      "outputs": [],
      "stateMutability": "nonpayable",
      "type": "function"
    },
    {
      "inputs": [
        {
          "internalType": "address",
          "name": "_newAddress",
          "type": "address"
        }
      ],
      "name": "addToDenyList",
      "outputs": [],
      "stateMutability": "nonpayable",
      "type": "function"
    },
    {
      "inputs": [
        {
          "internalType": "address",
          "name": "to",
          "type": "address"
        },
        {
          "internalType": "uint256",
          "name": "tokenId",
          "type": "uint256"
        }
      ],
      "name": "approve",
      "outputs": [],
      "stateMutability": "nonpayable",
      "type": "function"
    },
    {
      "inputs": [
        {
          "internalType": "address",
          "name": "",
          "type": "address"
        }
      ],
      "name": "approvelist",
      "outputs": [
        {
          "internalType": "bool",
          "name": "",
          "type": "bool"
        }
      ],
      "stateMutability": "view",
      "type": "function"
    },
    {
      "inputs": [],
      "name": "availableToMint",
      "outputs": [
        {
          "internalType": "uint256",
          "name": "",
          "type": "uint256"
        }
      ],
      "stateMutability": "view",
      "type": "function"
    },
    {
      "inputs": [
        {
          "internalType": "address",
          "name": "owner",
          "type": "address"
        }
      ],
      "name": "balanceOf",
      "outputs": [
        {
          "internalType": "uint256",
          "name": "",
          "type": "uint256"
        }
      ],
      "stateMutability": "view",
      "type": "function"
    },
    {
      "inputs": [
        {
          "internalType": "uint256",
          "name": "tokenQuantity",
          "type": "uint256"
        }
      ],
      "name": "buy",
      "outputs": [],
      "stateMutability": "payable",
      "type": "function"
    },
    {
      "inputs": [],
      "name": "contractURI",
      "outputs": [
        {
          "internalType": "string",
          "name": "",
          "type": "string"
        }
      ],
      "stateMutability": "view",
      "type": "function"
    },
    {
      "inputs": [
        {
          "internalType": "address",
          "name": "",
          "type": "address"
        }
      ],
      "name": "denylist",
      "outputs": [
        {
          "internalType": "bool",
          "name": "",
          "type": "bool"
        }
      ],
      "stateMutability": "view",
      "type": "function"
    },
    {
      "inputs": [
        {
          "internalType": "uint256",
          "name": "tokenId",
          "type": "uint256"
        }
      ],
      "name": "getApproved",
      "outputs": [
        {
          "internalType": "address",
          "name": "",
          "type": "address"
        }
      ],
      "stateMutability": "view",
      "type": "function"
    },
    {
      "inputs": [
        {
          "internalType": "address[]",
          "name": "receivers",
          "type": "address[]"
        }
      ],
      "name": "gift",
      "outputs": [],
      "stateMutability": "nonpayable",
      "type": "function"
    },
    {
      "inputs": [],
      "name": "giftedAmount",
      "outputs": [
        {
          "internalType": "uint256",
          "name": "",
          "type": "uint256"
        }
      ],
      "stateMutability": "view",
      "type": "function"
    },
    {
      "inputs": [
        {
          "internalType": "address",
          "name": "owner",
          "type": "address"
        },
        {
          "internalType": "address",
          "name": "operator",
          "type": "address"
        }
      ],
      "name": "isApprovedForAll",
      "outputs": [
        {
          "internalType": "bool",
          "name": "",
          "type": "bool"
        }
      ],
      "stateMutability": "view",
      "type": "function"
    },
    {
      "inputs": [],
      "name": "name",
      "outputs": [
        {
          "internalType": "string",
          "name": "",
          "type": "string"
        }
      ],
      "stateMutability": "view",
      "type": "function"
    },
    {
      "inputs": [],
      "name": "owner",
      "outputs": [
        {
          "internalType": "address",
          "name": "",
          "type": "address"
        }
      ],
      "stateMutability": "view",
      "type": "function"
    },
    {
      "inputs": [
        {
          "internalType": "uint256",
          "name": "tokenId",
          "type": "uint256"
        }
      ],
      "name": "ownerOf",
      "outputs": [
        {
          "internalType": "address",
          "name": "",
          "type": "address"
        }
      ],
      "stateMutability": "view",
      "type": "function"
    },
    {
      "inputs": [
        {
          "internalType": "uint256",
          "name": "tokenQuantity",
          "type": "uint256"
        }
      ],
      "name": "presaleBuy",
      "outputs": [],
      "stateMutability": "payable",
      "type": "function"
    },
    {
      "inputs": [],
      "name": "presaleLive",
      "outputs": [
        {
          "internalType": "bool",
          "name": "",
          "type": "bool"
        }
      ],
      "stateMutability": "view",
      "type": "function"
    },
    {
      "inputs": [
        {
          "internalType": "address",
          "name": "addr",
          "type": "address"
        }
      ],
      "name": "presalePurchasedCount",
      "outputs": [
        {
          "internalType": "uint256",
          "name": "",
          "type": "uint256"
        }
      ],
      "stateMutability": "view",
      "type": "function"
    },
    {
      "inputs": [
        {
          "internalType": "address",
          "name": "",
          "type": "address"
        }
      ],
      "name": "presalerListPurchases",
      "outputs": [
        {
          "internalType": "uint256",
          "name": "",
          "type": "uint256"
        }
      ],
      "stateMutability": "view",
      "type": "function"
    },
    {
      "inputs": [],
      "name": "provenance",
      "outputs": [
        {
          "internalType": "string",
          "name": "",
          "type": "string"
        }
      ],
      "stateMutability": "view",
      "type": "function"
    },
    {
      "inputs": [
        {
          "internalType": "address",
          "name": "_address",
          "type": "address"
        }
      ],
      "name": "removeFromApproveList",
      "outputs": [],
      "stateMutability": "nonpayable",
      "type": "function"
    },
    {
      "inputs": [
        {
          "internalType": "address",
          "name": "_address",
          "type": "address"
        }
      ],
      "name": "removeFromDenyList",
      "outputs": [],
      "stateMutability": "nonpayable",
      "type": "function"
    },
    {
      "inputs": [
        {
          "internalType": "address[]",
          "name": "_addresses",
          "type": "address[]"
        }
      ],
      "name": "removeMultipleFromApproveList",
      "outputs": [],
      "stateMutability": "nonpayable",
      "type": "function"
    },
    {
      "inputs": [],
      "name": "renounceOwnership",
      "outputs": [],
      "stateMutability": "nonpayable",
      "type": "function"
    },
    {
      "inputs": [
        {
          "internalType": "address",
          "name": "from",
          "type": "address"
        },
        {
          "internalType": "address",
          "name": "to",
          "type": "address"
        },
        {
          "internalType": "uint256",
          "name": "tokenId",
          "type": "uint256"
        }
      ],
      "name": "safeTransferFrom",
      "outputs": [],
      "stateMutability": "nonpayable",
      "type": "function"
    },
    {
      "inputs": [
        {
          "internalType": "address",
          "name": "from",
          "type": "address"
        },
        {
          "internalType": "address",
          "name": "to",
          "type": "address"
        },
        {
          "internalType": "uint256",
          "name": "tokenId",
          "type": "uint256"
        },
        {
          "internalType": "bytes",
          "name": "_data",
          "type": "bytes"
        }
      ],
      "name": "safeTransferFrom",
      "outputs": [],
      "stateMutability": "nonpayable",
      "type": "function"
    },
    {
      "inputs": [],
      "name": "saleLive",
      "outputs": [
        {
          "internalType": "bool",
          "name": "",
          "type": "bool"
        }
      ],
      "stateMutability": "view",
      "type": "function"
    },
    {
      "inputs": [
        {
          "internalType": "address",
          "name": "operator",
          "type": "address"
        },
        {
          "internalType": "bool",
          "name": "approved",
          "type": "bool"
        }
      ],
      "name": "setApprovalForAll",
      "outputs": [],
      "stateMutability": "nonpayable",
      "type": "function"
    },
    {
      "inputs": [
        {
          "internalType": "string",
          "name": "URI",
          "type": "string"
        }
      ],
      "name": "setBaseURI",
      "outputs": [],
      "stateMutability": "nonpayable",
      "type": "function"
    },
    {
      "inputs": [
        {
          "internalType": "string",
          "name": "URI",
          "type": "string"
        }
      ],
      "name": "setContractURI",
      "outputs": [],
      "stateMutability": "nonpayable",
      "type": "function"
    },
    {
      "inputs": [
        {
          "internalType": "uint256",
          "name": "amount",
          "type": "uint256"
        }
      ],
      "name": "setPrice",
      "outputs": [],
      "stateMutability": "nonpayable",
      "type": "function"
    },
    {
      "inputs": [
        {
          "internalType": "string",
          "name": "hash",
          "type": "string"
        }
      ],
      "name": "setProvenanceHash",
      "outputs": [],
      "stateMutability": "nonpayable",
      "type": "function"
    },
    {
      "inputs": [
        {
          "internalType": "address",
          "name": "addr",
          "type": "address"
        }
      ],
      "name": "setSignerAddress",
      "outputs": [],
      "stateMutability": "nonpayable",
      "type": "function"
    },
    {
      "inputs": [
        {
          "internalType": "address",
          "name": "addr",
          "type": "address"
        }
      ],
      "name": "setVaultAddress",
      "outputs": [],
      "stateMutability": "nonpayable",
      "type": "function"
    },
    {
      "inputs": [
        {
          "internalType": "bytes4",
          "name": "interfaceId",
          "type": "bytes4"
        }
      ],
      "name": "supportsInterface",
      "outputs": [
        {
          "internalType": "bool",
          "name": "",
          "type": "bool"
        }
      ],
      "stateMutability": "view",
      "type": "function"
    },
    {
      "inputs": [],
      "name": "symbol",
      "outputs": [
        {
          "internalType": "string",
          "name": "",
          "type": "string"
        }
      ],
      "stateMutability": "view",
      "type": "function"
    },
    {
      "inputs": [],
      "name": "togglePresaleStatus",
      "outputs": [],
      "stateMutability": "nonpayable",
      "type": "function"
    },
    {
      "inputs": [],
      "name": "toggleSaleStatus",
      "outputs": [],
      "stateMutability": "nonpayable",
      "type": "function"
    },
    {
      "inputs": [
        {
          "internalType": "uint256",
          "name": "tokenId",
          "type": "uint256"
        }
      ],
      "name": "tokenURI",
      "outputs": [
        {
          "internalType": "string",
          "name": "",
          "type": "string"
        }
      ],
      "stateMutability": "view",
      "type": "function"
    },
    {
      "inputs": [],
      "name": "totalSupply",
      "outputs": [
        {
          "internalType": "uint256",
          "name": "",
          "type": "uint256"
        }
      ],
      "stateMutability": "view",
      "type": "function"
    },
    {
      "inputs": [
        {
          "internalType": "address",
          "name": "from",
          "type": "address"
        },
        {
          "internalType": "address",
          "name": "to",
          "type": "address"
        },
        {
          "internalType": "uint256",
          "name": "tokenId",
          "type": "uint256"
        }
      ],
      "name": "transferFrom",
      "outputs": [],
      "stateMutability": "nonpayable",
      "type": "function"
    },
    {
      "inputs": [
        {
          "internalType": "address",
          "name": "newOwner",
          "type": "address"
        }
      ],
      "name": "transferOwnership",
      "outputs": [],
      "stateMutability": "nonpayable",
      "type": "function"
    },
    {
      "inputs": [],
      "name": "withdraw",
      "outputs": [],
      "stateMutability": "nonpayable",
      "type": "function"
    }
  ],
  "bytecode": "0x6080604052600b80546001600160a01b0319908116739d582750f758b6a2dc2397669e55a19099aa18ee17909155600c805490911673c049af472eec8ce544765974c7ae88cf2b1333931790553480156200005957600080fd5b506040518060400160405280600881526020016714dd1c99585b504d60c21b8152506040518060400160405280600381526020016214d04d60ea1b815250620000b1620000ab6200013760201b60201c565b6200013b565b8151620000c69060019060208501906200018b565b508051620000dc9060029060208401906200018b565b5050666a94d74f4300006007555060408051808201909152601f8082527f68747470733a2f2f73702e7261642e6c6976652f73747265616d706173732f0060209092019182526200013091600a916200018b565b506200026e565b3390565b600080546001600160a01b038381166001600160a01b0319831681178455604051919092169283917f8be0079c531659141344cd1fd0a4f28419497f9722a3daafe3b4186f6b6457e09190a35050565b828054620001999062000231565b90600052602060002090601f016020900481019282620001bd576000855562000208565b82601f10620001d857805160ff191683800117855562000208565b8280016001018555821562000208579182015b8281111562000208578251825591602001919060010190620001eb565b50620002169291506200021a565b5090565b5b808211156200021657600081556001016200021b565b600181811c908216806200024657607f821691505b602082108114156200026857634e487b7160e01b600052602260045260246000fd5b50919050565b612ed8806200027e6000396000f3fe60806040526004361061031e5760003560e01c8063715018a6116101a5578063a68157cd116100ec578063d0b368a011610095578063e8a3d4851161006f578063e8a3d4851461088c578063e985e9c5146108a1578063f146877a146108ea578063f2fde38b1461090057600080fd5b8063d0b368a01461083a578063d96a094a1461085a578063e081b7811461086d57600080fd5b8063b903364c116100c6578063b903364c146107fa578063c0b3060314610563578063c87b56dd1461081a57600080fd5b8063a68157cd1461079a578063abf23f20146107ba578063b88d4fde146107da57600080fd5b80638da5cb5b1161014e57806395d89b411161012857806395d89b41146107385780639bf803161461074d578063a22cb4651461077a57600080fd5b80638da5cb5b146106da57806391b7f5ed146106f8578063938e3d7b1461071857600080fd5b8063815f7bbd1161017f578063815f7bbd1461068d57806383a9e049146106a057806385535cc5146106ba57600080fd5b8063715018a61461064e57806374601c3c146106635780637bffb4ce1461067857600080fd5b80631b57190e1161026957806342842e0e116102125780635ce7af1f116101ec5780635ce7af1f146105d85780636352211e1461060e57806370a082311461062e57600080fd5b806342842e0e1461057857806355f804b314610598578063568f57e1146105b857600080fd5b80633371bfff116102435780633371bfff1461051e5780633ccfd60b1461054e5780633cef98361461056357600080fd5b80631b57190e146104c8578063215048cd146104de57806323b872dd146104fe57600080fd5b8063095ea7b3116102cb57806310969523116102a55780631096952314610472578063163e1e611461049257806318160ddd146104b257600080fd5b8063095ea7b31461040d5780630f0616271461042d5780630f7309e81461045d57600080fd5b8063051e93dc116102fc578063051e93dc1461038f57806306fdde03146103b3578063081812fc146103d557600080fd5b806301ffc9a714610323578063046dc16614610358578063049c5c491461037a575b600080fd5b34801561032f57600080fd5b5061034361033e3660046128dd565b610920565b60405190151581526020015b60405180910390f35b34801561036457600080fd5b5061037861037336600461291d565b6109bd565b005b34801561038657600080fd5b50610378610a2c565b34801561039b57600080fd5b506103a56126ac81565b60405190815260200161034f565b3480156103bf57600080fd5b506103c8610a91565b60405161034f9190612990565b3480156103e157600080fd5b506103f56103f03660046129a3565b610b23565b6040516001600160a01b03909116815260200161034f565b34801561041957600080fd5b506103786104283660046129bc565b610bab565b34801561043957600080fd5b5061034361044836600461291d565b600d6020526000908152604090205460ff1681565b34801561046957600080fd5b506103c8610cdd565b34801561047e57600080fd5b5061037861048d3660046129e6565b610d6b565b34801561049e57600080fd5b506103786104ad366004612a58565b610dbf565b3480156104be57600080fd5b506103a561271081565b3480156104d457600080fd5b506103a560065481565b3480156104ea57600080fd5b506103786104f936600461291d565b610f37565b34801561050a57600080fd5b50610378610519366004612abb565b610fa0565b34801561052a57600080fd5b5061034361053936600461291d565b600e6020526000908152604090205460ff1681565b34801561055a57600080fd5b50610378611027565b34801561056f57600080fd5b506103a5606481565b34801561058457600080fd5b50610378610593366004612abb565b6110ab565b3480156105a457600080fd5b506103786105b33660046129e6565b6110c6565b3480156105c457600080fd5b506103786105d336600461291d565b61111a565b3480156105e457600080fd5b506103a56105f336600461291d565b6001600160a01b031660009081526010602052604090205490565b34801561061a57600080fd5b506103f56106293660046129a3565b611183565b34801561063a57600080fd5b506103a561064936600461291d565b611223565b34801561065a57600080fd5b50610378611308565b34801561066f57600080fd5b506103a561135c565b34801561068457600080fd5b50610378611373565b61037861069b3660046129a3565b6113cf565b3480156106ac57600080fd5b50600f546103439060ff1681565b3480156106c657600080fd5b506103786106d536600461291d565b6116ad565b3480156106e657600080fd5b506000546001600160a01b03166103f5565b34801561070457600080fd5b506103786107133660046129a3565b611717565b34801561072457600080fd5b506103786107333660046129e6565b611764565b34801561074457600080fd5b506103c86117b8565b34801561075957600080fd5b506103a561076836600461291d565b60106020526000908152604090205481565b34801561078657600080fd5b50610378610795366004612af7565b6117c7565b3480156107a657600080fd5b506103786107b5366004612a58565b61188c565b3480156107c657600080fd5b506103786107d5366004612a58565b6119ac565b3480156107e657600080fd5b506103786107f5366004612b49565b611acc565b34801561080657600080fd5b5061037861081536600461291d565b611b54565b34801561082657600080fd5b506103c86108353660046129a3565b611bc0565b34801561084657600080fd5b5061037861085536600461291d565b611c6f565b6103786108683660046129a3565b611cdb565b34801561087957600080fd5b50600f5461034390610100900460ff1681565b34801561089857600080fd5b506103c8611f11565b3480156108ad57600080fd5b506103436108bc366004612c25565b6001600160a01b03918216600090815260056020908152604080832093909416825291909152205460ff1690565b3480156108f657600080fd5b506103a560075481565b34801561090c57600080fd5b5061037861091b36600461291d565b611f20565b60006001600160e01b031982167f80ac58cd00000000000000000000000000000000000000000000000000000000148061098357506001600160e01b031982167f5b5e139f00000000000000000000000000000000000000000000000000000000145b806109b757507f01ffc9a7000000000000000000000000000000000000000000000000000000006001600160e01b03198316145b92915050565b6000546001600160a01b03163314610a0a5760405162461bcd60e51b81526020600482018190526024820152600080516020612e8383398151915260448201526064015b60405180910390fd5b600b80546001600160a01b0319166001600160a01b0392909216919091179055565b6000546001600160a01b03163314610a745760405162461bcd60e51b81526020600482018190526024820152600080516020612e838339815191526044820152606401610a01565b600f805461ff001981166101009182900460ff1615909102179055565b606060018054610aa090612c58565b80601f0160208091040260200160405190810160405280929190818152602001828054610acc90612c58565b8015610b195780601f10610aee57610100808354040283529160200191610b19565b820191906000526020600020905b815481529060010190602001808311610afc57829003601f168201915b5050505050905090565b6000610b2e82611fed565b610b8f5760405162461bcd60e51b815260206004820152602c60248201527f4552433732313a20617070726f76656420717565727920666f72206e6f6e657860448201526b34b9ba32b73a103a37b5b2b760a11b6064820152608401610a01565b506000908152600460205260409020546001600160a01b031690565b6000610bb682611183565b9050806001600160a01b0316836001600160a01b03161415610c405760405162461bcd60e51b815260206004820152602160248201527f4552433732313a20617070726f76616c20746f2063757272656e74206f776e6560448201527f72000000000000000000000000000000000000000000000000000000000000006064820152608401610a01565b336001600160a01b0382161480610c5c5750610c5c81336108bc565b610cce5760405162461bcd60e51b815260206004820152603860248201527f4552433732313a20617070726f76652063616c6c6572206973206e6f74206f7760448201527f6e6572206e6f7220617070726f76656420666f7220616c6c00000000000000006064820152608401610a01565b610cd88383612037565b505050565b60088054610cea90612c58565b80601f0160208091040260200160405190810160405280929190818152602001828054610d1690612c58565b8015610d635780601f10610d3857610100808354040283529160200191610d63565b820191906000526020600020905b815481529060010190602001808311610d4657829003601f168201915b505050505081565b6000546001600160a01b03163314610db35760405162461bcd60e51b81526020600482018190526024820152600080516020612e838339815191526044820152606401610a01565b610cd86008838361282e565b6000546001600160a01b03163314610e075760405162461bcd60e51b81526020600482018190526024820152600080516020612e838339815191526044820152606401610a01565b600354612710610e178383612ca9565b1115610e655760405162461bcd60e51b815260206004820152600860248201527f4d41585f4d494e540000000000000000000000000000000000000000000000006044820152606401610a01565b600654606490610e76908490612ca9565b1115610ec45760405162461bcd60e51b815260206004820152600860248201527f4e4f5f47494654530000000000000000000000000000000000000000000000006044820152606401610a01565b60005b82811015610f315760068054906000610edf83612cc1565b9190505550610f1f848483818110610ef957610ef9612cdc565b9050602002016020810190610f0e919061291d565b83610f1881612cc1565b94506120a5565b80610f2981612cc1565b915050610ec7565b50505050565b6000546001600160a01b03163314610f7f5760405162461bcd60e51b81526020600482018190526024820152600080516020612e838339815191526044820152606401610a01565b6001600160a01b03166000908152600e60205260409020805460ff19169055565b610faa33826120c3565b61101c5760405162461bcd60e51b815260206004820152603160248201527f4552433732313a207472616e736665722063616c6c6572206973206e6f74206f60448201527f776e6572206e6f7220617070726f7665640000000000000000000000000000006064820152608401610a01565b610cd88383836121ad565b6000546001600160a01b0316331461106f5760405162461bcd60e51b81526020600482018190526024820152600080516020612e838339815191526044820152606401610a01565b600c546040516001600160a01b03909116904780156108fc02916000818181858888f193505050501580156110a8573d6000803e3d6000fd5b50565b610cd883838360405180602001604052806000815250611acc565b6000546001600160a01b0316331461110e5760405162461bcd60e51b81526020600482018190526024820152600080516020612e838339815191526044820152606401610a01565b610cd8600a838361282e565b6000546001600160a01b031633146111625760405162461bcd60e51b81526020600482018190526024820152600080516020612e838339815191526044820152606401610a01565b6001600160a01b03166000908152600d60205260409020805460ff19169055565b6000806003838154811061119957611199612cdc565b6000918252602090912001546001600160a01b03169050806109b75760405162461bcd60e51b815260206004820152602960248201527f4552433732313a206f776e657220717565727920666f72206e6f6e657869737460448201527f656e7420746f6b656e00000000000000000000000000000000000000000000006064820152608401610a01565b60006001600160a01b0382166112a15760405162461bcd60e51b815260206004820152602a60248201527f4552433732313a2062616c616e636520717565727920666f7220746865207a6560448201527f726f2061646472657373000000000000000000000000000000000000000000006064820152608401610a01565b600354600090815b818110156112ff57600381815481106112c4576112c4612cdc565b6000918252602090912001546001600160a01b03868116911614156112ef576112ec83612cc1565b92505b6112f881612cc1565b90506112a9565b50909392505050565b6000546001600160a01b031633146113505760405162461bcd60e51b81526020600482018190526024820152600080516020612e838339815191526044820152606401610a01565b61135a6000612330565b565b60035460009061136e90612710612cf2565b905090565b6000546001600160a01b031633146113bb5760405162461bcd60e51b81526020600482018190526024820152600080516020612e838339815191526044820152606401610a01565b600f805460ff19811660ff90911615179055565b600f54610100900460ff161580156113e95750600f5460ff165b6114355760405162461bcd60e51b815260206004820152600e60248201527f50524553414c455f434c4f5345440000000000000000000000000000000000006044820152606401610a01565b33600090815260106020526040902054606490611453908390612ca9565b11156114a15760405162461bcd60e51b815260206004820152600c60248201527f4558434545445f414c4c4f4300000000000000000000000000000000000000006044820152606401610a01565b60648111156114f25760405162461bcd60e51b815260206004820152601260248201527f4558434545445f46525f5045525f4d494e5400000000000000000000000000006044820152606401610a01565b34816007546115019190612d09565b111561154f5760405162461bcd60e51b815260206004820152601060248201527f494e53554646494349454e545f455448000000000000000000000000000000006044820152606401610a01565b6003546126ac61155f8383612ca9565b11156115ad5760405162461bcd60e51b815260206004820152601660248201527f4558434545445f4d41585f53414c455f535550504c59000000000000000000006044820152606401610a01565b336000908152600d602052604090205460ff166116015760405162461bcd60e51b81526020600482015260126024820152712727aa2fa0a8282927ab22a22fa12aaca2a960711b6044820152606401610a01565b336000908152600e602052604090205460ff16156116565760405162461bcd60e51b81526020600482015260126024820152712727aa2fa0a8282927ab22a22fa12aaca2a960711b6044820152606401610a01565b3360009081526010602052604081208054849290611675908490612ca9565b90915550600090505b82811015610cd85761169b338361169481612cc1565b9450612380565b806116a581612cc1565b91505061167e565b6000546001600160a01b031633146116f55760405162461bcd60e51b81526020600482018190526024820152600080516020612e838339815191526044820152606401610a01565b600c80546001600160a01b0319166001600160a01b0392909216919091179055565b6000546001600160a01b0316331461175f5760405162461bcd60e51b81526020600482018190526024820152600080516020612e838339815191526044820152606401610a01565b600755565b6000546001600160a01b031633146117ac5760405162461bcd60e51b81526020600482018190526024820152600080516020612e838339815191526044820152606401610a01565b610cd86009838361282e565b606060028054610aa090612c58565b6001600160a01b0382163314156118205760405162461bcd60e51b815260206004820152601960248201527f4552433732313a20617070726f766520746f2063616c6c6572000000000000006044820152606401610a01565b3360008181526005602090815260408083206001600160a01b03871680855290835292819020805460ff191686151590811790915590519081529192917f17307eab39ab6107e8899845ad3d59bd9653f200f220920489ca2b5937696c31910160405180910390a35050565b6000546001600160a01b031633146118d45760405162461bcd60e51b81526020600482018190526024820152600080516020612e838339815191526044820152606401610a01565b61271081111561193a5760405162461bcd60e51b815260206004820152602b60248201527f50726f76696465206c6573732061646472657373657320696e206f6e6520667560448201526a1b98dd1a5bdb8818d85b1b60aa1b6064820152608401610a01565b60005b81811015610cd8576001600d600085858581811061195d5761195d612cdc565b9050602002016020810190611972919061291d565b6001600160a01b031681526020810191909152604001600020805460ff1916911515919091179055806119a481612cc1565b91505061193d565b6000546001600160a01b031633146119f45760405162461bcd60e51b81526020600482018190526024820152600080516020612e838339815191526044820152606401610a01565b612710811115611a5a5760405162461bcd60e51b815260206004820152602b60248201527f50726f76696465206c6573732061646472657373657320696e206f6e6520667560448201526a1b98dd1a5bdb8818d85b1b60aa1b6064820152608401610a01565b60005b81811015610cd8576000600d6000858585818110611a7d57611a7d612cdc565b9050602002016020810190611a92919061291d565b6001600160a01b031681526020810191909152604001600020805460ff191691151591909117905580611ac481612cc1565b915050611a5d565b611ad633836120c3565b611b485760405162461bcd60e51b815260206004820152603160248201527f4552433732313a207472616e736665722063616c6c6572206973206e6f74206f60448201527f776e6572206e6f7220617070726f7665640000000000000000000000000000006064820152608401610a01565b610f31848484846124a8565b6000546001600160a01b03163314611b9c5760405162461bcd60e51b81526020600482018190526024820152600080516020612e838339815191526044820152606401610a01565b6001600160a01b03166000908152600e60205260409020805460ff19166001179055565b6060611bcb82611fed565b611c3d5760405162461bcd60e51b815260206004820152602f60248201527f4552433732314d657461646174613a2055524920717565727920666f72206e6f60448201527f6e6578697374656e7420746f6b656e00000000000000000000000000000000006064820152608401610a01565b600a611c4883612526565b604051602001611c59929190612d44565b6040516020818303038152906040529050919050565b6000546001600160a01b03163314611cb75760405162461bcd60e51b81526020600482018190526024820152600080516020612e838339815191526044820152606401610a01565b6001600160a01b03166000908152600d60205260409020805460ff19166001179055565b600f54610100900460ff16611d325760405162461bcd60e51b815260206004820152600b60248201527f53414c455f434c4f5345440000000000000000000000000000000000000000006044820152606401610a01565b600f5460ff1615611d855760405162461bcd60e51b815260206004820152600c60248201527f4f4e4c595f50524553414c4500000000000000000000000000000000000000006044820152606401610a01565b6064811115611dd65760405162461bcd60e51b815260206004820152601260248201527f4558434545445f46525f5045525f4d494e5400000000000000000000000000006044820152606401610a01565b3481600754611de59190612d09565b1115611e335760405162461bcd60e51b815260206004820152601060248201527f494e53554646494349454e545f455448000000000000000000000000000000006044820152606401610a01565b336000908152600e602052604090205460ff1615611e885760405162461bcd60e51b81526020600482015260126024820152712727aa2fa0a8282927ab22a22fa12aaca2a960711b6044820152606401610a01565b6003546126ac611e988383612ca9565b1115611ee65760405162461bcd60e51b815260206004820152601660248201527f4558434545445f4d41585f53414c455f535550504c59000000000000000000006044820152606401610a01565b60005b82811015610cd857611eff338361169481612cc1565b80611f0981612cc1565b915050611ee9565b606060098054610aa090612c58565b6000546001600160a01b03163314611f685760405162461bcd60e51b81526020600482018190526024820152600080516020612e838339815191526044820152606401610a01565b6001600160a01b038116611fe45760405162461bcd60e51b815260206004820152602660248201527f4f776e61626c653a206e6577206f776e657220697320746865207a65726f206160448201527f64647265737300000000000000000000000000000000000000000000000000006064820152608401610a01565b6110a881612330565b600354600090821080156109b7575060006001600160a01b03166003838154811061201a5761201a612cdc565b6000918252602090912001546001600160a01b0316141592915050565b600081815260046020526040902080546001600160a01b0319166001600160a01b038416908117909155819061206c82611183565b6001600160a01b03167f8c5be1e5ebec7d5bd14f71427d1e84f3dd0314c0f7b2291e5b200ac8c7c3b92560405160405180910390a45050565b6120bf828260405180602001604052806000815250612658565b5050565b60006120ce82611fed565b61212f5760405162461bcd60e51b815260206004820152602c60248201527f4552433732313a206f70657261746f7220717565727920666f72206e6f6e657860448201526b34b9ba32b73a103a37b5b2b760a11b6064820152608401610a01565b600061213a83611183565b9050806001600160a01b0316846001600160a01b031614806121755750836001600160a01b031661216a84610b23565b6001600160a01b0316145b806121a557506001600160a01b0380821660009081526005602090815260408083209388168352929052205460ff165b949350505050565b826001600160a01b03166121c082611183565b6001600160a01b03161461223c5760405162461bcd60e51b815260206004820152602960248201527f4552433732313a207472616e73666572206f6620746f6b656e2074686174206960448201527f73206e6f74206f776e00000000000000000000000000000000000000000000006064820152608401610a01565b6001600160a01b0382166122b75760405162461bcd60e51b8152602060048201526024808201527f4552433732313a207472616e7366657220746f20746865207a65726f2061646460448201527f72657373000000000000000000000000000000000000000000000000000000006064820152608401610a01565b6122c2600082612037565b81600382815481106122d6576122d6612cdc565b6000918252602082200180546001600160a01b0319166001600160a01b03938416179055604051839285811692908716917fddf252ad1be2c89b69c2b068fc378daa952ba7f163c4a11628f55a4df523b3ef9190a4505050565b600080546001600160a01b038381166001600160a01b0319831681178455604051919092169283917f8be0079c531659141344cd1fd0a4f28419497f9722a3daafe3b4186f6b6457e09190a35050565b6001600160a01b0382166123d65760405162461bcd60e51b815260206004820181905260248201527f4552433732313a206d696e7420746f20746865207a65726f20616464726573736044820152606401610a01565b6123df81611fed565b1561242c5760405162461bcd60e51b815260206004820152601c60248201527f4552433732313a20746f6b656e20616c7265616479206d696e746564000000006044820152606401610a01565b6003805460018101825560009182527fc2575a0e9e593c00f959f8c92f12db2869c3395a3b0502d05e2516446f71f85b0180546001600160a01b0319166001600160a01b0385169081179091556040518392907fddf252ad1be2c89b69c2b068fc378daa952ba7f163c4a11628f55a4df523b3ef908290a45050565b6124b38484846121ad565b6124bf848484846126d6565b610f315760405162461bcd60e51b815260206004820152603260248201527f4552433732313a207472616e7366657220746f206e6f6e20455243373231526560448201527131b2b4bb32b91034b6b83632b6b2b73a32b960711b6064820152608401610a01565b60608161256657505060408051808201909152600181527f3000000000000000000000000000000000000000000000000000000000000000602082015290565b8160005b8115612590578061257a81612cc1565b91506125899050600a83612e01565b915061256a565b60008167ffffffffffffffff8111156125ab576125ab612b33565b6040519080825280601f01601f1916602001820160405280156125d5576020820181803683370190505b5090505b84156121a5576125ea600183612cf2565b91506125f7600a86612e15565b612602906030612ca9565b60f81b81838151811061261757612617612cdc565b60200101907effffffffffffffffffffffffffffffffffffffffffffffffffffffffffffff1916908160001a905350612651600a86612e01565b94506125d9565b6126628383612380565b61266f60008484846126d6565b610cd85760405162461bcd60e51b815260206004820152603260248201527f4552433732313a207472616e7366657220746f206e6f6e20455243373231526560448201527131b2b4bb32b91034b6b83632b6b2b73a32b960711b6064820152608401610a01565b60006001600160a01b0384163b1561282357604051630a85bd0160e11b81526001600160a01b0385169063150b7a029061271a903390899088908890600401612e29565b602060405180830381600087803b15801561273457600080fd5b505af1925050508015612764575060408051601f3d908101601f1916820190925261276191810190612e65565b60015b612809573d808015612792576040519150601f19603f3d011682016040523d82523d6000602084013e612797565b606091505b5080516128015760405162461bcd60e51b815260206004820152603260248201527f4552433732313a207472616e7366657220746f206e6f6e20455243373231526560448201527131b2b4bb32b91034b6b83632b6b2b73a32b960711b6064820152608401610a01565b805181602001fd5b6001600160e01b031916630a85bd0160e11b1490506121a5565b506001949350505050565b82805461283a90612c58565b90600052602060002090601f01602090048101928261285c57600085556128a2565b82601f106128755782800160ff198235161785556128a2565b828001600101855582156128a2579182015b828111156128a2578235825591602001919060010190612887565b506128ae9291506128b2565b5090565b5b808211156128ae57600081556001016128b3565b6001600160e01b0319811681146110a857600080fd5b6000602082840312156128ef57600080fd5b81356128fa816128c7565b9392505050565b80356001600160a01b038116811461291857600080fd5b919050565b60006020828403121561292f57600080fd5b6128fa82612901565b60005b8381101561295357818101518382015260200161293b565b83811115610f315750506000910152565b6000815180845261297c816020860160208601612938565b601f01601f19169290920160200192915050565b6020815260006128fa6020830184612964565b6000602082840312156129b557600080fd5b5035919050565b600080604083850312156129cf57600080fd5b6129d883612901565b946020939093013593505050565b600080602083850312156129f957600080fd5b823567ffffffffffffffff80821115612a1157600080fd5b818501915085601f830112612a2557600080fd5b813581811115612a3457600080fd5b866020828501011115612a4657600080fd5b60209290920196919550909350505050565b60008060208385031215612a6b57600080fd5b823567ffffffffffffffff80821115612a8357600080fd5b818501915085601f830112612a9757600080fd5b813581811115612aa657600080fd5b8660208260051b8501011115612a4657600080fd5b600080600060608486031215612ad057600080fd5b612ad984612901565b9250612ae760208501612901565b9150604084013590509250925092565b60008060408385031215612b0a57600080fd5b612b1383612901565b915060208301358015158114612b2857600080fd5b809150509250929050565b634e487b7160e01b600052604160045260246000fd5b60008060008060808587031215612b5f57600080fd5b612b6885612901565b9350612b7660208601612901565b925060408501359150606085013567ffffffffffffffff80821115612b9a57600080fd5b818701915087601f830112612bae57600080fd5b813581811115612bc057612bc0612b33565b604051601f8201601f19908116603f01168101908382118183101715612be857612be8612b33565b816040528281528a6020848701011115612c0157600080fd5b82602086016020830137600060208483010152809550505050505092959194509250565b60008060408385031215612c3857600080fd5b612c4183612901565b9150612c4f60208401612901565b90509250929050565b600181811c90821680612c6c57607f821691505b60208210811415612c8d57634e487b7160e01b600052602260045260246000fd5b50919050565b634e487b7160e01b600052601160045260246000fd5b60008219821115612cbc57612cbc612c93565b500190565b6000600019821415612cd557612cd5612c93565b5060010190565b634e487b7160e01b600052603260045260246000fd5b600082821015612d0457612d04612c93565b500390565b6000816000190483118215151615612d2357612d23612c93565b500290565b60008151612d3a818560208601612938565b9290920192915050565b600080845481600182811c915080831680612d6057607f831692505b6020808410821415612d8057634e487b7160e01b86526022600452602486fd5b818015612d945760018114612da557612dd2565b60ff19861689528489019650612dd2565b60008b81526020902060005b86811015612dca5781548b820152908501908301612db1565b505084890196505b505050505050612de28185612d28565b95945050505050565b634e487b7160e01b600052601260045260246000fd5b600082612e1057612e10612deb565b500490565b600082612e2457612e24612deb565b500690565b60006001600160a01b03808716835280861660208401525083604083015260806060830152612e5b6080830184612964565b9695505050505050565b600060208284031215612e7757600080fd5b81516128fa816128c756fe4f776e61626c653a2063616c6c6572206973206e6f7420746865206f776e6572a26469706673582212203f85a1bf02457e9026f5561e32d32bb2980db5916d49ae2853b45f7f6eaa163c64736f6c63430008090033",
  "linkReferences": {},
  "deployedLinkReferences": {}
}