{
  "_format": "hh-sol-artifact-1",
  "contractName": "StreamA",
  "sourceName": "contracts/StreamA.sol",
  "abi": [
    {
      "inputs": [],
      "stateMutability": "nonpayable",
      "type": "constructor"
    },
    {
      "anonymous": false,
      "inputs": [
        {
          "indexed": true,
          "internalType": "address",
          "name": "owner",
          "type": "address"
        },
        {
          "indexed": true,
          "internalType": "address",
          "name": "approved",
          "type": "address"
        },
        {
          "indexed": true,
          "internalType": "uint256",
          "name": "tokenId",
          "type": "uint256"
        }
      ],
      "name": "Approval",
      "type": "event"
    },
    {
      "anonymous": false,
      "inputs": [
        {
          "indexed": true,
          "internalType": "address",
          "name": "owner",
          "type": "address"
        },
        {
          "indexed": true,
          "internalType": "address",
          "name": "operator",
          "type": "address"
        },
        {
          "indexed": false,
          "internalType": "bool",
          "name": "approved",
          "type": "bool"
        }
      ],
      "name": "ApprovalForAll",
      "type": "event"
    },
    {
      "anonymous": false,
      "inputs": [
        {
          "indexed": true,
          "internalType": "address",
          "name": "previousOwner",
          "type": "address"
        },
        {
          "indexed": true,
          "internalType": "address",
          "name": "newOwner",
          "type": "address"
        }
      ],
      "name": "OwnershipTransferred",
      "type": "event"
    },
    {
      "anonymous": false,
      "inputs": [
        {
          "indexed": true,
          "internalType": "address",
          "name": "from",
          "type": "address"
        },
        {
          "indexed": true,
          "internalType": "address",
          "name": "to",
          "type": "address"
        },
        {
          "indexed": true,
          "internalType": "uint256",
          "name": "tokenId",
          "type": "uint256"
        }
      ],
      "name": "Transfer",
      "type": "event"
    },
    {
      "inputs": [],
      "name": "FR_GIFT",
      "outputs": [
        {
          "internalType": "uint256",
          "name": "",
          "type": "uint256"
        }
      ],
      "stateMutability": "view",
      "type": "function"
    },
    {
      "inputs": [],
      "name": "FR_MAX",
      "outputs": [
        {
          "internalType": "uint256",
          "name": "",
          "type": "uint256"
        }
      ],
      "stateMutability": "view",
      "type": "function"
    },
    {
      "inputs": [],
      "name": "FR_PER_MINT",
      "outputs": [
        {
          "internalType": "uint256",
          "name": "",
          "type": "uint256"
        }
      ],
      "stateMutability": "view",
      "type": "function"
    },
    {
      "inputs": [],
      "name": "FR_PRICE",
      "outputs": [
        {
          "internalType": "uint256",
          "name": "",
          "type": "uint256"
        }
      ],
      "stateMutability": "view",
      "type": "function"
    },
    {
      "inputs": [],
      "name": "FR_PUBLIC",
      "outputs": [
        {
          "internalType": "uint256",
          "name": "",
          "type": "uint256"
        }
      ],
      "stateMutability": "view",
      "type": "function"
    },
    {
      "inputs": [
        {
          "internalType": "address[]",
          "name": "_addresses",
          "type": "address[]"
        }
      ],
      "name": "addMultipleToApproveList",
      "outputs": [],
      "stateMutability": "nonpayable",
      "type": "function"
    },
    {
      "inputs": [
        {
          "internalType": "address",
          "name": "_newAddress",
          "type": "address"
        }
      ],
      "name": "addToApproveList",
      "outputs": [],
      "stateMutability": "nonpayable",
      "type": "function"
    },
    {
      "inputs": [
        {
          "internalType": "address",
          "name": "_newAddress",
          "type": "address"
        }
      ],
      "name": "addToDenyList",
      "outputs": [],
      "stateMutability": "nonpayable",
      "type": "function"
    },
    {
      "inputs": [
        {
          "internalType": "address",
          "name": "to",
          "type": "address"
        },
        {
          "internalType": "uint256",
          "name": "tokenId",
          "type": "uint256"
        }
      ],
      "name": "approve",
      "outputs": [],
      "stateMutability": "nonpayable",
      "type": "function"
    },
    {
      "inputs": [
        {
          "internalType": "address",
          "name": "",
          "type": "address"
        }
      ],
      "name": "approvelist",
      "outputs": [
        {
          "internalType": "bool",
          "name": "",
          "type": "bool"
        }
      ],
      "stateMutability": "view",
      "type": "function"
    },
    {
      "inputs": [
        {
          "internalType": "address",
          "name": "owner",
          "type": "address"
        }
      ],
      "name": "balanceOf",
      "outputs": [
        {
          "internalType": "uint256",
          "name": "",
          "type": "uint256"
        }
      ],
      "stateMutability": "view",
      "type": "function"
    },
    {
      "inputs": [
        {
          "internalType": "uint256",
          "name": "tokenQuantity",
          "type": "uint256"
        }
      ],
      "name": "buy",
      "outputs": [],
      "stateMutability": "payable",
      "type": "function"
    },
    {
      "inputs": [],
      "name": "contractURI",
      "outputs": [
        {
          "internalType": "string",
          "name": "",
          "type": "string"
        }
      ],
      "stateMutability": "view",
      "type": "function"
    },
    {
      "inputs": [
        {
          "internalType": "address",
          "name": "",
          "type": "address"
        }
      ],
      "name": "denylist",
      "outputs": [
        {
          "internalType": "bool",
          "name": "",
          "type": "bool"
        }
      ],
      "stateMutability": "view",
      "type": "function"
    },
    {
      "inputs": [
        {
          "internalType": "uint256",
          "name": "tokenId",
          "type": "uint256"
        }
      ],
      "name": "getApproved",
      "outputs": [
        {
          "internalType": "address",
          "name": "",
          "type": "address"
        }
      ],
      "stateMutability": "view",
      "type": "function"
    },
    {
      "inputs": [
        {
          "internalType": "address[]",
          "name": "receivers",
          "type": "address[]"
        }
      ],
      "name": "gift",
      "outputs": [],
      "stateMutability": "nonpayable",
      "type": "function"
    },
    {
      "inputs": [],
      "name": "giftedAmount",
      "outputs": [
        {
          "internalType": "uint256",
          "name": "",
          "type": "uint256"
        }
      ],
      "stateMutability": "view",
      "type": "function"
    },
    {
      "inputs": [
        {
          "internalType": "address",
          "name": "owner",
          "type": "address"
        },
        {
          "internalType": "address",
          "name": "operator",
          "type": "address"
        }
      ],
      "name": "isApprovedForAll",
      "outputs": [
        {
          "internalType": "bool",
          "name": "",
          "type": "bool"
        }
      ],
      "stateMutability": "view",
      "type": "function"
    },
    {
      "inputs": [],
      "name": "name",
      "outputs": [
        {
          "internalType": "string",
          "name": "",
          "type": "string"
        }
      ],
      "stateMutability": "view",
      "type": "function"
    },
    {
      "inputs": [],
      "name": "owner",
      "outputs": [
        {
          "internalType": "address",
          "name": "",
          "type": "address"
        }
      ],
      "stateMutability": "view",
      "type": "function"
    },
    {
      "inputs": [
        {
          "internalType": "uint256",
          "name": "tokenId",
          "type": "uint256"
        }
      ],
      "name": "ownerOf",
      "outputs": [
        {
          "internalType": "address",
          "name": "",
          "type": "address"
        }
      ],
      "stateMutability": "view",
      "type": "function"
    },
    {
      "inputs": [
        {
          "internalType": "uint256",
          "name": "tokenQuantity",
          "type": "uint256"
        }
      ],
      "name": "presaleBuy",
      "outputs": [],
      "stateMutability": "payable",
      "type": "function"
    },
    {
      "inputs": [],
      "name": "presaleLive",
      "outputs": [
        {
          "internalType": "bool",
          "name": "",
          "type": "bool"
        }
      ],
      "stateMutability": "view",
      "type": "function"
    },
    {
      "inputs": [
        {
          "internalType": "address",
          "name": "addr",
          "type": "address"
        }
      ],
      "name": "presalePurchasedCount",
      "outputs": [
        {
          "internalType": "uint256",
          "name": "",
          "type": "uint256"
        }
      ],
      "stateMutability": "view",
      "type": "function"
    },
    {
      "inputs": [
        {
          "internalType": "address",
          "name": "",
          "type": "address"
        }
      ],
      "name": "presalerListPurchases",
      "outputs": [
        {
          "internalType": "uint256",
          "name": "",
          "type": "uint256"
        }
      ],
      "stateMutability": "view",
      "type": "function"
    },
    {
      "inputs": [],
      "name": "provenance",
      "outputs": [
        {
          "internalType": "string",
          "name": "",
          "type": "string"
        }
      ],
      "stateMutability": "view",
      "type": "function"
    },
    {
      "inputs": [
        {
          "internalType": "address",
          "name": "_address",
          "type": "address"
        }
      ],
      "name": "removeFromApproveList",
      "outputs": [],
      "stateMutability": "nonpayable",
      "type": "function"
    },
    {
      "inputs": [
        {
          "internalType": "address",
          "name": "_address",
          "type": "address"
        }
      ],
      "name": "removeFromDenyList",
      "outputs": [],
      "stateMutability": "nonpayable",
      "type": "function"
    },
    {
      "inputs": [
        {
          "internalType": "address[]",
          "name": "_addresses",
          "type": "address[]"
        }
      ],
      "name": "removeMultipleFromApproveList",
      "outputs": [],
      "stateMutability": "nonpayable",
      "type": "function"
    },
    {
      "inputs": [],
      "name": "renounceOwnership",
      "outputs": [],
      "stateMutability": "nonpayable",
      "type": "function"
    },
    {
      "inputs": [
        {
          "internalType": "address",
          "name": "from",
          "type": "address"
        },
        {
          "internalType": "address",
          "name": "to",
          "type": "address"
        },
        {
          "internalType": "uint256",
          "name": "tokenId",
          "type": "uint256"
        }
      ],
      "name": "safeTransferFrom",
      "outputs": [],
      "stateMutability": "nonpayable",
      "type": "function"
    },
    {
      "inputs": [
        {
          "internalType": "address",
          "name": "from",
          "type": "address"
        },
        {
          "internalType": "address",
          "name": "to",
          "type": "address"
        },
        {
          "internalType": "uint256",
          "name": "tokenId",
          "type": "uint256"
        },
        {
          "internalType": "bytes",
          "name": "_data",
          "type": "bytes"
        }
      ],
      "name": "safeTransferFrom",
      "outputs": [],
      "stateMutability": "nonpayable",
      "type": "function"
    },
    {
      "inputs": [],
      "name": "saleLive",
      "outputs": [
        {
          "internalType": "bool",
          "name": "",
          "type": "bool"
        }
      ],
      "stateMutability": "view",
      "type": "function"
    },
    {
      "inputs": [
        {
          "internalType": "address",
          "name": "operator",
          "type": "address"
        },
        {
          "internalType": "bool",
          "name": "approved",
          "type": "bool"
        }
      ],
      "name": "setApprovalForAll",
      "outputs": [],
      "stateMutability": "nonpayable",
      "type": "function"
    },
    {
      "inputs": [
        {
          "internalType": "string",
          "name": "URI",
          "type": "string"
        }
      ],
      "name": "setBaseURI",
      "outputs": [],
      "stateMutability": "nonpayable",
      "type": "function"
    },
    {
      "inputs": [
        {
          "internalType": "string",
          "name": "URI",
          "type": "string"
        }
      ],
      "name": "setContractURI",
      "outputs": [],
      "stateMutability": "nonpayable",
      "type": "function"
    },
    {
      "inputs": [
        {
          "internalType": "string",
          "name": "hash",
          "type": "string"
        }
      ],
      "name": "setProvenanceHash",
      "outputs": [],
      "stateMutability": "nonpayable",
      "type": "function"
    },
    {
      "inputs": [
        {
          "internalType": "address",
          "name": "addr",
          "type": "address"
        }
      ],
      "name": "setSignerAddress",
      "outputs": [],
      "stateMutability": "nonpayable",
      "type": "function"
    },
    {
      "inputs": [
        {
          "internalType": "address",
          "name": "addr",
          "type": "address"
        }
      ],
      "name": "setVaultAddress",
      "outputs": [],
      "stateMutability": "nonpayable",
      "type": "function"
    },
    {
      "inputs": [
        {
          "internalType": "bytes4",
          "name": "interfaceId",
          "type": "bytes4"
        }
      ],
      "name": "supportsInterface",
      "outputs": [
        {
          "internalType": "bool",
          "name": "",
          "type": "bool"
        }
      ],
      "stateMutability": "view",
      "type": "function"
    },
    {
      "inputs": [],
      "name": "symbol",
      "outputs": [
        {
          "internalType": "string",
          "name": "",
          "type": "string"
        }
      ],
      "stateMutability": "view",
      "type": "function"
    },
    {
      "inputs": [],
      "name": "togglePresaleStatus",
      "outputs": [],
      "stateMutability": "nonpayable",
      "type": "function"
    },
    {
      "inputs": [],
      "name": "toggleSaleStatus",
      "outputs": [],
      "stateMutability": "nonpayable",
      "type": "function"
    },
    {
      "inputs": [
        {
          "internalType": "uint256",
          "name": "tokenId",
          "type": "uint256"
        }
      ],
      "name": "tokenURI",
      "outputs": [
        {
          "internalType": "string",
          "name": "",
          "type": "string"
        }
      ],
      "stateMutability": "view",
      "type": "function"
    },
    {
      "inputs": [
        {
          "internalType": "address",
          "name": "from",
          "type": "address"
        },
        {
          "internalType": "address",
          "name": "to",
          "type": "address"
        },
        {
          "internalType": "uint256",
          "name": "tokenId",
          "type": "uint256"
        }
      ],
      "name": "transferFrom",
      "outputs": [],
      "stateMutability": "nonpayable",
      "type": "function"
    },
    {
      "inputs": [
        {
          "internalType": "address",
          "name": "newOwner",
          "type": "address"
        }
      ],
      "name": "transferOwnership",
      "outputs": [],
      "stateMutability": "nonpayable",
      "type": "function"
    },
    {
      "inputs": [],
      "name": "withdraw",
      "outputs": [],
      "stateMutability": "nonpayable",
      "type": "function"
    }
  ],
  "bytecode": "0x6080604052600a80546001600160a01b0319908116739d582750f758b6a2dc2397669e55a19099aa18ee17909155600b805490911673c049af472eec8ce544765974c7ae88cf2b1333931790553480156200005957600080fd5b506040518060400160405280600881526020016753747265616d413160c01b8152506040518060400160405280600381526020016253413160e81b815250620000b1620000ab620000e560201b60201c565b620000e9565b8151620000c690600190602085019062000139565b508051620000dc90600290602084019062000139565b5050506200021c565b3390565b600080546001600160a01b038381166001600160a01b0319831681178455604051919092169283917f8be0079c531659141344cd1fd0a4f28419497f9722a3daafe3b4186f6b6457e09190a35050565b8280546200014790620001df565b90600052602060002090601f0160209004810192826200016b5760008555620001b6565b82601f106200018657805160ff1916838001178555620001b6565b82800160010185558215620001b6579182015b82811115620001b657825182559160200191906001019062000199565b50620001c4929150620001c8565b5090565b5b80821115620001c45760008155600101620001c9565b600181811c90821680620001f457607f821691505b602082108114156200021657634e487b7160e01b600052602260045260246000fd5b50919050565b612e34806200022c6000396000f3fe6080604052600436106103085760003560e01c8063715018a61161019a578063b88d4fde116100e1578063d96a094a1161008a578063e985e9c511610064578063e985e9c514610856578063f146877a1461089f578063f2fde38b146108ba57600080fd5b8063d96a094a1461080f578063e081b78114610822578063e8a3d4851461084157600080fd5b8063c309d8b8116100bb578063c309d8b8146107b9578063c87b56dd146107cf578063d0b368a0146107ef57600080fd5b8063b88d4fde14610779578063b903364c14610799578063c0b306031461053757600080fd5b8063938e3d7b11610143578063a22cb4651161011d578063a22cb46514610719578063a68157cd14610739578063abf23f201461075957600080fd5b8063938e3d7b146106b757806395d89b41146106d75780639bf80316146106ec57600080fd5b806383a9e0491161017457806383a9e0491461065f57806385535cc5146106795780638da5cb5b1461069957600080fd5b8063715018a6146106225780637bffb4ce14610637578063815f7bbd1461064c57600080fd5b80631b57190e1161025e57806342842e0e116102075780635ce7af1f116101e15780635ce7af1f146105ac5780636352211e146105e257806370a082311461060257600080fd5b806342842e0e1461054c57806355f804b31461056c578063568f57e11461058c57600080fd5b80633371bfff116102385780633371bfff146104f25780633ccfd60b146105225780633cef98361461053757600080fd5b80631b57190e1461049c578063215048cd146104b257806323b872dd146104d257600080fd5b8063081812fc116102c05780630f7309e81161029a5780630f7309e814610447578063109695231461045c578063163e1e611461047c57600080fd5b8063081812fc146103bf578063095ea7b3146103f75780630f0616271461041757600080fd5b8063049c5c49116102f1578063049c5c4914610364578063051e93dc1461037957806306fdde031461039d57600080fd5b806301ffc9a71461030d578063046dc16614610342575b600080fd5b34801561031957600080fd5b5061032d610328366004612839565b6108da565b60405190151581526020015b60405180910390f35b34801561034e57600080fd5b5061036261035d366004612879565b610977565b005b34801561037057600080fd5b506103626109e6565b34801561038557600080fd5b5061038f6126ac81565b604051908152602001610339565b3480156103a957600080fd5b506103b2610a4b565b60405161033991906128ec565b3480156103cb57600080fd5b506103df6103da3660046128ff565b610add565b6040516001600160a01b039091168152602001610339565b34801561040357600080fd5b50610362610412366004612918565b610b65565b34801561042357600080fd5b5061032d610432366004612879565b600c6020526000908152604090205460ff1681565b34801561045357600080fd5b506103b2610c97565b34801561046857600080fd5b50610362610477366004612942565b610d25565b34801561048857600080fd5b506103626104973660046129b4565b610d79565b3480156104a857600080fd5b5061038f60065481565b3480156104be57600080fd5b506103626104cd366004612879565b610ef1565b3480156104de57600080fd5b506103626104ed366004612a17565b610f5a565b3480156104fe57600080fd5b5061032d61050d366004612879565b600d6020526000908152604090205460ff1681565b34801561052e57600080fd5b50610362610fe1565b34801561054357600080fd5b5061038f606481565b34801561055857600080fd5b50610362610567366004612a17565b611065565b34801561057857600080fd5b50610362610587366004612942565b611080565b34801561059857600080fd5b506103626105a7366004612879565b6110d4565b3480156105b857600080fd5b5061038f6105c7366004612879565b6001600160a01b03166000908152600f602052604090205490565b3480156105ee57600080fd5b506103df6105fd3660046128ff565b61113d565b34801561060e57600080fd5b5061038f61061d366004612879565b6111dd565b34801561062e57600080fd5b506103626112c2565b34801561064357600080fd5b50610362611316565b61036261065a3660046128ff565b611372565b34801561066b57600080fd5b50600e5461032d9060ff1681565b34801561068557600080fd5b50610362610694366004612879565b611653565b3480156106a557600080fd5b506000546001600160a01b03166103df565b3480156106c357600080fd5b506103626106d2366004612942565b6116bd565b3480156106e357600080fd5b506103b2611711565b3480156106f857600080fd5b5061038f610707366004612879565b600f6020526000908152604090205481565b34801561072557600080fd5b50610362610734366004612a53565b611720565b34801561074557600080fd5b506103626107543660046129b4565b6117e5565b34801561076557600080fd5b506103626107743660046129b4565b611905565b34801561078557600080fd5b50610362610794366004612aa5565b611a25565b3480156107a557600080fd5b506103626107b4366004612879565b611aad565b3480156107c557600080fd5b5061038f61271081565b3480156107db57600080fd5b506103b26107ea3660046128ff565b611b19565b3480156107fb57600080fd5b5061036261080a366004612879565b611bc8565b61036261081d3660046128ff565b611c34565b34801561082e57600080fd5b50600e5461032d90610100900460ff1681565b34801561084d57600080fd5b506103b2611e6d565b34801561086257600080fd5b5061032d610871366004612b81565b6001600160a01b03918216600090815260056020908152604080832093909416825291909152205460ff1690565b3480156108ab57600080fd5b5061038f662386f26fc1000081565b3480156108c657600080fd5b506103626108d5366004612879565b611e7c565b60006001600160e01b031982167f80ac58cd00000000000000000000000000000000000000000000000000000000148061093d57506001600160e01b031982167f5b5e139f00000000000000000000000000000000000000000000000000000000145b8061097157507f01ffc9a7000000000000000000000000000000000000000000000000000000006001600160e01b03198316145b92915050565b6000546001600160a01b031633146109c45760405162461bcd60e51b81526020600482018190526024820152600080516020612ddf83398151915260448201526064015b60405180910390fd5b600a80546001600160a01b0319166001600160a01b0392909216919091179055565b6000546001600160a01b03163314610a2e5760405162461bcd60e51b81526020600482018190526024820152600080516020612ddf83398151915260448201526064016109bb565b600e805461ff001981166101009182900460ff1615909102179055565b606060018054610a5a90612bb4565b80601f0160208091040260200160405190810160405280929190818152602001828054610a8690612bb4565b8015610ad35780601f10610aa857610100808354040283529160200191610ad3565b820191906000526020600020905b815481529060010190602001808311610ab657829003601f168201915b5050505050905090565b6000610ae882611f49565b610b495760405162461bcd60e51b815260206004820152602c60248201527f4552433732313a20617070726f76656420717565727920666f72206e6f6e657860448201526b34b9ba32b73a103a37b5b2b760a11b60648201526084016109bb565b506000908152600460205260409020546001600160a01b031690565b6000610b708261113d565b9050806001600160a01b0316836001600160a01b03161415610bfa5760405162461bcd60e51b815260206004820152602160248201527f4552433732313a20617070726f76616c20746f2063757272656e74206f776e6560448201527f720000000000000000000000000000000000000000000000000000000000000060648201526084016109bb565b336001600160a01b0382161480610c165750610c168133610871565b610c885760405162461bcd60e51b815260206004820152603860248201527f4552433732313a20617070726f76652063616c6c6572206973206e6f74206f7760448201527f6e6572206e6f7220617070726f76656420666f7220616c6c000000000000000060648201526084016109bb565b610c928383611f93565b505050565b60078054610ca490612bb4565b80601f0160208091040260200160405190810160405280929190818152602001828054610cd090612bb4565b8015610d1d5780601f10610cf257610100808354040283529160200191610d1d565b820191906000526020600020905b815481529060010190602001808311610d0057829003601f168201915b505050505081565b6000546001600160a01b03163314610d6d5760405162461bcd60e51b81526020600482018190526024820152600080516020612ddf83398151915260448201526064016109bb565b610c926007838361278a565b6000546001600160a01b03163314610dc15760405162461bcd60e51b81526020600482018190526024820152600080516020612ddf83398151915260448201526064016109bb565b600354612710610dd18383612c05565b1115610e1f5760405162461bcd60e51b815260206004820152600860248201527f4d41585f4d494e5400000000000000000000000000000000000000000000000060448201526064016109bb565b600654606490610e30908490612c05565b1115610e7e5760405162461bcd60e51b815260206004820152600860248201527f4e4f5f474946545300000000000000000000000000000000000000000000000060448201526064016109bb565b60005b82811015610eeb5760068054906000610e9983612c1d565b9190505550610ed9848483818110610eb357610eb3612c38565b9050602002016020810190610ec89190612879565b83610ed281612c1d565b9450612001565b80610ee381612c1d565b915050610e81565b50505050565b6000546001600160a01b03163314610f395760405162461bcd60e51b81526020600482018190526024820152600080516020612ddf83398151915260448201526064016109bb565b6001600160a01b03166000908152600d60205260409020805460ff19169055565b610f64338261201f565b610fd65760405162461bcd60e51b815260206004820152603160248201527f4552433732313a207472616e736665722063616c6c6572206973206e6f74206f60448201527f776e6572206e6f7220617070726f76656400000000000000000000000000000060648201526084016109bb565b610c92838383612109565b6000546001600160a01b031633146110295760405162461bcd60e51b81526020600482018190526024820152600080516020612ddf83398151915260448201526064016109bb565b600b546040516001600160a01b03909116904780156108fc02916000818181858888f19350505050158015611062573d6000803e3d6000fd5b50565b610c9283838360405180602001604052806000815250611a25565b6000546001600160a01b031633146110c85760405162461bcd60e51b81526020600482018190526024820152600080516020612ddf83398151915260448201526064016109bb565b610c926009838361278a565b6000546001600160a01b0316331461111c5760405162461bcd60e51b81526020600482018190526024820152600080516020612ddf83398151915260448201526064016109bb565b6001600160a01b03166000908152600c60205260409020805460ff19169055565b6000806003838154811061115357611153612c38565b6000918252602090912001546001600160a01b03169050806109715760405162461bcd60e51b815260206004820152602960248201527f4552433732313a206f776e657220717565727920666f72206e6f6e657869737460448201527f656e7420746f6b656e000000000000000000000000000000000000000000000060648201526084016109bb565b60006001600160a01b03821661125b5760405162461bcd60e51b815260206004820152602a60248201527f4552433732313a2062616c616e636520717565727920666f7220746865207a6560448201527f726f20616464726573730000000000000000000000000000000000000000000060648201526084016109bb565b600354600090815b818110156112b9576003818154811061127e5761127e612c38565b6000918252602090912001546001600160a01b03868116911614156112a9576112a683612c1d565b92505b6112b281612c1d565b9050611263565b50909392505050565b6000546001600160a01b0316331461130a5760405162461bcd60e51b81526020600482018190526024820152600080516020612ddf83398151915260448201526064016109bb565b611314600061228c565b565b6000546001600160a01b0316331461135e5760405162461bcd60e51b81526020600482018190526024820152600080516020612ddf83398151915260448201526064016109bb565b600e805460ff19811660ff90911615179055565b600e54610100900460ff1615801561138c5750600e5460ff165b6113d85760405162461bcd60e51b815260206004820152600e60248201527f50524553414c455f434c4f53454400000000000000000000000000000000000060448201526064016109bb565b336000908152600f60205260409020546064906113f6908390612c05565b11156114445760405162461bcd60e51b815260206004820152600c60248201527f4558434545445f414c4c4f43000000000000000000000000000000000000000060448201526064016109bb565b60648111156114955760405162461bcd60e51b815260206004820152601260248201527f4558434545445f46525f5045525f4d494e54000000000000000000000000000060448201526064016109bb565b346114a782662386f26fc10000612c4e565b11156114f55760405162461bcd60e51b815260206004820152601060248201527f494e53554646494349454e545f4554480000000000000000000000000000000060448201526064016109bb565b6003546126ac6115058383612c05565b11156115535760405162461bcd60e51b815260206004820152601660248201527f4558434545445f4d41585f53414c455f535550504c590000000000000000000060448201526064016109bb565b336000908152600c602052604090205460ff166115a75760405162461bcd60e51b81526020600482015260126024820152712727aa2fa0a8282927ab22a22fa12aaca2a960711b60448201526064016109bb565b336000908152600d602052604090205460ff16156115fc5760405162461bcd60e51b81526020600482015260126024820152712727aa2fa0a8282927ab22a22fa12aaca2a960711b60448201526064016109bb565b336000908152600f60205260408120805484929061161b908490612c05565b90915550600090505b82811015610c9257611641338361163a81612c1d565b94506122dc565b8061164b81612c1d565b915050611624565b6000546001600160a01b0316331461169b5760405162461bcd60e51b81526020600482018190526024820152600080516020612ddf83398151915260448201526064016109bb565b600b80546001600160a01b0319166001600160a01b0392909216919091179055565b6000546001600160a01b031633146117055760405162461bcd60e51b81526020600482018190526024820152600080516020612ddf83398151915260448201526064016109bb565b610c926008838361278a565b606060028054610a5a90612bb4565b6001600160a01b0382163314156117795760405162461bcd60e51b815260206004820152601960248201527f4552433732313a20617070726f766520746f2063616c6c65720000000000000060448201526064016109bb565b3360008181526005602090815260408083206001600160a01b03871680855290835292819020805460ff191686151590811790915590519081529192917f17307eab39ab6107e8899845ad3d59bd9653f200f220920489ca2b5937696c31910160405180910390a35050565b6000546001600160a01b0316331461182d5760405162461bcd60e51b81526020600482018190526024820152600080516020612ddf83398151915260448201526064016109bb565b6127108111156118935760405162461bcd60e51b815260206004820152602b60248201527f50726f76696465206c6573732061646472657373657320696e206f6e6520667560448201526a1b98dd1a5bdb8818d85b1b60aa1b60648201526084016109bb565b60005b81811015610c92576001600c60008585858181106118b6576118b6612c38565b90506020020160208101906118cb9190612879565b6001600160a01b031681526020810191909152604001600020805460ff1916911515919091179055806118fd81612c1d565b915050611896565b6000546001600160a01b0316331461194d5760405162461bcd60e51b81526020600482018190526024820152600080516020612ddf83398151915260448201526064016109bb565b6127108111156119b35760405162461bcd60e51b815260206004820152602b60248201527f50726f76696465206c6573732061646472657373657320696e206f6e6520667560448201526a1b98dd1a5bdb8818d85b1b60aa1b60648201526084016109bb565b60005b81811015610c92576000600c60008585858181106119d6576119d6612c38565b90506020020160208101906119eb9190612879565b6001600160a01b031681526020810191909152604001600020805460ff191691151591909117905580611a1d81612c1d565b9150506119b6565b611a2f338361201f565b611aa15760405162461bcd60e51b815260206004820152603160248201527f4552433732313a207472616e736665722063616c6c6572206973206e6f74206f60448201527f776e6572206e6f7220617070726f76656400000000000000000000000000000060648201526084016109bb565b610eeb84848484612404565b6000546001600160a01b03163314611af55760405162461bcd60e51b81526020600482018190526024820152600080516020612ddf83398151915260448201526064016109bb565b6001600160a01b03166000908152600d60205260409020805460ff19166001179055565b6060611b2482611f49565b611b965760405162461bcd60e51b815260206004820152602f60248201527f4552433732314d657461646174613a2055524920717565727920666f72206e6f60448201527f6e6578697374656e7420746f6b656e000000000000000000000000000000000060648201526084016109bb565b6009611ba183612482565b604051602001611bb2929190612c89565b6040516020818303038152906040529050919050565b6000546001600160a01b03163314611c105760405162461bcd60e51b81526020600482018190526024820152600080516020612ddf83398151915260448201526064016109bb565b6001600160a01b03166000908152600c60205260409020805460ff19166001179055565b600e54610100900460ff16611c8b5760405162461bcd60e51b815260206004820152600b60248201527f53414c455f434c4f53454400000000000000000000000000000000000000000060448201526064016109bb565b600e5460ff1615611cde5760405162461bcd60e51b815260206004820152600c60248201527f4f4e4c595f50524553414c45000000000000000000000000000000000000000060448201526064016109bb565b6064811115611d2f5760405162461bcd60e51b815260206004820152601260248201527f4558434545445f46525f5045525f4d494e54000000000000000000000000000060448201526064016109bb565b34611d4182662386f26fc10000612c4e565b1115611d8f5760405162461bcd60e51b815260206004820152601060248201527f494e53554646494349454e545f4554480000000000000000000000000000000060448201526064016109bb565b336000908152600d602052604090205460ff1615611de45760405162461bcd60e51b81526020600482015260126024820152712727aa2fa0a8282927ab22a22fa12aaca2a960711b60448201526064016109bb565b6003546126ac611df48383612c05565b1115611e425760405162461bcd60e51b815260206004820152601660248201527f4558434545445f4d41585f53414c455f535550504c590000000000000000000060448201526064016109bb565b60005b82811015610c9257611e5b338361163a81612c1d565b80611e6581612c1d565b915050611e45565b606060088054610a5a90612bb4565b6000546001600160a01b03163314611ec45760405162461bcd60e51b81526020600482018190526024820152600080516020612ddf83398151915260448201526064016109bb565b6001600160a01b038116611f405760405162461bcd60e51b815260206004820152602660248201527f4f776e61626c653a206e6577206f776e657220697320746865207a65726f206160448201527f646472657373000000000000000000000000000000000000000000000000000060648201526084016109bb565b6110628161228c565b60035460009082108015610971575060006001600160a01b031660038381548110611f7657611f76612c38565b6000918252602090912001546001600160a01b0316141592915050565b600081815260046020526040902080546001600160a01b0319166001600160a01b0384169081179091558190611fc88261113d565b6001600160a01b03167f8c5be1e5ebec7d5bd14f71427d1e84f3dd0314c0f7b2291e5b200ac8c7c3b92560405160405180910390a45050565b61201b8282604051806020016040528060008152506125b4565b5050565b600061202a82611f49565b61208b5760405162461bcd60e51b815260206004820152602c60248201527f4552433732313a206f70657261746f7220717565727920666f72206e6f6e657860448201526b34b9ba32b73a103a37b5b2b760a11b60648201526084016109bb565b60006120968361113d565b9050806001600160a01b0316846001600160a01b031614806120d15750836001600160a01b03166120c684610add565b6001600160a01b0316145b8061210157506001600160a01b0380821660009081526005602090815260408083209388168352929052205460ff165b949350505050565b826001600160a01b031661211c8261113d565b6001600160a01b0316146121985760405162461bcd60e51b815260206004820152602960248201527f4552433732313a207472616e73666572206f6620746f6b656e2074686174206960448201527f73206e6f74206f776e000000000000000000000000000000000000000000000060648201526084016109bb565b6001600160a01b0382166122135760405162461bcd60e51b8152602060048201526024808201527f4552433732313a207472616e7366657220746f20746865207a65726f2061646460448201527f726573730000000000000000000000000000000000000000000000000000000060648201526084016109bb565b61221e600082611f93565b816003828154811061223257612232612c38565b6000918252602082200180546001600160a01b0319166001600160a01b03938416179055604051839285811692908716917fddf252ad1be2c89b69c2b068fc378daa952ba7f163c4a11628f55a4df523b3ef9190a4505050565b600080546001600160a01b038381166001600160a01b0319831681178455604051919092169283917f8be0079c531659141344cd1fd0a4f28419497f9722a3daafe3b4186f6b6457e09190a35050565b6001600160a01b0382166123325760405162461bcd60e51b815260206004820181905260248201527f4552433732313a206d696e7420746f20746865207a65726f206164647265737360448201526064016109bb565b61233b81611f49565b156123885760405162461bcd60e51b815260206004820152601c60248201527f4552433732313a20746f6b656e20616c7265616479206d696e7465640000000060448201526064016109bb565b6003805460018101825560009182527fc2575a0e9e593c00f959f8c92f12db2869c3395a3b0502d05e2516446f71f85b0180546001600160a01b0319166001600160a01b0385169081179091556040518392907fddf252ad1be2c89b69c2b068fc378daa952ba7f163c4a11628f55a4df523b3ef908290a45050565b61240f848484612109565b61241b84848484612632565b610eeb5760405162461bcd60e51b815260206004820152603260248201527f4552433732313a207472616e7366657220746f206e6f6e20455243373231526560448201527131b2b4bb32b91034b6b83632b6b2b73a32b960711b60648201526084016109bb565b6060816124c257505060408051808201909152600181527f3000000000000000000000000000000000000000000000000000000000000000602082015290565b8160005b81156124ec57806124d681612c1d565b91506124e59050600a83612d46565b91506124c6565b60008167ffffffffffffffff81111561250757612507612a8f565b6040519080825280601f01601f191660200182016040528015612531576020820181803683370190505b5090505b841561210157612546600183612d5a565b9150612553600a86612d71565b61255e906030612c05565b60f81b81838151811061257357612573612c38565b60200101907effffffffffffffffffffffffffffffffffffffffffffffffffffffffffffff1916908160001a9053506125ad600a86612d46565b9450612535565b6125be83836122dc565b6125cb6000848484612632565b610c925760405162461bcd60e51b815260206004820152603260248201527f4552433732313a207472616e7366657220746f206e6f6e20455243373231526560448201527131b2b4bb32b91034b6b83632b6b2b73a32b960711b60648201526084016109bb565b60006001600160a01b0384163b1561277f57604051630a85bd0160e11b81526001600160a01b0385169063150b7a0290612676903390899088908890600401612d85565b602060405180830381600087803b15801561269057600080fd5b505af19250505080156126c0575060408051601f3d908101601f191682019092526126bd91810190612dc1565b60015b612765573d8080156126ee576040519150601f19603f3d011682016040523d82523d6000602084013e6126f3565b606091505b50805161275d5760405162461bcd60e51b815260206004820152603260248201527f4552433732313a207472616e7366657220746f206e6f6e20455243373231526560448201527131b2b4bb32b91034b6b83632b6b2b73a32b960711b60648201526084016109bb565b805181602001fd5b6001600160e01b031916630a85bd0160e11b149050612101565b506001949350505050565b82805461279690612bb4565b90600052602060002090601f0160209004810192826127b857600085556127fe565b82601f106127d15782800160ff198235161785556127fe565b828001600101855582156127fe579182015b828111156127fe5782358255916020019190600101906127e3565b5061280a92915061280e565b5090565b5b8082111561280a576000815560010161280f565b6001600160e01b03198116811461106257600080fd5b60006020828403121561284b57600080fd5b813561285681612823565b9392505050565b80356001600160a01b038116811461287457600080fd5b919050565b60006020828403121561288b57600080fd5b6128568261285d565b60005b838110156128af578181015183820152602001612897565b83811115610eeb5750506000910152565b600081518084526128d8816020860160208601612894565b601f01601f19169290920160200192915050565b60208152600061285660208301846128c0565b60006020828403121561291157600080fd5b5035919050565b6000806040838503121561292b57600080fd5b6129348361285d565b946020939093013593505050565b6000806020838503121561295557600080fd5b823567ffffffffffffffff8082111561296d57600080fd5b818501915085601f83011261298157600080fd5b81358181111561299057600080fd5b8660208285010111156129a257600080fd5b60209290920196919550909350505050565b600080602083850312156129c757600080fd5b823567ffffffffffffffff808211156129df57600080fd5b818501915085601f8301126129f357600080fd5b813581811115612a0257600080fd5b8660208260051b85010111156129a257600080fd5b600080600060608486031215612a2c57600080fd5b612a358461285d565b9250612a436020850161285d565b9150604084013590509250925092565b60008060408385031215612a6657600080fd5b612a6f8361285d565b915060208301358015158114612a8457600080fd5b809150509250929050565b634e487b7160e01b600052604160045260246000fd5b60008060008060808587031215612abb57600080fd5b612ac48561285d565b9350612ad26020860161285d565b925060408501359150606085013567ffffffffffffffff80821115612af657600080fd5b818701915087601f830112612b0a57600080fd5b813581811115612b1c57612b1c612a8f565b604051601f8201601f19908116603f01168101908382118183101715612b4457612b44612a8f565b816040528281528a6020848701011115612b5d57600080fd5b82602086016020830137600060208483010152809550505050505092959194509250565b60008060408385031215612b9457600080fd5b612b9d8361285d565b9150612bab6020840161285d565b90509250929050565b600181811c90821680612bc857607f821691505b60208210811415612be957634e487b7160e01b600052602260045260246000fd5b50919050565b634e487b7160e01b600052601160045260246000fd5b60008219821115612c1857612c18612bef565b500190565b6000600019821415612c3157612c31612bef565b5060010190565b634e487b7160e01b600052603260045260246000fd5b6000816000190483118215151615612c6857612c68612bef565b500290565b60008151612c7f818560208601612894565b9290920192915050565b600080845481600182811c915080831680612ca557607f831692505b6020808410821415612cc557634e487b7160e01b86526022600452602486fd5b818015612cd95760018114612cea57612d17565b60ff19861689528489019650612d17565b60008b81526020902060005b86811015612d0f5781548b820152908501908301612cf6565b505084890196505b505050505050612d278185612c6d565b95945050505050565b634e487b7160e01b600052601260045260246000fd5b600082612d5557612d55612d30565b500490565b600082821015612d6c57612d6c612bef565b500390565b600082612d8057612d80612d30565b500690565b60006001600160a01b03808716835280861660208401525083604083015260806060830152612db760808301846128c0565b9695505050505050565b600060208284031215612dd357600080fd5b81516128568161282356fe4f776e61626c653a2063616c6c6572206973206e6f7420746865206f776e6572a26469706673582212201d590a748b073a74f913316e8de367a869f41a7b9d0ca954aa1baaea42b2b57864736f6c63430008090033",
  "linkReferences": {},
  "deployedLinkReferences": {}
}