{
  "_format": "hh-sol-artifact-1",
  "contractName": "StreamA",
  "sourceName": "contracts/StreamA.sol",
  "abi": [
    {
      "inputs": [],
      "stateMutability": "nonpayable",
      "type": "constructor"
    },
    {
      "anonymous": false,
      "inputs": [
        {
          "indexed": true,
          "internalType": "address",
          "name": "owner",
          "type": "address"
        },
        {
          "indexed": true,
          "internalType": "address",
          "name": "approved",
          "type": "address"
        },
        {
          "indexed": true,
          "internalType": "uint256",
          "name": "tokenId",
          "type": "uint256"
        }
      ],
      "name": "Approval",
      "type": "event"
    },
    {
      "anonymous": false,
      "inputs": [
        {
          "indexed": true,
          "internalType": "address",
          "name": "owner",
          "type": "address"
        },
        {
          "indexed": true,
          "internalType": "address",
          "name": "operator",
          "type": "address"
        },
        {
          "indexed": false,
          "internalType": "bool",
          "name": "approved",
          "type": "bool"
        }
      ],
      "name": "ApprovalForAll",
      "type": "event"
    },
    {
      "anonymous": false,
      "inputs": [
        {
          "indexed": true,
          "internalType": "address",
          "name": "previousOwner",
          "type": "address"
        },
        {
          "indexed": true,
          "internalType": "address",
          "name": "newOwner",
          "type": "address"
        }
      ],
      "name": "OwnershipTransferred",
      "type": "event"
    },
    {
      "anonymous": false,
      "inputs": [
        {
          "indexed": true,
          "internalType": "address",
          "name": "from",
          "type": "address"
        },
        {
          "indexed": true,
          "internalType": "address",
          "name": "to",
          "type": "address"
        },
        {
          "indexed": true,
          "internalType": "uint256",
          "name": "tokenId",
          "type": "uint256"
        }
      ],
      "name": "Transfer",
      "type": "event"
    },
    {
      "inputs": [],
      "name": "FR_GIFT",
      "outputs": [
        {
          "internalType": "uint256",
          "name": "",
          "type": "uint256"
        }
      ],
      "stateMutability": "view",
      "type": "function"
    },
    {
      "inputs": [],
      "name": "FR_PER_MINT",
      "outputs": [
        {
          "internalType": "uint256",
          "name": "",
          "type": "uint256"
        }
      ],
      "stateMutability": "view",
      "type": "function"
    },
    {
      "inputs": [],
      "name": "FR_PRICE",
      "outputs": [
        {
          "internalType": "uint256",
          "name": "",
          "type": "uint256"
        }
      ],
      "stateMutability": "view",
      "type": "function"
    },
    {
      "inputs": [],
      "name": "FR_PUBLIC",
      "outputs": [
        {
          "internalType": "uint256",
          "name": "",
          "type": "uint256"
        }
      ],
      "stateMutability": "view",
      "type": "function"
    },
    {
      "inputs": [],
      "name": "PRESALE_LIMIT",
      "outputs": [
        {
          "internalType": "uint256",
          "name": "",
          "type": "uint256"
        }
      ],
      "stateMutability": "view",
      "type": "function"
    },
    {
      "inputs": [
        {
          "internalType": "address[]",
          "name": "_addresses",
          "type": "address[]"
        }
      ],
      "name": "addMultipleToApproveCollections",
      "outputs": [],
      "stateMutability": "nonpayable",
      "type": "function"
    },
    {
      "inputs": [
        {
          "internalType": "address[]",
          "name": "_addresses",
          "type": "address[]"
        }
      ],
      "name": "addMultipleToApproveList",
      "outputs": [],
      "stateMutability": "nonpayable",
      "type": "function"
    },
    {
      "inputs": [
        {
          "internalType": "address",
          "name": "_newAddress",
          "type": "address"
        }
      ],
      "name": "addToApproveCollections",
      "outputs": [],
      "stateMutability": "nonpayable",
      "type": "function"
    },
    {
      "inputs": [
        {
          "internalType": "address",
          "name": "_newAddress",
          "type": "address"
        }
      ],
      "name": "addToApproveList",
      "outputs": [],
      "stateMutability": "nonpayable",
      "type": "function"
    },
    {
      "inputs": [
        {
          "internalType": "address",
          "name": "_newAddress",
          "type": "address"
        }
      ],
      "name": "addToDenyList",
      "outputs": [],
      "stateMutability": "nonpayable",
      "type": "function"
    },
    {
      "inputs": [
        {
          "internalType": "address",
          "name": "to",
          "type": "address"
        },
        {
          "internalType": "uint256",
          "name": "tokenId",
          "type": "uint256"
        }
      ],
      "name": "approve",
      "outputs": [],
      "stateMutability": "nonpayable",
      "type": "function"
    },
    {
      "inputs": [],
      "name": "approvedCollections",
      "outputs": [
        {
          "internalType": "address[]",
          "name": "",
          "type": "address[]"
        }
      ],
      "stateMutability": "view",
      "type": "function"
    },
    {
      "inputs": [
        {
          "internalType": "address",
          "name": "",
          "type": "address"
        }
      ],
      "name": "approvelist",
      "outputs": [
        {
          "internalType": "bool",
          "name": "",
          "type": "bool"
        }
      ],
      "stateMutability": "view",
      "type": "function"
    },
    {
      "inputs": [],
      "name": "availableToMint",
      "outputs": [
        {
          "internalType": "uint256",
          "name": "",
          "type": "uint256"
        }
      ],
      "stateMutability": "view",
      "type": "function"
    },
    {
      "inputs": [
        {
          "internalType": "address",
          "name": "owner",
          "type": "address"
        }
      ],
      "name": "balanceOf",
      "outputs": [
        {
          "internalType": "uint256",
          "name": "",
          "type": "uint256"
        }
      ],
      "stateMutability": "view",
      "type": "function"
    },
    {
      "inputs": [
        {
          "internalType": "uint256",
          "name": "tokenQuantity",
          "type": "uint256"
        }
      ],
      "name": "buy",
      "outputs": [],
      "stateMutability": "payable",
      "type": "function"
    },
    {
      "inputs": [],
      "name": "contractURI",
      "outputs": [
        {
          "internalType": "string",
          "name": "",
          "type": "string"
        }
      ],
      "stateMutability": "view",
      "type": "function"
    },
    {
      "inputs": [
        {
          "internalType": "address",
          "name": "",
          "type": "address"
        }
      ],
      "name": "denylist",
      "outputs": [
        {
          "internalType": "bool",
          "name": "",
          "type": "bool"
        }
      ],
      "stateMutability": "view",
      "type": "function"
    },
    {
      "inputs": [
        {
          "internalType": "uint256",
          "name": "tokenId",
          "type": "uint256"
        }
      ],
      "name": "getApproved",
      "outputs": [
        {
          "internalType": "address",
          "name": "",
          "type": "address"
        }
      ],
      "stateMutability": "view",
      "type": "function"
    },
    {
      "inputs": [
        {
          "internalType": "address[]",
          "name": "receivers",
          "type": "address[]"
        }
      ],
      "name": "gift",
      "outputs": [],
      "stateMutability": "nonpayable",
      "type": "function"
    },
    {
      "inputs": [],
      "name": "giftedAmount",
      "outputs": [
        {
          "internalType": "uint256",
          "name": "",
          "type": "uint256"
        }
      ],
      "stateMutability": "view",
      "type": "function"
    },
    {
      "inputs": [
        {
          "internalType": "address",
          "name": "owner",
          "type": "address"
        },
        {
          "internalType": "address",
          "name": "operator",
          "type": "address"
        }
      ],
      "name": "isApprovedForAll",
      "outputs": [
        {
          "internalType": "bool",
          "name": "",
          "type": "bool"
        }
      ],
      "stateMutability": "view",
      "type": "function"
    },
    {
      "inputs": [],
      "name": "name",
      "outputs": [
        {
          "internalType": "string",
          "name": "",
          "type": "string"
        }
      ],
      "stateMutability": "view",
      "type": "function"
    },
    {
      "inputs": [],
      "name": "owner",
      "outputs": [
        {
          "internalType": "address",
          "name": "",
          "type": "address"
        }
      ],
      "stateMutability": "view",
      "type": "function"
    },
    {
      "inputs": [
        {
          "internalType": "uint256",
          "name": "tokenId",
          "type": "uint256"
        }
      ],
      "name": "ownerOf",
      "outputs": [
        {
          "internalType": "address",
          "name": "",
          "type": "address"
        }
      ],
      "stateMutability": "view",
      "type": "function"
    },
    {
      "inputs": [
        {
          "internalType": "uint256",
          "name": "tokenQuantity",
          "type": "uint256"
        }
      ],
      "name": "presaleBuy",
      "outputs": [],
      "stateMutability": "payable",
      "type": "function"
    },
    {
      "inputs": [],
      "name": "presaleLive",
      "outputs": [
        {
          "internalType": "bool",
          "name": "",
          "type": "bool"
        }
      ],
      "stateMutability": "view",
      "type": "function"
    },
    {
      "inputs": [
        {
          "internalType": "address",
          "name": "addr",
          "type": "address"
        }
      ],
      "name": "presalePurchasedCount",
      "outputs": [
        {
          "internalType": "uint256",
          "name": "",
          "type": "uint256"
        }
      ],
      "stateMutability": "view",
      "type": "function"
    },
    {
      "inputs": [
        {
          "internalType": "address",
          "name": "",
          "type": "address"
        }
      ],
      "name": "presalerListPurchases",
      "outputs": [
        {
          "internalType": "uint256",
          "name": "",
          "type": "uint256"
        }
      ],
      "stateMutability": "view",
      "type": "function"
    },
    {
      "inputs": [],
      "name": "provenance",
      "outputs": [
        {
          "internalType": "string",
          "name": "",
          "type": "string"
        }
      ],
      "stateMutability": "view",
      "type": "function"
    },
    {
      "inputs": [
        {
          "internalType": "address",
          "name": "_address",
          "type": "address"
        }
      ],
      "name": "removeFromApproveCollections",
      "outputs": [],
      "stateMutability": "nonpayable",
      "type": "function"
    },
    {
      "inputs": [
        {
          "internalType": "address",
          "name": "_address",
          "type": "address"
        }
      ],
      "name": "removeFromApproveList",
      "outputs": [],
      "stateMutability": "nonpayable",
      "type": "function"
    },
    {
      "inputs": [
        {
          "internalType": "address",
          "name": "_address",
          "type": "address"
        }
      ],
      "name": "removeFromDenyList",
      "outputs": [],
      "stateMutability": "nonpayable",
      "type": "function"
    },
    {
      "inputs": [
        {
          "internalType": "address[]",
          "name": "_addresses",
          "type": "address[]"
        }
      ],
      "name": "removeMultipleFromApproveCollections",
      "outputs": [],
      "stateMutability": "nonpayable",
      "type": "function"
    },
    {
      "inputs": [
        {
          "internalType": "address[]",
          "name": "_addresses",
          "type": "address[]"
        }
      ],
      "name": "removeMultipleFromApproveList",
      "outputs": [],
      "stateMutability": "nonpayable",
      "type": "function"
    },
    {
      "inputs": [],
      "name": "renounceOwnership",
      "outputs": [],
      "stateMutability": "nonpayable",
      "type": "function"
    },
    {
      "inputs": [
        {
          "internalType": "address",
          "name": "from",
          "type": "address"
        },
        {
          "internalType": "address",
          "name": "to",
          "type": "address"
        },
        {
          "internalType": "uint256",
          "name": "tokenId",
          "type": "uint256"
        }
      ],
      "name": "safeTransferFrom",
      "outputs": [],
      "stateMutability": "nonpayable",
      "type": "function"
    },
    {
      "inputs": [
        {
          "internalType": "address",
          "name": "from",
          "type": "address"
        },
        {
          "internalType": "address",
          "name": "to",
          "type": "address"
        },
        {
          "internalType": "uint256",
          "name": "tokenId",
          "type": "uint256"
        },
        {
          "internalType": "bytes",
          "name": "_data",
          "type": "bytes"
        }
      ],
      "name": "safeTransferFrom",
      "outputs": [],
      "stateMutability": "nonpayable",
      "type": "function"
    },
    {
      "inputs": [],
      "name": "saleLive",
      "outputs": [
        {
          "internalType": "bool",
          "name": "",
          "type": "bool"
        }
      ],
      "stateMutability": "view",
      "type": "function"
    },
    {
      "inputs": [
        {
          "internalType": "address",
          "name": "operator",
          "type": "address"
        },
        {
          "internalType": "bool",
          "name": "approved",
          "type": "bool"
        }
      ],
      "name": "setApprovalForAll",
      "outputs": [],
      "stateMutability": "nonpayable",
      "type": "function"
    },
    {
      "inputs": [
        {
          "internalType": "string",
          "name": "URI",
          "type": "string"
        }
      ],
      "name": "setBaseURI",
      "outputs": [],
      "stateMutability": "nonpayable",
      "type": "function"
    },
    {
      "inputs": [
        {
          "internalType": "string",
          "name": "URI",
          "type": "string"
        }
      ],
      "name": "setContractURI",
      "outputs": [],
      "stateMutability": "nonpayable",
      "type": "function"
    },
    {
      "inputs": [
        {
          "internalType": "uint256",
          "name": "amount",
          "type": "uint256"
        }
      ],
      "name": "setPreSaleLimit",
      "outputs": [],
      "stateMutability": "nonpayable",
      "type": "function"
    },
    {
      "inputs": [
        {
          "internalType": "uint256",
          "name": "amount",
          "type": "uint256"
        }
      ],
      "name": "setPrice",
      "outputs": [],
      "stateMutability": "nonpayable",
      "type": "function"
    },
    {
      "inputs": [
        {
          "internalType": "string",
          "name": "hash",
          "type": "string"
        }
      ],
      "name": "setProvenanceHash",
      "outputs": [],
      "stateMutability": "nonpayable",
      "type": "function"
    },
    {
      "inputs": [
        {
          "internalType": "address",
          "name": "addr",
          "type": "address"
        }
      ],
      "name": "setSignerAddress",
      "outputs": [],
      "stateMutability": "nonpayable",
      "type": "function"
    },
    {
      "inputs": [
        {
          "internalType": "address",
          "name": "addr",
          "type": "address"
        }
      ],
      "name": "setVaultAddress",
      "outputs": [],
      "stateMutability": "nonpayable",
      "type": "function"
    },
    {
      "inputs": [
        {
          "internalType": "bytes4",
          "name": "interfaceId",
          "type": "bytes4"
        }
      ],
      "name": "supportsInterface",
      "outputs": [
        {
          "internalType": "bool",
          "name": "",
          "type": "bool"
        }
      ],
      "stateMutability": "view",
      "type": "function"
    },
    {
      "inputs": [],
      "name": "symbol",
      "outputs": [
        {
          "internalType": "string",
          "name": "",
          "type": "string"
        }
      ],
      "stateMutability": "view",
      "type": "function"
    },
    {
      "inputs": [],
      "name": "togglePresaleStatus",
      "outputs": [],
      "stateMutability": "nonpayable",
      "type": "function"
    },
    {
      "inputs": [],
      "name": "toggleSaleStatus",
      "outputs": [],
      "stateMutability": "nonpayable",
      "type": "function"
    },
    {
      "inputs": [
        {
          "internalType": "uint256",
          "name": "tokenId",
          "type": "uint256"
        }
      ],
      "name": "tokenURI",
      "outputs": [
        {
          "internalType": "string",
          "name": "",
          "type": "string"
        }
      ],
      "stateMutability": "view",
      "type": "function"
    },
    {
      "inputs": [],
      "name": "totalSupply",
      "outputs": [
        {
          "internalType": "uint256",
          "name": "",
          "type": "uint256"
        }
      ],
      "stateMutability": "view",
      "type": "function"
    },
    {
      "inputs": [
        {
          "internalType": "address",
          "name": "from",
          "type": "address"
        },
        {
          "internalType": "address",
          "name": "to",
          "type": "address"
        },
        {
          "internalType": "uint256",
          "name": "tokenId",
          "type": "uint256"
        }
      ],
      "name": "transferFrom",
      "outputs": [],
      "stateMutability": "nonpayable",
      "type": "function"
    },
    {
      "inputs": [
        {
          "internalType": "address",
          "name": "newOwner",
          "type": "address"
        }
      ],
      "name": "transferOwnership",
      "outputs": [],
      "stateMutability": "nonpayable",
      "type": "function"
    },
    {
      "inputs": [
        {
          "internalType": "address",
          "name": "_wallet",
          "type": "address"
        }
      ],
      "name": "walletHoldsToken",
      "outputs": [
        {
          "internalType": "bool",
          "name": "",
          "type": "bool"
        }
      ],
      "stateMutability": "view",
      "type": "function"
    },
    {
      "inputs": [],
      "name": "withdraw",
      "outputs": [],
      "stateMutability": "nonpayable",
      "type": "function"
    }
  ],
  "bytecode": "0x6080604052600c80546001600160a01b0319908116739d582750f758b6a2dc2397669e55a19099aa18ee17909155600d805490911673c049af472eec8ce544765974c7ae88cf2b1333931790553480156200005957600080fd5b506040518060400160405280600881526020016729ba3932b0b6a09b60c11b8152506040518060400160405280600381526020016229a09b60e91b815250620000b1620000ab6200012c60201b60201c565b62000130565b6001620000bf838262000225565b506002620000ce828262000225565b50506103e86008555066b1a2bc2ec5000060075560408051808201909152601f81527f68747470733a2f2f73702e7261642e6c6976652f73747265616d706173732f006020820152600b9062000125908262000225565b50620002f1565b3390565b600080546001600160a01b038381166001600160a01b0319831681178455604051919092169283917f8be0079c531659141344cd1fd0a4f28419497f9722a3daafe3b4186f6b6457e09190a35050565b634e487b7160e01b600052604160045260246000fd5b600181811c90821680620001ab57607f821691505b602082108103620001cc57634e487b7160e01b600052602260045260246000fd5b50919050565b601f8211156200022057600081815260208120601f850160051c81016020861015620001fb5750805b601f850160051c820191505b818110156200021c5782815560010162000207565b5050505b505050565b81516001600160401b0381111562000241576200024162000180565b620002598162000252845462000196565b84620001d2565b602080601f831160018114620002915760008415620002785750858301515b600019600386901b1c1916600185901b1785556200021c565b600085815260208120601f198616915b82811015620002c257888601518255948401946001909101908401620002a1565b5085821015620002e15787850151600019600388901b60f8161c191681555b5050505050600190811b01905550565b61383d80620003016000396000f3fe6080604052600436106103765760003560e01c80636352211e116101d1578063a22cb46511610102578063c87b56dd116100a0578063e8a3d4851161006f578063e8a3d485146109dc578063e985e9c5146109f1578063f146877a14610a3a578063f2fde38b14610a5057600080fd5b8063c87b56dd1461096a578063d0b368a01461098a578063d96a094a146109aa578063e081b781146109bd57600080fd5b8063b88d4fde116100dc578063b88d4fde1461090a578063b903364c1461092a578063c0b3060314610653578063c6b3e6941461094a57600080fd5b8063a22cb465146108aa578063a68157cd146108ca578063abf23f20146108ea57600080fd5b806385535cc51161016f57806391b7f5ed1161014957806391b7f5ed14610828578063938e3d7b1461084857806395d89b41146108685780639bf803161461087d57600080fd5b806385535cc5146107ca57806385ce02a8146107ea5780638da5cb5b1461080a57600080fd5b806374601c3c116101ab57806374601c3c146107735780637bffb4ce14610788578063815f7bbd1461079d57806383a9e049146107b057600080fd5b80636352211e1461071e57806370a082311461073e578063715018a61461075e57600080fd5b80631aee3f91116102ab5780633ccfd60b116102495780634c105fee116102235780634c105fee1461068857806355f804b3146106a8578063568f57e1146106c85780635ce7af1f146106e857600080fd5b80633ccfd60b1461063e5780633cef98361461065357806342842e0e1461066857600080fd5b806323b872dd1161028557806323b872dd146105ac57806326935b60146105cc5780633371bfff146105ec5780633bea2dcd1461061c57600080fd5b80631aee3f91146105605780631b57190e14610576578063215048cd1461058c57600080fd5b80630b1f703c1161031857806310969523116102f257806310969523146104ea578063163e1e611461050a57806318160ddd1461052a5780631a7b954a1461054057600080fd5b80630b1f703c146104855780630f061627146104a55780630f7309e8146104d557600080fd5b8063051e93dc11610354578063051e93dc146103e757806306fdde031461040b578063081812fc1461042d578063095ea7b31461046557600080fd5b806301ffc9a71461037b578063046dc166146103b0578063049c5c49146103d2575b600080fd5b34801561038757600080fd5b5061039b610396366004613116565b610a70565b60405190151581526020015b60405180910390f35b3480156103bc57600080fd5b506103d06103cb36600461314f565b610b0d565b005b3480156103de57600080fd5b506103d0610b7c565b3480156103f357600080fd5b506103fd6126ac81565b6040519081526020016103a7565b34801561041757600080fd5b50610420610c08565b6040516103a791906131ba565b34801561043957600080fd5b5061044d6104483660046131cd565b610c9a565b6040516001600160a01b0390911681526020016103a7565b34801561047157600080fd5b506103d06104803660046131e6565b610d22565b34801561049157600080fd5b506103d06104a03660046131cd565b610e71565b3480156104b157600080fd5b5061039b6104c036600461314f565b600f6020526000908152604090205460ff1681565b3480156104e157600080fd5b50610420610ebe565b3480156104f657600080fd5b506103d0610505366004613210565b610f4c565b34801561051657600080fd5b506103d0610525366004613282565b610fa1565b34801561053657600080fd5b506103fd61271081565b34801561054c57600080fd5b506103d061055b366004613282565b611119565b34801561056c57600080fd5b506103fd60085481565b34801561058257600080fd5b506103fd60065481565b34801561059857600080fd5b506103d06105a736600461314f565b61120e565b3480156105b857600080fd5b506103d06105c73660046132e5565b611277565b3480156105d857600080fd5b5061039b6105e736600461314f565b6112fe565b3480156105f857600080fd5b5061039b61060736600461314f565b60106020526000908152604090205460ff1681565b34801561062857600080fd5b506106316113e1565b6040516103a79190613321565b34801561064a57600080fd5b506103d0611442565b34801561065f57600080fd5b506103fd606481565b34801561067457600080fd5b506103d06106833660046132e5565b6114c6565b34801561069457600080fd5b506103d06106a3366004613282565b6114e1565b3480156106b457600080fd5b506103d06106c3366004613210565b6115d6565b3480156106d457600080fd5b506103d06106e336600461314f565b61162b565b3480156106f457600080fd5b506103fd61070336600461314f565b6001600160a01b031660009081526012602052604090205490565b34801561072a57600080fd5b5061044d6107393660046131cd565b611694565b34801561074a57600080fd5b506103fd61075936600461314f565b611734565b34801561076a57600080fd5b506103d0611819565b34801561077f57600080fd5b506103fd61186b565b34801561079457600080fd5b506103d0611882565b6103d06107ab3660046131cd565b6118de565b3480156107bc57600080fd5b5060115461039b9060ff1681565b3480156107d657600080fd5b506103d06107e536600461314f565b611bf5565b3480156107f657600080fd5b506103d061080536600461314f565b611c5f565b34801561081657600080fd5b506000546001600160a01b031661044d565b34801561083457600080fd5b506103d06108433660046131cd565b611e41565b34801561085457600080fd5b506103d0610863366004613210565b611e8e565b34801561087457600080fd5b50610420611ee3565b34801561088957600080fd5b506103fd61089836600461314f565b60126020526000908152604090205481565b3480156108b657600080fd5b506103d06108c536600461336e565b611ef2565b3480156108d657600080fd5b506103d06108e5366004613282565b611fb6565b3480156108f657600080fd5b506103d0610905366004613282565b6120d6565b34801561091657600080fd5b506103d06109253660046133c0565b6121f6565b34801561093657600080fd5b506103d061094536600461314f565b61227e565b34801561095657600080fd5b506103d061096536600461314f565b6122ea565b34801561097657600080fd5b506104206109853660046131cd565b61243c565b34801561099657600080fd5b506103d06109a536600461314f565b6124eb565b6103d06109b83660046131cd565b612557565b3480156109c957600080fd5b5060115461039b90610100900460ff1681565b3480156109e857600080fd5b5061042061278d565b3480156109fd57600080fd5b5061039b610a0c36600461349c565b6001600160a01b03918216600090815260056020908152604080832093909416825291909152205460ff1690565b348015610a4657600080fd5b506103fd60075481565b348015610a5c57600080fd5b506103d0610a6b36600461314f565b61279c565b60006001600160e01b031982167f80ac58cd000000000000000000000000000000000000000000000000000000001480610ad357506001600160e01b031982167f5b5e139f00000000000000000000000000000000000000000000000000000000145b80610b0757507f01ffc9a7000000000000000000000000000000000000000000000000000000006001600160e01b03198316145b92915050565b6000546001600160a01b03163314610b5a5760405162461bcd60e51b815260206004820181905260248201526000805160206137e883398151915260448201526064015b60405180910390fd5b600c80546001600160a01b0319166001600160a01b0392909216919091179055565b6000546001600160a01b03163314610bc45760405162461bcd60e51b815260206004820181905260248201526000805160206137e88339815191526044820152606401610b51565b6011805460ff610100808304821615810261ff0019909316929092179283905591041615610bfa576703782dace9d90000600755565b66b1a2bc2ec500006007555b565b606060018054610c17906134cf565b80601f0160208091040260200160405190810160405280929190818152602001828054610c43906134cf565b8015610c905780601f10610c6557610100808354040283529160200191610c90565b820191906000526020600020905b815481529060010190602001808311610c7357829003601f168201915b5050505050905090565b6000610ca582612869565b610d065760405162461bcd60e51b815260206004820152602c60248201527f4552433732313a20617070726f76656420717565727920666f72206e6f6e657860448201526b34b9ba32b73a103a37b5b2b760a11b6064820152608401610b51565b506000908152600460205260409020546001600160a01b031690565b6000610d2d82611694565b9050806001600160a01b0316836001600160a01b031603610db65760405162461bcd60e51b815260206004820152602160248201527f4552433732313a20617070726f76616c20746f2063757272656e74206f776e6560448201527f72000000000000000000000000000000000000000000000000000000000000006064820152608401610b51565b336001600160a01b0382161480610df057506001600160a01b038116600090815260056020908152604080832033845290915290205460ff165b610e625760405162461bcd60e51b815260206004820152603860248201527f4552433732313a20617070726f76652063616c6c6572206973206e6f74206f7760448201527f6e6572206e6f7220617070726f76656420666f7220616c6c00000000000000006064820152608401610b51565b610e6c83836128b3565b505050565b6000546001600160a01b03163314610eb95760405162461bcd60e51b815260206004820181905260248201526000805160206137e88339815191526044820152606401610b51565b600855565b60098054610ecb906134cf565b80601f0160208091040260200160405190810160405280929190818152602001828054610ef7906134cf565b8015610f445780601f10610f1957610100808354040283529160200191610f44565b820191906000526020600020905b815481529060010190602001808311610f2757829003601f168201915b505050505081565b6000546001600160a01b03163314610f945760405162461bcd60e51b815260206004820181905260248201526000805160206137e88339815191526044820152606401610b51565b6009610e6c828483613557565b6000546001600160a01b03163314610fe95760405162461bcd60e51b815260206004820181905260248201526000805160206137e88339815191526044820152606401610b51565b600354612710610ff9838361362e565b11156110475760405162461bcd60e51b815260206004820152600860248201527f4d41585f4d494e540000000000000000000000000000000000000000000000006044820152606401610b51565b60065460649061105890849061362e565b11156110a65760405162461bcd60e51b815260206004820152600860248201527f4e4f5f47494654530000000000000000000000000000000000000000000000006044820152606401610b51565b60005b8281101561111357600680549060006110c183613641565b91905055506111018484838181106110db576110db61365a565b90506020020160208101906110f0919061314f565b836110fa81613641565b9450612921565b8061110b81613641565b9150506110a9565b50505050565b6000546001600160a01b031633146111615760405162461bcd60e51b815260206004820181905260248201526000805160206137e88339815191526044820152606401610b51565b6127108111156111c75760405162461bcd60e51b815260206004820152602b60248201527f50726f76696465206c6573732061646472657373657320696e206f6e6520667560448201526a1b98dd1a5bdb8818d85b1b60aa1b6064820152608401610b51565b60005b81811015610e6c576111fc8383838181106111e7576111e761365a565b9050602002016020810190610965919061314f565b8061120681613641565b9150506111ca565b6000546001600160a01b031633146112565760405162461bcd60e51b815260206004820181905260248201526000805160206137e88339815191526044820152606401610b51565b6001600160a01b03166000908152601060205260409020805460ff19169055565b611281338261293b565b6112f35760405162461bcd60e51b815260206004820152603160248201527f4552433732313a207472616e736665722063616c6c6572206973206e6f74206f60448201527f776e6572206e6f7220617070726f7665640000000000000000000000000000006064820152608401610b51565b610e6c838383612a25565b600e54600090815b806113da5760005b828110156113d4576000600e828154811061132b5761132b61365a565b60009182526020822001546040517f70a082310000000000000000000000000000000000000000000000000000000081526001600160a01b038981166004830152909116925082906370a0823190602401602060405180830381865afa158015611399573d6000803e3d6000fd5b505050506040513d601f19601f820116820180604052508101906113bd9190613670565b1192505080806113cc90613641565b91505061130e565b50611306565b9392505050565b6060600e805480602002602001604051908101604052809291908181526020018280548015610c9057602002820191906000526020600020905b81546001600160a01b0316815260019091019060200180831161141b575050505050905090565b6000546001600160a01b0316331461148a5760405162461bcd60e51b815260206004820181905260248201526000805160206137e88339815191526044820152606401610b51565b600d546040516001600160a01b03909116904780156108fc02916000818181858888f193505050501580156114c3573d6000803e3d6000fd5b50565b610e6c838383604051806020016040528060008152506121f6565b6000546001600160a01b031633146115295760405162461bcd60e51b815260206004820181905260248201526000805160206137e88339815191526044820152606401610b51565b61271081111561158f5760405162461bcd60e51b815260206004820152602b60248201527f50726f76696465206c6573732061646472657373657320696e206f6e6520667560448201526a1b98dd1a5bdb8818d85b1b60aa1b6064820152608401610b51565b60005b81811015610e6c576115c48383838181106115af576115af61365a565b9050602002016020810190610805919061314f565b806115ce81613641565b915050611592565b6000546001600160a01b0316331461161e5760405162461bcd60e51b815260206004820181905260248201526000805160206137e88339815191526044820152606401610b51565b600b610e6c828483613557565b6000546001600160a01b031633146116735760405162461bcd60e51b815260206004820181905260248201526000805160206137e88339815191526044820152606401610b51565b6001600160a01b03166000908152600f60205260409020805460ff19169055565b600080600383815481106116aa576116aa61365a565b6000918252602090912001546001600160a01b0316905080610b075760405162461bcd60e51b815260206004820152602960248201527f4552433732313a206f776e657220717565727920666f72206e6f6e657869737460448201527f656e7420746f6b656e00000000000000000000000000000000000000000000006064820152608401610b51565b60006001600160a01b0382166117b25760405162461bcd60e51b815260206004820152602a60248201527f4552433732313a2062616c616e636520717565727920666f7220746865207a6560448201527f726f2061646472657373000000000000000000000000000000000000000000006064820152608401610b51565b600354600090815b8181101561181057600381815481106117d5576117d561365a565b6000918252602090912001546001600160a01b0390811690861603611800576117fd83613641565b92505b61180981613641565b90506117ba565b50909392505050565b6000546001600160a01b031633146118615760405162461bcd60e51b815260206004820181905260248201526000805160206137e88339815191526044820152606401610b51565b610c066000612ba8565b60035460009061187d906126ac613689565b905090565b6000546001600160a01b031633146118ca5760405162461bcd60e51b815260206004820181905260248201526000805160206137e88339815191526044820152606401610b51565b6011805460ff19811660ff90911615179055565b601154610100900460ff161580156118f8575060115460ff165b6119445760405162461bcd60e51b815260206004820152600e60248201527f50524553414c455f434c4f5345440000000000000000000000000000000000006044820152606401610b51565b3360009081526012602052604090205460649061196290839061362e565b11156119b05760405162461bcd60e51b815260206004820152600c60248201527f4558434545445f414c4c4f4300000000000000000000000000000000000000006044820152606401610b51565b6064811115611a015760405162461bcd60e51b815260206004820152601260248201527f4558434545445f46525f5045525f4d494e5400000000000000000000000000006044820152606401610b51565b3481600754611a10919061369c565b1115611a5e5760405162461bcd60e51b815260206004820152601060248201527f494e53554646494349454e545f455448000000000000000000000000000000006044820152606401610b51565b336000908152600f602052604090205460ff1680611a805750611a80336112fe565b611ac15760405162461bcd60e51b81526020600482015260126024820152712727aa2fa0a8282927ab22a22fa12aaca2a960711b6044820152606401610b51565b3360009081526010602052604090205460ff1615611b165760405162461bcd60e51b81526020600482015260126024820152712727aa2fa0a8282927ab22a22fa12aaca2a960711b6044820152606401610b51565b600354600854611b26838361362e565b1115611b745760405162461bcd60e51b815260206004820152601960248201527f4558434545445f4d41585f50524553414c455f535550504c59000000000000006044820152606401610b51565b3360009081526012602052604081208054849290611b9390849061362e565b90915550600090505b82811015611bcb57611bb93383611bb281613641565b9450612bf8565b80611bc381613641565b915050611b9c565b506008548103611bf1576011805461ffff19166101001790556703782dace9d900006007555b5050565b6000546001600160a01b03163314611c3d5760405162461bcd60e51b815260206004820181905260248201526000805160206137e88339815191526044820152606401610b51565b600d80546001600160a01b0319166001600160a01b0392909216919091179055565b6000546001600160a01b03163314611ca75760405162461bcd60e51b815260206004820181905260248201526000805160206137e88339815191526044820152606401610b51565b6000611d0d600e805480602002602001604051908101604052809291908181526020018280548015611d0257602002820191906000526020600020905b81546001600160a01b03168152600190910190602001808311611ce4575b505050505083612d20565b90506000198113611d605760405162461bcd60e51b815260206004820181905260248201527f436f6c6c656374696f6e2041646472657373206e6f7420617661696c61626c656044820152606401610b51565b600e54600090611d7290600190613689565b9050815b81811015611e08576000611d8b82600161362e565b9050600e8181548110611da057611da061365a565b600091825260209091200154600e80546001600160a01b039092169184908110611dcc57611dcc61365a565b600091825260209091200180546001600160a01b0319166001600160a01b03929092169190911790555080611e0081613641565b915050611d76565b50600e805480611e1a57611e1a6136b3565b600082815260209020810160001990810180546001600160a01b0319169055019055505050565b6000546001600160a01b03163314611e895760405162461bcd60e51b815260206004820181905260248201526000805160206137e88339815191526044820152606401610b51565b600755565b6000546001600160a01b03163314611ed65760405162461bcd60e51b815260206004820181905260248201526000805160206137e88339815191526044820152606401610b51565b600a610e6c828483613557565b606060028054610c17906134cf565b336001600160a01b03831603611f4a5760405162461bcd60e51b815260206004820152601960248201527f4552433732313a20617070726f766520746f2063616c6c6572000000000000006044820152606401610b51565b3360008181526005602090815260408083206001600160a01b03871680855290835292819020805460ff191686151590811790915590519081529192917f17307eab39ab6107e8899845ad3d59bd9653f200f220920489ca2b5937696c31910160405180910390a35050565b6000546001600160a01b03163314611ffe5760405162461bcd60e51b815260206004820181905260248201526000805160206137e88339815191526044820152606401610b51565b6127108111156120645760405162461bcd60e51b815260206004820152602b60248201527f50726f76696465206c6573732061646472657373657320696e206f6e6520667560448201526a1b98dd1a5bdb8818d85b1b60aa1b6064820152608401610b51565b60005b81811015610e6c576001600f60008585858181106120875761208761365a565b905060200201602081019061209c919061314f565b6001600160a01b031681526020810191909152604001600020805460ff1916911515919091179055806120ce81613641565b915050612067565b6000546001600160a01b0316331461211e5760405162461bcd60e51b815260206004820181905260248201526000805160206137e88339815191526044820152606401610b51565b6127108111156121845760405162461bcd60e51b815260206004820152602b60248201527f50726f76696465206c6573732061646472657373657320696e206f6e6520667560448201526a1b98dd1a5bdb8818d85b1b60aa1b6064820152608401610b51565b60005b81811015610e6c576000600f60008585858181106121a7576121a761365a565b90506020020160208101906121bc919061314f565b6001600160a01b031681526020810191909152604001600020805460ff1916911515919091179055806121ee81613641565b915050612187565b612200338361293b565b6122725760405162461bcd60e51b815260206004820152603160248201527f4552433732313a207472616e736665722063616c6c6572206973206e6f74206f60448201527f776e6572206e6f7220617070726f7665640000000000000000000000000000006064820152608401610b51565b61111384848484612d83565b6000546001600160a01b031633146122c65760405162461bcd60e51b815260206004820181905260248201526000805160206137e88339815191526044820152606401610b51565b6001600160a01b03166000908152601060205260409020805460ff19166001179055565b6000546001600160a01b031633146123325760405162461bcd60e51b815260206004820181905260248201526000805160206137e88339815191526044820152606401610b51565b6000612396600e805480602002602001604051908101604052809291908181526020018280548015611d02576020028201919060005260206000209081546001600160a01b03168152600190910190602001808311611ce457505050505083612d20565b905080600019146123e95760405162461bcd60e51b815260206004820152601e60248201527f436f6c6c656374696f6e20697320616c726561647920417070726f76656400006044820152606401610b51565b50600e80546001810182556000919091527fbb7b4a454dc3493923482f07822329ed19e8244eff582cc204f8554c3620c3fd0180546001600160a01b0319166001600160a01b0392909216919091179055565b606061244782612869565b6124b95760405162461bcd60e51b815260206004820152602f60248201527f4552433732314d657461646174613a2055524920717565727920666f72206e6f60448201527f6e6578697374656e7420746f6b656e00000000000000000000000000000000006064820152608401610b51565b600b6124c483612e01565b6040516020016124d59291906136c9565b6040516020818303038152906040529050919050565b6000546001600160a01b031633146125335760405162461bcd60e51b815260206004820181905260248201526000805160206137e88339815191526044820152606401610b51565b6001600160a01b03166000908152600f60205260409020805460ff19166001179055565b601154610100900460ff166125ae5760405162461bcd60e51b815260206004820152600b60248201527f53414c455f434c4f5345440000000000000000000000000000000000000000006044820152606401610b51565b60115460ff16156126015760405162461bcd60e51b815260206004820152600c60248201527f4f4e4c595f50524553414c4500000000000000000000000000000000000000006044820152606401610b51565b60648111156126525760405162461bcd60e51b815260206004820152601260248201527f4558434545445f46525f5045525f4d494e5400000000000000000000000000006044820152606401610b51565b3481600754612661919061369c565b11156126af5760405162461bcd60e51b815260206004820152601060248201527f494e53554646494349454e545f455448000000000000000000000000000000006044820152606401610b51565b3360009081526010602052604090205460ff16156127045760405162461bcd60e51b81526020600482015260126024820152712727aa2fa0a8282927ab22a22fa12aaca2a960711b6044820152606401610b51565b6003546126ac612714838361362e565b11156127625760405162461bcd60e51b815260206004820152601660248201527f4558434545445f4d41585f53414c455f535550504c59000000000000000000006044820152606401610b51565b60005b82811015610e6c5761277b3383611bb281613641565b8061278581613641565b915050612765565b6060600a8054610c17906134cf565b6000546001600160a01b031633146127e45760405162461bcd60e51b815260206004820181905260248201526000805160206137e88339815191526044820152606401610b51565b6001600160a01b0381166128605760405162461bcd60e51b815260206004820152602660248201527f4f776e61626c653a206e6577206f776e657220697320746865207a65726f206160448201527f64647265737300000000000000000000000000000000000000000000000000006064820152608401610b51565b6114c381612ba8565b60035460009082108015610b07575060006001600160a01b0316600383815481106128965761289661365a565b6000918252602090912001546001600160a01b0316141592915050565b600081815260046020526040902080546001600160a01b0319166001600160a01b03841690811790915581906128e882611694565b6001600160a01b03167f8c5be1e5ebec7d5bd14f71427d1e84f3dd0314c0f7b2291e5b200ac8c7c3b92560405160405180910390a45050565b611bf1828260405180602001604052806000815250612f36565b600061294682612869565b6129a75760405162461bcd60e51b815260206004820152602c60248201527f4552433732313a206f70657261746f7220717565727920666f72206e6f6e657860448201526b34b9ba32b73a103a37b5b2b760a11b6064820152608401610b51565b60006129b283611694565b9050806001600160a01b0316846001600160a01b031614806129ed5750836001600160a01b03166129e284610c9a565b6001600160a01b0316145b80612a1d57506001600160a01b0380821660009081526005602090815260408083209388168352929052205460ff165b949350505050565b826001600160a01b0316612a3882611694565b6001600160a01b031614612ab45760405162461bcd60e51b815260206004820152602960248201527f4552433732313a207472616e73666572206f6620746f6b656e2074686174206960448201527f73206e6f74206f776e00000000000000000000000000000000000000000000006064820152608401610b51565b6001600160a01b038216612b2f5760405162461bcd60e51b8152602060048201526024808201527f4552433732313a207472616e7366657220746f20746865207a65726f2061646460448201527f72657373000000000000000000000000000000000000000000000000000000006064820152608401610b51565b612b3a6000826128b3565b8160038281548110612b4e57612b4e61365a565b6000918252602082200180546001600160a01b0319166001600160a01b03938416179055604051839285811692908716917fddf252ad1be2c89b69c2b068fc378daa952ba7f163c4a11628f55a4df523b3ef9190a4505050565b600080546001600160a01b038381166001600160a01b0319831681178455604051919092169283917f8be0079c531659141344cd1fd0a4f28419497f9722a3daafe3b4186f6b6457e09190a35050565b6001600160a01b038216612c4e5760405162461bcd60e51b815260206004820181905260248201527f4552433732313a206d696e7420746f20746865207a65726f20616464726573736044820152606401610b51565b612c5781612869565b15612ca45760405162461bcd60e51b815260206004820152601c60248201527f4552433732313a20746f6b656e20616c7265616479206d696e746564000000006044820152606401610b51565b6003805460018101825560009182527fc2575a0e9e593c00f959f8c92f12db2869c3395a3b0502d05e2516446f71f85b0180546001600160a01b0319166001600160a01b0385169081179091556040518392907fddf252ad1be2c89b69c2b068fc378daa952ba7f163c4a11628f55a4df523b3ef908290a45050565b6000805b8351811015612d7857826001600160a01b0316848281518110612d4957612d4961365a565b60200260200101516001600160a01b031603612d66579050610b07565b80612d7081613641565b915050612d24565b506000199392505050565b612d8e848484612a25565b612d9a84848484612fb4565b6111135760405162461bcd60e51b815260206004820152603260248201527f4552433732313a207472616e7366657220746f206e6f6e20455243373231526560448201527131b2b4bb32b91034b6b83632b6b2b73a32b960711b6064820152608401610b51565b606081600003612e4457505060408051808201909152600181527f3000000000000000000000000000000000000000000000000000000000000000602082015290565b8160005b8115612e6e5780612e5881613641565b9150612e679050600a83613766565b9150612e48565b60008167ffffffffffffffff811115612e8957612e896133aa565b6040519080825280601f01601f191660200182016040528015612eb3576020820181803683370190505b5090505b8415612a1d57612ec8600183613689565b9150612ed5600a8661377a565b612ee090603061362e565b60f81b818381518110612ef557612ef561365a565b60200101907effffffffffffffffffffffffffffffffffffffffffffffffffffffffffffff1916908160001a905350612f2f600a86613766565b9450612eb7565b612f408383612bf8565b612f4d6000848484612fb4565b610e6c5760405162461bcd60e51b815260206004820152603260248201527f4552433732313a207472616e7366657220746f206e6f6e20455243373231526560448201527131b2b4bb32b91034b6b83632b6b2b73a32b960711b6064820152608401610b51565b60006001600160a01b0384163b156130f557604051630a85bd0160e11b81526001600160a01b0385169063150b7a0290612ff890339089908890889060040161378e565b6020604051808303816000875af1925050508015613033575060408051601f3d908101601f19168201909252613030918101906137ca565b60015b6130db573d808015613061576040519150601f19603f3d011682016040523d82523d6000602084013e613066565b606091505b5080516000036130d35760405162461bcd60e51b815260206004820152603260248201527f4552433732313a207472616e7366657220746f206e6f6e20455243373231526560448201527131b2b4bb32b91034b6b83632b6b2b73a32b960711b6064820152608401610b51565b805181602001fd5b6001600160e01b031916630a85bd0160e11b149050612a1d565b506001949350505050565b6001600160e01b0319811681146114c357600080fd5b60006020828403121561312857600080fd5b81356113da81613100565b80356001600160a01b038116811461314a57600080fd5b919050565b60006020828403121561316157600080fd5b6113da82613133565b60005b8381101561318557818101518382015260200161316d565b50506000910152565b600081518084526131a681602086016020860161316a565b601f01601f19169290920160200192915050565b6020815260006113da602083018461318e565b6000602082840312156131df57600080fd5b5035919050565b600080604083850312156131f957600080fd5b61320283613133565b946020939093013593505050565b6000806020838503121561322357600080fd5b823567ffffffffffffffff8082111561323b57600080fd5b818501915085601f83011261324f57600080fd5b81358181111561325e57600080fd5b86602082850101111561327057600080fd5b60209290920196919550909350505050565b6000806020838503121561329557600080fd5b823567ffffffffffffffff808211156132ad57600080fd5b818501915085601f8301126132c157600080fd5b8135818111156132d057600080fd5b8660208260051b850101111561327057600080fd5b6000806000606084860312156132fa57600080fd5b61330384613133565b925061331160208501613133565b9150604084013590509250925092565b6020808252825182820181905260009190848201906040850190845b818110156133625783516001600160a01b03168352928401929184019160010161333d565b50909695505050505050565b6000806040838503121561338157600080fd5b61338a83613133565b91506020830135801515811461339f57600080fd5b809150509250929050565b634e487b7160e01b600052604160045260246000fd5b600080600080608085870312156133d657600080fd5b6133df85613133565b93506133ed60208601613133565b925060408501359150606085013567ffffffffffffffff8082111561341157600080fd5b818701915087601f83011261342557600080fd5b813581811115613437576134376133aa565b604051601f8201601f19908116603f0116810190838211818310171561345f5761345f6133aa565b816040528281528a602084870101111561347857600080fd5b82602086016020830137600060208483010152809550505050505092959194509250565b600080604083850312156134af57600080fd5b6134b883613133565b91506134c660208401613133565b90509250929050565b600181811c908216806134e357607f821691505b60208210810361350357634e487b7160e01b600052602260045260246000fd5b50919050565b601f821115610e6c57600081815260208120601f850160051c810160208610156135305750805b601f850160051c820191505b8181101561354f5782815560010161353c565b505050505050565b67ffffffffffffffff83111561356f5761356f6133aa565b6135838361357d83546134cf565b83613509565b6000601f8411600181146135b7576000851561359f5750838201355b600019600387901b1c1916600186901b178355613611565b600083815260209020601f19861690835b828110156135e857868501358255602094850194600190920191016135c8565b50868210156136055760001960f88860031b161c19848701351681555b505060018560011b0183555b5050505050565b634e487b7160e01b600052601160045260246000fd5b80820180821115610b0757610b07613618565b60006001820161365357613653613618565b5060010190565b634e487b7160e01b600052603260045260246000fd5b60006020828403121561368257600080fd5b5051919050565b81810381811115610b0757610b07613618565b8082028115828204841417610b0757610b07613618565b634e487b7160e01b600052603160045260246000fd5b60008084546136d7816134cf565b600182811680156136ef576001811461370457613733565b60ff1984168752821515830287019450613733565b8860005260208060002060005b8581101561372a5781548a820152908401908201613711565b50505082870194505b50505050835161374781836020880161316a565b01949350505050565b634e487b7160e01b600052601260045260246000fd5b60008261377557613775613750565b500490565b60008261378957613789613750565b500690565b60006001600160a01b038087168352808616602084015250836040830152608060608301526137c0608083018461318e565b9695505050505050565b6000602082840312156137dc57600080fd5b81516113da8161310056fe4f776e61626c653a2063616c6c6572206973206e6f7420746865206f776e6572a2646970667358221220acb3512e8a996d049c9d432be303c894e6d9baefd3b7c3b9961282533ae4f7ba64736f6c63430008110033",
  "linkReferences": {},
  "deployedLinkReferences": {}
}