{
  "_format": "hh-sol-artifact-1",
  "contractName": "StreamA",
  "sourceName": "contracts/StreamA.sol",
  "abi": [
    {
      "inputs": [],
      "stateMutability": "nonpayable",
      "type": "constructor"
    },
    {
      "anonymous": false,
      "inputs": [
        {
          "indexed": true,
          "internalType": "address",
          "name": "owner",
          "type": "address"
        },
        {
          "indexed": true,
          "internalType": "address",
          "name": "approved",
          "type": "address"
        },
        {
          "indexed": true,
          "internalType": "uint256",
          "name": "tokenId",
          "type": "uint256"
        }
      ],
      "name": "Approval",
      "type": "event"
    },
    {
      "anonymous": false,
      "inputs": [
        {
          "indexed": true,
          "internalType": "address",
          "name": "owner",
          "type": "address"
        },
        {
          "indexed": true,
          "internalType": "address",
          "name": "operator",
          "type": "address"
        },
        {
          "indexed": false,
          "internalType": "bool",
          "name": "approved",
          "type": "bool"
        }
      ],
      "name": "ApprovalForAll",
      "type": "event"
    },
    {
      "anonymous": false,
      "inputs": [
        {
          "indexed": true,
          "internalType": "address",
          "name": "previousOwner",
          "type": "address"
        },
        {
          "indexed": true,
          "internalType": "address",
          "name": "newOwner",
          "type": "address"
        }
      ],
      "name": "OwnershipTransferred",
      "type": "event"
    },
    {
      "anonymous": false,
      "inputs": [
        {
          "indexed": true,
          "internalType": "address",
          "name": "from",
          "type": "address"
        },
        {
          "indexed": true,
          "internalType": "address",
          "name": "to",
          "type": "address"
        },
        {
          "indexed": true,
          "internalType": "uint256",
          "name": "tokenId",
          "type": "uint256"
        }
      ],
      "name": "Transfer",
      "type": "event"
    },
    {
      "inputs": [],
      "name": "FR_GIFT",
      "outputs": [
        {
          "internalType": "uint256",
          "name": "",
          "type": "uint256"
        }
      ],
      "stateMutability": "view",
      "type": "function"
    },
    {
      "inputs": [],
      "name": "FR_PER_MINT",
      "outputs": [
        {
          "internalType": "uint256",
          "name": "",
          "type": "uint256"
        }
      ],
      "stateMutability": "view",
      "type": "function"
    },
    {
      "inputs": [],
      "name": "FR_PRICE",
      "outputs": [
        {
          "internalType": "uint256",
          "name": "",
          "type": "uint256"
        }
      ],
      "stateMutability": "view",
      "type": "function"
    },
    {
      "inputs": [],
      "name": "FR_PUBLIC",
      "outputs": [
        {
          "internalType": "uint256",
          "name": "",
          "type": "uint256"
        }
      ],
      "stateMutability": "view",
      "type": "function"
    },
    {
      "inputs": [],
      "name": "PRESALE_LIMIT",
      "outputs": [
        {
          "internalType": "uint256",
          "name": "",
          "type": "uint256"
        }
      ],
      "stateMutability": "view",
      "type": "function"
    },
    {
      "inputs": [
        {
          "internalType": "address[]",
          "name": "_addresses",
          "type": "address[]"
        }
      ],
      "name": "addMultipleToApproveList",
      "outputs": [],
      "stateMutability": "nonpayable",
      "type": "function"
    },
    {
      "inputs": [
        {
          "internalType": "address",
          "name": "_newAddress",
          "type": "address"
        }
      ],
      "name": "addToDenyList",
      "outputs": [],
      "stateMutability": "nonpayable",
      "type": "function"
    },
    {
      "inputs": [
        {
          "internalType": "address",
          "name": "to",
          "type": "address"
        },
        {
          "internalType": "uint256",
          "name": "tokenId",
          "type": "uint256"
        }
      ],
      "name": "approve",
      "outputs": [],
      "stateMutability": "nonpayable",
      "type": "function"
    },
    {
      "inputs": [
        {
          "internalType": "address",
          "name": "",
          "type": "address"
        }
      ],
      "name": "approvelist",
      "outputs": [
        {
          "internalType": "bool",
          "name": "",
          "type": "bool"
        }
      ],
      "stateMutability": "view",
      "type": "function"
    },
    {
      "inputs": [],
      "name": "availableToMint",
      "outputs": [
        {
          "internalType": "uint256",
          "name": "",
          "type": "uint256"
        }
      ],
      "stateMutability": "view",
      "type": "function"
    },
    {
      "inputs": [
        {
          "internalType": "address",
          "name": "owner",
          "type": "address"
        }
      ],
      "name": "balanceOf",
      "outputs": [
        {
          "internalType": "uint256",
          "name": "",
          "type": "uint256"
        }
      ],
      "stateMutability": "view",
      "type": "function"
    },
    {
      "inputs": [
        {
          "internalType": "uint256",
          "name": "tokenQuantity",
          "type": "uint256"
        }
      ],
      "name": "buy",
      "outputs": [],
      "stateMutability": "payable",
      "type": "function"
    },
    {
      "inputs": [],
      "name": "contractURI",
      "outputs": [
        {
          "internalType": "string",
          "name": "",
          "type": "string"
        }
      ],
      "stateMutability": "view",
      "type": "function"
    },
    {
      "inputs": [],
      "name": "deleteDefaultRoyalty",
      "outputs": [],
      "stateMutability": "nonpayable",
      "type": "function"
    },
    {
      "inputs": [
        {
          "internalType": "address",
          "name": "",
          "type": "address"
        }
      ],
      "name": "denylist",
      "outputs": [
        {
          "internalType": "bool",
          "name": "",
          "type": "bool"
        }
      ],
      "stateMutability": "view",
      "type": "function"
    },
    {
      "inputs": [
        {
          "internalType": "uint256",
          "name": "tokenId",
          "type": "uint256"
        }
      ],
      "name": "getApproved",
      "outputs": [
        {
          "internalType": "address",
          "name": "",
          "type": "address"
        }
      ],
      "stateMutability": "view",
      "type": "function"
    },
    {
      "inputs": [
        {
          "internalType": "address[]",
          "name": "receivers",
          "type": "address[]"
        }
      ],
      "name": "gift",
      "outputs": [],
      "stateMutability": "nonpayable",
      "type": "function"
    },
    {
      "inputs": [],
      "name": "giftedAmount",
      "outputs": [
        {
          "internalType": "uint256",
          "name": "",
          "type": "uint256"
        }
      ],
      "stateMutability": "view",
      "type": "function"
    },
    {
      "inputs": [
        {
          "internalType": "address",
          "name": "owner",
          "type": "address"
        },
        {
          "internalType": "address",
          "name": "operator",
          "type": "address"
        }
      ],
      "name": "isApprovedForAll",
      "outputs": [
        {
          "internalType": "bool",
          "name": "",
          "type": "bool"
        }
      ],
      "stateMutability": "view",
      "type": "function"
    },
    {
      "inputs": [],
      "name": "name",
      "outputs": [
        {
          "internalType": "string",
          "name": "",
          "type": "string"
        }
      ],
      "stateMutability": "view",
      "type": "function"
    },
    {
      "inputs": [],
      "name": "owner",
      "outputs": [
        {
          "internalType": "address",
          "name": "",
          "type": "address"
        }
      ],
      "stateMutability": "view",
      "type": "function"
    },
    {
      "inputs": [
        {
          "internalType": "uint256",
          "name": "tokenId",
          "type": "uint256"
        }
      ],
      "name": "ownerOf",
      "outputs": [
        {
          "internalType": "address",
          "name": "",
          "type": "address"
        }
      ],
      "stateMutability": "view",
      "type": "function"
    },
    {
      "inputs": [
        {
          "internalType": "uint256",
          "name": "tokenQuantity",
          "type": "uint256"
        },
        {
          "internalType": "bytes32[]",
          "name": "merkleProof",
          "type": "bytes32[]"
        },
        {
          "internalType": "address",
          "name": "collection",
          "type": "address"
        }
      ],
      "name": "presaleBuy",
      "outputs": [],
      "stateMutability": "payable",
      "type": "function"
    },
    {
      "inputs": [],
      "name": "presaleLive",
      "outputs": [
        {
          "internalType": "bool",
          "name": "",
          "type": "bool"
        }
      ],
      "stateMutability": "view",
      "type": "function"
    },
    {
      "inputs": [
        {
          "internalType": "address",
          "name": "addr",
          "type": "address"
        }
      ],
      "name": "presalePurchasedCount",
      "outputs": [
        {
          "internalType": "uint256",
          "name": "",
          "type": "uint256"
        }
      ],
      "stateMutability": "view",
      "type": "function"
    },
    {
      "inputs": [
        {
          "internalType": "address",
          "name": "",
          "type": "address"
        }
      ],
      "name": "presalerListPurchases",
      "outputs": [
        {
          "internalType": "uint256",
          "name": "",
          "type": "uint256"
        }
      ],
      "stateMutability": "view",
      "type": "function"
    },
    {
      "inputs": [],
      "name": "provenance",
      "outputs": [
        {
          "internalType": "string",
          "name": "",
          "type": "string"
        }
      ],
      "stateMutability": "view",
      "type": "function"
    },
    {
      "inputs": [
        {
          "internalType": "address",
          "name": "_address",
          "type": "address"
        }
      ],
      "name": "removeFromDenyList",
      "outputs": [],
      "stateMutability": "nonpayable",
      "type": "function"
    },
    {
      "inputs": [
        {
          "internalType": "address[]",
          "name": "_addresses",
          "type": "address[]"
        }
      ],
      "name": "removeMultipleFromApproveList",
      "outputs": [],
      "stateMutability": "nonpayable",
      "type": "function"
    },
    {
      "inputs": [],
      "name": "renounceOwnership",
      "outputs": [],
      "stateMutability": "nonpayable",
      "type": "function"
    },
    {
      "inputs": [
        {
          "internalType": "uint256",
          "name": "_tokenId",
          "type": "uint256"
        },
        {
          "internalType": "uint256",
          "name": "_salePrice",
          "type": "uint256"
        }
      ],
      "name": "royaltyInfo",
      "outputs": [
        {
          "internalType": "address",
          "name": "",
          "type": "address"
        },
        {
          "internalType": "uint256",
          "name": "",
          "type": "uint256"
        }
      ],
      "stateMutability": "view",
      "type": "function"
    },
    {
      "inputs": [
        {
          "internalType": "address",
          "name": "from",
          "type": "address"
        },
        {
          "internalType": "address",
          "name": "to",
          "type": "address"
        },
        {
          "internalType": "uint256",
          "name": "tokenId",
          "type": "uint256"
        }
      ],
      "name": "safeTransferFrom",
      "outputs": [],
      "stateMutability": "nonpayable",
      "type": "function"
    },
    {
      "inputs": [
        {
          "internalType": "address",
          "name": "from",
          "type": "address"
        },
        {
          "internalType": "address",
          "name": "to",
          "type": "address"
        },
        {
          "internalType": "uint256",
          "name": "tokenId",
          "type": "uint256"
        },
        {
          "internalType": "bytes",
          "name": "_data",
          "type": "bytes"
        }
      ],
      "name": "safeTransferFrom",
      "outputs": [],
      "stateMutability": "nonpayable",
      "type": "function"
    },
    {
      "inputs": [],
      "name": "saleLive",
      "outputs": [
        {
          "internalType": "bool",
          "name": "",
          "type": "bool"
        }
      ],
      "stateMutability": "view",
      "type": "function"
    },
    {
      "inputs": [
        {
          "internalType": "address",
          "name": "operator",
          "type": "address"
        },
        {
          "internalType": "bool",
          "name": "approved",
          "type": "bool"
        }
      ],
      "name": "setApprovalForAll",
      "outputs": [],
      "stateMutability": "nonpayable",
      "type": "function"
    },
    {
      "inputs": [
        {
          "internalType": "string",
          "name": "URI",
          "type": "string"
        }
      ],
      "name": "setBaseURI",
      "outputs": [],
      "stateMutability": "nonpayable",
      "type": "function"
    },
    {
      "inputs": [
        {
          "internalType": "string",
          "name": "URI",
          "type": "string"
        }
      ],
      "name": "setContractURI",
      "outputs": [],
      "stateMutability": "nonpayable",
      "type": "function"
    },
    {
      "inputs": [
        {
          "internalType": "address",
          "name": "recipient",
          "type": "address"
        },
        {
          "internalType": "uint96",
          "name": "fraction",
          "type": "uint96"
        }
      ],
      "name": "setDefaultRoyalty",
      "outputs": [],
      "stateMutability": "nonpayable",
      "type": "function"
    },
    {
      "inputs": [
        {
          "internalType": "bytes32",
          "name": "root",
          "type": "bytes32"
        }
      ],
      "name": "setMerkleRoot",
      "outputs": [],
      "stateMutability": "nonpayable",
      "type": "function"
    },
    {
      "inputs": [
        {
          "internalType": "uint256",
          "name": "amount",
          "type": "uint256"
        }
      ],
      "name": "setPreSaleLimit",
      "outputs": [],
      "stateMutability": "nonpayable",
      "type": "function"
    },
    {
      "inputs": [
        {
          "internalType": "uint256",
          "name": "amount",
          "type": "uint256"
        }
      ],
      "name": "setPrice",
      "outputs": [],
      "stateMutability": "nonpayable",
      "type": "function"
    },
    {
      "inputs": [
        {
          "internalType": "string",
          "name": "hash",
          "type": "string"
        }
      ],
      "name": "setProvenanceHash",
      "outputs": [],
      "stateMutability": "nonpayable",
      "type": "function"
    },
    {
      "inputs": [
        {
          "internalType": "address",
          "name": "addr",
          "type": "address"
        }
      ],
      "name": "setSignerAddress",
      "outputs": [],
      "stateMutability": "nonpayable",
      "type": "function"
    },
    {
      "inputs": [
        {
          "internalType": "uint256",
          "name": "tokenId",
          "type": "uint256"
        },
        {
          "internalType": "address",
          "name": "recipient",
          "type": "address"
        },
        {
          "internalType": "uint96",
          "name": "fraction",
          "type": "uint96"
        }
      ],
      "name": "setTokenRoyalty",
      "outputs": [],
      "stateMutability": "nonpayable",
      "type": "function"
    },
    {
      "inputs": [
        {
          "internalType": "address",
          "name": "addr",
          "type": "address"
        }
      ],
      "name": "setVaultAddress",
      "outputs": [],
      "stateMutability": "nonpayable",
      "type": "function"
    },
    {
      "inputs": [
        {
          "internalType": "bytes4",
          "name": "interfaceId",
          "type": "bytes4"
        }
      ],
      "name": "supportsInterface",
      "outputs": [
        {
          "internalType": "bool",
          "name": "",
          "type": "bool"
        }
      ],
      "stateMutability": "view",
      "type": "function"
    },
    {
      "inputs": [],
      "name": "symbol",
      "outputs": [
        {
          "internalType": "string",
          "name": "",
          "type": "string"
        }
      ],
      "stateMutability": "view",
      "type": "function"
    },
    {
      "inputs": [],
      "name": "togglePresaleStatus",
      "outputs": [],
      "stateMutability": "nonpayable",
      "type": "function"
    },
    {
      "inputs": [],
      "name": "toggleSaleStatus",
      "outputs": [],
      "stateMutability": "nonpayable",
      "type": "function"
    },
    {
      "inputs": [
        {
          "internalType": "uint256",
          "name": "tokenId",
          "type": "uint256"
        }
      ],
      "name": "tokenURI",
      "outputs": [
        {
          "internalType": "string",
          "name": "",
          "type": "string"
        }
      ],
      "stateMutability": "view",
      "type": "function"
    },
    {
      "inputs": [],
      "name": "totalSupply",
      "outputs": [
        {
          "internalType": "uint256",
          "name": "",
          "type": "uint256"
        }
      ],
      "stateMutability": "view",
      "type": "function"
    },
    {
      "inputs": [
        {
          "internalType": "address",
          "name": "from",
          "type": "address"
        },
        {
          "internalType": "address",
          "name": "to",
          "type": "address"
        },
        {
          "internalType": "uint256",
          "name": "tokenId",
          "type": "uint256"
        }
      ],
      "name": "transferFrom",
      "outputs": [],
      "stateMutability": "nonpayable",
      "type": "function"
    },
    {
      "inputs": [
        {
          "internalType": "address",
          "name": "newOwner",
          "type": "address"
        }
      ],
      "name": "transferOwnership",
      "outputs": [],
      "stateMutability": "nonpayable",
      "type": "function"
    },
    {
      "inputs": [
        {
          "internalType": "address",
          "name": "collection",
          "type": "address"
        },
        {
          "internalType": "bytes32[]",
          "name": "merkleProof",
          "type": "bytes32[]"
        }
      ],
      "name": "verifyLeaf",
      "outputs": [
        {
          "internalType": "bool",
          "name": "",
          "type": "bool"
        }
      ],
      "stateMutability": "view",
      "type": "function"
    },
    {
      "inputs": [],
      "name": "withdraw",
      "outputs": [],
      "stateMutability": "nonpayable",
      "type": "function"
    }
  ],
  "bytecode": "0x6080604052600e80546001600160a01b0319908116739d582750f758b6a2dc2397669e55a19099aa18ee17909155600f8054909116738d6f7759ed866d850c15c35e665de7e06765ff381790557f35a662cbb7d3cc9bfb022c5d620643105be0b03accb75fc162414ab9da1cabba6010553480156200007d57600080fd5b50604051806040016040528060098152602001680a6e8e4cac2da4082760bb1b815250604051806040016040528060038152602001620a682760eb1b815250620000d6620000d06200016b60201b60201c565b6200016f565b6003620000e4838262000379565b506004620000f3828262000379565b50506103e8600a555066b1a2bc2ec5000060095560408051808201909152601f81527f68747470733a2f2f73702e7261642e6c6976652f73747265616d706173732f006020820152600d906200014a908262000379565b50600f5462000165906001600160a01b0316610bb8620001bf565b62000445565b3390565b600080546001600160a01b038381166001600160a01b0319831681178455604051919092169283917f8be0079c531659141344cd1fd0a4f28419497f9722a3daafe3b4186f6b6457e09190a35050565b620001cb8282620001cf565b5050565b6127106001600160601b0382161115620002435760405162461bcd60e51b815260206004820152602a60248201527f455243323938313a20726f79616c7479206665652077696c6c206578636565646044820152692073616c65507269636560b01b60648201526084015b60405180910390fd5b6001600160a01b0382166200029b5760405162461bcd60e51b815260206004820152601960248201527f455243323938313a20696e76616c69642072656365697665720000000000000060448201526064016200023a565b604080518082019091526001600160a01b039092168083526001600160601b039091166020909201829052600160a01b90910217600155565b634e487b7160e01b600052604160045260246000fd5b600181811c90821680620002ff57607f821691505b6020821081036200032057634e487b7160e01b600052602260045260246000fd5b50919050565b601f8211156200037457600081815260208120601f850160051c810160208610156200034f5750805b601f850160051c820191505b8181101562000370578281556001016200035b565b5050505b505050565b81516001600160401b03811115620003955762000395620002d4565b620003ad81620003a68454620002ea565b8462000326565b602080601f831160018114620003e55760008415620003cc5750858301515b600019600386901b1c1916600185901b17855562000370565b600085815260208120601f198616915b828110156200041657888601518255948401946001909101908401620003f5565b5085821015620004355787850151600019600388901b60f8161c191681555b5050505050600190811b01905550565b61373180620004556000396000f3fe6080604052600436106103605760003560e01c806370a08231116101c6578063a68157cd116100f7578063c87b56dd11610095578063e8a3d4851161006f578063e8a3d48514610997578063e985e9c5146109ac578063f146877a146109f5578063f2fde38b14610a0b57600080fd5b8063c87b56dd14610945578063d96a094a14610965578063e081b7811461097857600080fd5b8063b88d4fde116100d1578063b88d4fde146108f2578063b903364c14610912578063c0b3060314610639578063c4bc0c501461093257600080fd5b8063a68157cd1461089d578063aa1b103f146108bd578063abf23f20146108d257600080fd5b806385535cc511610164578063938e3d7b1161013e578063938e3d7b1461081b57806395d89b411461083b5780639bf8031614610850578063a22cb4651461087d57600080fd5b806385535cc5146107bd5780638da5cb5b146107dd57806391b7f5ed146107fb57600080fd5b80637bffb4ce116101a05780637bffb4ce1461074e5780637cb647591461076357806380cfc8cc1461078357806383a9e049146107a357600080fd5b806370a0823114610704578063715018a61461072457806374601c3c1461073957600080fd5b806318160ddd116102a05780633ccfd60b1161023e57806355f804b31161021857806355f804b31461066e5780635944c7531461068e5780635ce7af1f146106ae5780636352211e146106e457600080fd5b80633ccfd60b146106245780633cef98361461063957806342842e0e1461064e57600080fd5b8063215048cd1161027a578063215048cd1461057557806323b872dd146105955780632a55205a146105b55780633371bfff146105f457600080fd5b806318160ddd146105345780631aee3f91146105495780631b57190e1461055f57600080fd5b8063081812fc1161030d5780630f061627116102e75780630f061627146104af5780630f7309e8146104df57806310969523146104f4578063163e1e611461051457600080fd5b8063081812fc14610437578063095ea7b31461046f5780630b1f703c1461048f57600080fd5b8063049c5c491161033e578063049c5c49146103dc578063051e93dc146103f157806306fdde031461041557600080fd5b806301ffc9a71461036557806304634d8d1461039a578063046dc166146103bc575b600080fd5b34801561037157600080fd5b50610385610380366004612f0e565b610a2b565b60405190151581526020015b60405180910390f35b3480156103a657600080fd5b506103ba6103b5366004612f63565b610a3c565b005b3480156103c857600080fd5b506103ba6103d7366004612f96565b610a4a565b3480156103e857600080fd5b506103ba610ab9565b3480156103fd57600080fd5b506104076126ac81565b604051908152602001610391565b34801561042157600080fd5b5061042a610b45565b6040516103919190613001565b34801561044357600080fd5b50610457610452366004613014565b610bd7565b6040516001600160a01b039091168152602001610391565b34801561047b57600080fd5b506103ba61048a36600461302d565b610c5f565b34801561049b57600080fd5b506103ba6104aa366004613014565b610dae565b3480156104bb57600080fd5b506103856104ca366004612f96565b60116020526000908152604090205460ff1681565b3480156104eb57600080fd5b5061042a610dfb565b34801561050057600080fd5b506103ba61050f366004613057565b610e89565b34801561052057600080fd5b506103ba61052f36600461310e565b610ede565b34801561054057600080fd5b50600554610407565b34801561055557600080fd5b50610407600a5481565b34801561056b57600080fd5b5061040760085481565b34801561058157600080fd5b506103ba610590366004612f96565b611056565b3480156105a157600080fd5b506103ba6105b0366004613150565b6110bf565b3480156105c157600080fd5b506105d56105d036600461318c565b611242565b604080516001600160a01b039093168352602083019190915201610391565b34801561060057600080fd5b5061038561060f366004612f96565b60126020526000908152604090205460ff1681565b34801561063057600080fd5b506103ba6112ff565b34801561064557600080fd5b50610407606481565b34801561065a57600080fd5b506103ba610669366004613150565b611383565b34801561067a57600080fd5b506103ba610689366004613057565b61139e565b34801561069a57600080fd5b506103ba6106a93660046131ae565b6113f3565b3480156106ba57600080fd5b506104076106c9366004612f96565b6001600160a01b031660009081526014602052604090205490565b3480156106f057600080fd5b506104576106ff366004613014565b6113fe565b34801561071057600080fd5b5061040761071f366004612f96565b61149e565b34801561073057600080fd5b506103ba611583565b34801561074557600080fd5b506104076115d5565b34801561075a57600080fd5b506103ba6115ec565b34801561076f57600080fd5b506103ba61077e366004613014565b611648565b34801561078f57600080fd5b5061038561079e3660046131ea565b611695565b3480156107af57600080fd5b506013546103859060ff1681565b3480156107c957600080fd5b506103ba6107d8366004612f96565b61171c565b3480156107e957600080fd5b506000546001600160a01b0316610457565b34801561080757600080fd5b506103ba610816366004613014565b611786565b34801561082757600080fd5b506103ba610836366004613057565b6117d3565b34801561084757600080fd5b5061042a611828565b34801561085c57600080fd5b5061040761086b366004612f96565b60146020526000908152604090205481565b34801561088957600080fd5b506103ba61089836600461323d565b611837565b3480156108a957600080fd5b506103ba6108b836600461310e565b6118fb565b3480156108c957600080fd5b506103ba611a1b565b3480156108de57600080fd5b506103ba6108ed36600461310e565b611a25565b3480156108fe57600080fd5b506103ba61090d36600461328f565b611b45565b34801561091e57600080fd5b506103ba61092d366004612f96565b611bcd565b6103ba61094036600461336b565b611c39565b34801561095157600080fd5b5061042a610960366004613014565b611f6b565b6103ba610973366004613014565b61201a565b34801561098457600080fd5b5060135461038590610100900460ff1681565b3480156109a357600080fd5b5061042a61225b565b3480156109b857600080fd5b506103856109c73660046133c9565b6001600160a01b03918216600090815260076020908152604080832093909416825291909152205460ff1690565b348015610a0157600080fd5b5061040760095481565b348015610a1757600080fd5b506103ba610a26366004612f96565b61226a565b6000610a3682612337565b92915050565b610a4682826123a9565b5050565b6000546001600160a01b03163314610a975760405162461bcd60e51b815260206004820181905260248201526000805160206136dc83398151915260448201526064015b60405180910390fd5b600e80546001600160a01b0319166001600160a01b0392909216919091179055565b6000546001600160a01b03163314610b015760405162461bcd60e51b815260206004820181905260248201526000805160206136dc8339815191526044820152606401610a8e565b6013805460ff610100808304821615810261ff0019909316929092179283905591041615610b3757670214e8348c4f0000600955565b66b1a2bc2ec500006009555b565b606060038054610b54906133f3565b80601f0160208091040260200160405190810160405280929190818152602001828054610b80906133f3565b8015610bcd5780601f10610ba257610100808354040283529160200191610bcd565b820191906000526020600020905b815481529060010190602001808311610bb057829003601f168201915b5050505050905090565b6000610be2826124b0565b610c435760405162461bcd60e51b815260206004820152602c60248201527f4552433732313a20617070726f76656420717565727920666f72206e6f6e657860448201526b34b9ba32b73a103a37b5b2b760a11b6064820152608401610a8e565b506000908152600660205260409020546001600160a01b031690565b6000610c6a826113fe565b9050806001600160a01b0316836001600160a01b031603610cf35760405162461bcd60e51b815260206004820152602160248201527f4552433732313a20617070726f76616c20746f2063757272656e74206f776e6560448201527f72000000000000000000000000000000000000000000000000000000000000006064820152608401610a8e565b336001600160a01b0382161480610d2d57506001600160a01b038116600090815260076020908152604080832033845290915290205460ff165b610d9f5760405162461bcd60e51b815260206004820152603860248201527f4552433732313a20617070726f76652063616c6c6572206973206e6f74206f7760448201527f6e6572206e6f7220617070726f76656420666f7220616c6c00000000000000006064820152608401610a8e565b610da983836124fa565b505050565b6000546001600160a01b03163314610df65760405162461bcd60e51b815260206004820181905260248201526000805160206136dc8339815191526044820152606401610a8e565b600a55565b600b8054610e08906133f3565b80601f0160208091040260200160405190810160405280929190818152602001828054610e34906133f3565b8015610e815780601f10610e5657610100808354040283529160200191610e81565b820191906000526020600020905b815481529060010190602001808311610e6457829003601f168201915b505050505081565b6000546001600160a01b03163314610ed15760405162461bcd60e51b815260206004820181905260248201526000805160206136dc8339815191526044820152606401610a8e565b600b610da982848361347b565b6000546001600160a01b03163314610f265760405162461bcd60e51b815260206004820181905260248201526000805160206136dc8339815191526044820152606401610a8e565b6005546126ac610f368383613551565b1115610f845760405162461bcd60e51b815260206004820152600860248201527f4d41585f4d494e540000000000000000000000000000000000000000000000006044820152606401610a8e565b600854606490610f95908490613551565b1115610fe35760405162461bcd60e51b815260206004820152600860248201527f4e4f5f47494654530000000000000000000000000000000000000000000000006044820152606401610a8e565b60005b828110156110505760088054906000610ffe83613564565b919050555061103e8484838181106110185761101861357d565b905060200201602081019061102d9190612f96565b8361103781613564565b9450612568565b8061104881613564565b915050610fe6565b50505050565b6000546001600160a01b0316331461109e5760405162461bcd60e51b815260206004820181905260248201526000805160206136dc8339815191526044820152606401610a8e565b6001600160a01b03166000908152601260205260409020805460ff19169055565b6001600160a01b0383166111155760405162461bcd60e51b815260206004820152601460248201527f696e76616c69642066726f6d20616464726573730000000000000000000000006044820152606401610a8e565b6001600160a01b03821661116b5760405162461bcd60e51b815260206004820152601260248201527f696e76616c696420746f206164647265737300000000000000000000000000006044820152606401610a8e565b600081116111bb5760405162461bcd60e51b815260206004820152600f60248201527f696e76616c696420746f6b656e496400000000000000000000000000000000006044820152606401610a8e565b6111c53382612582565b6112375760405162461bcd60e51b815260206004820152603160248201527f4552433732313a207472616e736665722063616c6c6572206973206e6f74206f60448201527f776e6572206e6f7220617070726f7665640000000000000000000000000000006064820152608401610a8e565b610da983838361266c565b60008281526002602090815260408083208151808301909252546001600160a01b038116808352600160a01b9091046bffffffffffffffffffffffff169282019290925282916112c15750604080518082019091526001546001600160a01b0381168252600160a01b90046bffffffffffffffffffffffff1660208201525b6020810151600090612710906112e5906bffffffffffffffffffffffff1687613593565b6112ef91906135c0565b91519350909150505b9250929050565b6000546001600160a01b031633146113475760405162461bcd60e51b815260206004820181905260248201526000805160206136dc8339815191526044820152606401610a8e565b600f546040516001600160a01b03909116904780156108fc02916000818181858888f19350505050158015611380573d6000803e3d6000fd5b50565b610da983838360405180602001604052806000815250611b45565b6000546001600160a01b031633146113e65760405162461bcd60e51b815260206004820181905260248201526000805160206136dc8339815191526044820152606401610a8e565b600d610da982848361347b565b610da98383836127ef565b600080600583815481106114145761141461357d565b6000918252602090912001546001600160a01b0316905080610a365760405162461bcd60e51b815260206004820152602960248201527f4552433732313a206f776e657220717565727920666f72206e6f6e657869737460448201527f656e7420746f6b656e00000000000000000000000000000000000000000000006064820152608401610a8e565b60006001600160a01b03821661151c5760405162461bcd60e51b815260206004820152602a60248201527f4552433732313a2062616c616e636520717565727920666f7220746865207a6560448201527f726f2061646472657373000000000000000000000000000000000000000000006064820152608401610a8e565b600554600090815b8181101561157a576005818154811061153f5761153f61357d565b6000918252602090912001546001600160a01b039081169086160361156a5761156783613564565b92505b61157381613564565b9050611524565b50909392505050565b6000546001600160a01b031633146115cb5760405162461bcd60e51b815260206004820181905260248201526000805160206136dc8339815191526044820152606401610a8e565b610b436000612907565b6005546000906115e7906126ac6135d4565b905090565b6000546001600160a01b031633146116345760405162461bcd60e51b815260206004820181905260248201526000805160206136dc8339815191526044820152606401610a8e565b6013805460ff19811660ff90911615179055565b6000546001600160a01b031633146116905760405162461bcd60e51b815260206004820181905260248201526000805160206136dc8339815191526044820152606401610a8e565b601055565b60008061170e848480806020026020016040519081016040528093929190818152602001838360200280828437600092019190915250506010546040516bffffffffffffffffffffffff1960608c901b166020820152909250603401905060405160208183030381529060405280519060200120612957565b151560011495945050505050565b6000546001600160a01b031633146117645760405162461bcd60e51b815260206004820181905260248201526000805160206136dc8339815191526044820152606401610a8e565b600f80546001600160a01b0319166001600160a01b0392909216919091179055565b6000546001600160a01b031633146117ce5760405162461bcd60e51b815260206004820181905260248201526000805160206136dc8339815191526044820152606401610a8e565b600955565b6000546001600160a01b0316331461181b5760405162461bcd60e51b815260206004820181905260248201526000805160206136dc8339815191526044820152606401610a8e565b600c610da982848361347b565b606060048054610b54906133f3565b336001600160a01b0383160361188f5760405162461bcd60e51b815260206004820152601960248201527f4552433732313a20617070726f766520746f2063616c6c6572000000000000006044820152606401610a8e565b3360008181526007602090815260408083206001600160a01b03871680855290835292819020805460ff191686151590811790915590519081529192917f17307eab39ab6107e8899845ad3d59bd9653f200f220920489ca2b5937696c31910160405180910390a35050565b6000546001600160a01b031633146119435760405162461bcd60e51b815260206004820181905260248201526000805160206136dc8339815191526044820152606401610a8e565b6127108111156119a95760405162461bcd60e51b815260206004820152602b60248201527f50726f76696465206c6573732061646472657373657320696e206f6e6520667560448201526a1b98dd1a5bdb8818d85b1b60aa1b6064820152608401610a8e565b60005b81811015610da9576001601160008585858181106119cc576119cc61357d565b90506020020160208101906119e19190612f96565b6001600160a01b031681526020810191909152604001600020805460ff191691151591909117905580611a1381613564565b9150506119ac565b610b436000600155565b6000546001600160a01b03163314611a6d5760405162461bcd60e51b815260206004820181905260248201526000805160206136dc8339815191526044820152606401610a8e565b612710811115611ad35760405162461bcd60e51b815260206004820152602b60248201527f50726f76696465206c6573732061646472657373657320696e206f6e6520667560448201526a1b98dd1a5bdb8818d85b1b60aa1b6064820152608401610a8e565b60005b81811015610da957600060116000858585818110611af657611af661357d565b9050602002016020810190611b0b9190612f96565b6001600160a01b031681526020810191909152604001600020805460ff191691151591909117905580611b3d81613564565b915050611ad6565b611b4f3383612582565b611bc15760405162461bcd60e51b815260206004820152603160248201527f4552433732313a207472616e736665722063616c6c6572206973206e6f74206f60448201527f776e6572206e6f7220617070726f7665640000000000000000000000000000006064820152608401610a8e565b6110508484848461296d565b6000546001600160a01b03163314611c155760405162461bcd60e51b815260206004820181905260248201526000805160206136dc8339815191526044820152606401610a8e565b6001600160a01b03166000908152601260205260409020805460ff19166001179055565b601354610100900460ff16158015611c53575060135460ff165b611c9f5760405162461bcd60e51b815260206004820152600e60248201527f50524553414c455f434c4f5345440000000000000000000000000000000000006044820152606401610a8e565b33600090815260146020526040902054606490611cbd908690613551565b1115611d0b5760405162461bcd60e51b815260206004820152600c60248201527f4558434545445f414c4c4f4300000000000000000000000000000000000000006044820152606401610a8e565b6064841115611d5c5760405162461bcd60e51b815260206004820152601260248201527f4558434545445f46525f5045525f4d494e5400000000000000000000000000006044820152606401610a8e565b3484600954611d6b9190613593565b1115611db95760405162461bcd60e51b815260206004820152601060248201527f494e53554646494349454e545f455448000000000000000000000000000000006044820152606401610a8e565b3360009081526011602052604090205460ff1680611ddd5750611ddd818484611695565b611e295760405162461bcd60e51b815260206004820152601460248201527f696e76616c6964206d65726b6c652070726f6f660000000000000000000000006044820152606401610a8e565b3360009081526012602052604090205460ff1615611e895760405162461bcd60e51b815260206004820152601260248201527f4e4f545f415050524f5645445f425559455200000000000000000000000000006044820152606401610a8e565b600554600a54611e998683613551565b1115611ee75760405162461bcd60e51b815260206004820152601960248201527f4558434545445f4d41585f50524553414c455f535550504c59000000000000006044820152606401610a8e565b3360009081526014602052604081208054879290611f06908490613551565b90915550600090505b85811015611f3e57611f2c3383611f2581613564565b94506129eb565b80611f3681613564565b915050611f0f565b50600a548103611f64576013805461ffff1916610100179055670214e8348c4f00006009555b5050505050565b6060611f76826124b0565b611fe85760405162461bcd60e51b815260206004820152602f60248201527f4552433732314d657461646174613a2055524920717565727920666f72206e6f60448201527f6e6578697374656e7420746f6b656e00000000000000000000000000000000006064820152608401610a8e565b600d611ff383612b13565b6040516020016120049291906135e7565b6040516020818303038152906040529050919050565b601354610100900460ff166120715760405162461bcd60e51b815260206004820152600b60248201527f53414c455f434c4f5345440000000000000000000000000000000000000000006044820152606401610a8e565b60135460ff16156120c45760405162461bcd60e51b815260206004820152600c60248201527f4f4e4c595f50524553414c4500000000000000000000000000000000000000006044820152606401610a8e565b60648111156121155760405162461bcd60e51b815260206004820152601260248201527f4558434545445f46525f5045525f4d494e5400000000000000000000000000006044820152606401610a8e565b34816009546121249190613593565b11156121725760405162461bcd60e51b815260206004820152601060248201527f494e53554646494349454e545f455448000000000000000000000000000000006044820152606401610a8e565b3360009081526012602052604090205460ff16156121d25760405162461bcd60e51b815260206004820152601260248201527f4e4f545f415050524f5645445f425559455200000000000000000000000000006044820152606401610a8e565b6005546126ac6121e28383613551565b11156122305760405162461bcd60e51b815260206004820152601660248201527f4558434545445f4d41585f53414c455f535550504c59000000000000000000006044820152606401610a8e565b60005b82811015610da9576122493383611f2581613564565b8061225381613564565b915050612233565b6060600c8054610b54906133f3565b6000546001600160a01b031633146122b25760405162461bcd60e51b815260206004820181905260248201526000805160206136dc8339815191526044820152606401610a8e565b6001600160a01b03811661232e5760405162461bcd60e51b815260206004820152602660248201527f4f776e61626c653a206e6577206f776e657220697320746865207a65726f206160448201527f64647265737300000000000000000000000000000000000000000000000000006064820152608401610a8e565b61138081612907565b60006001600160e01b031982167f80ac58cd00000000000000000000000000000000000000000000000000000000148061239a57506001600160e01b031982167f5b5e139f00000000000000000000000000000000000000000000000000000000145b80610a365750610a3682612c48565b6127106bffffffffffffffffffffffff8216111561241c5760405162461bcd60e51b815260206004820152602a60248201527f455243323938313a20726f79616c7479206665652077696c6c206578636565646044820152692073616c65507269636560b01b6064820152608401610a8e565b6001600160a01b0382166124725760405162461bcd60e51b815260206004820152601960248201527f455243323938313a20696e76616c6964207265636569766572000000000000006044820152606401610a8e565b604080518082019091526001600160a01b039092168083526bffffffffffffffffffffffff9091166020909201829052600160a01b90910217600155565b60055460009082108015610a36575060006001600160a01b0316600583815481106124dd576124dd61357d565b6000918252602090912001546001600160a01b0316141592915050565b600081815260066020526040902080546001600160a01b0319166001600160a01b038416908117909155819061252f826113fe565b6001600160a01b03167f8c5be1e5ebec7d5bd14f71427d1e84f3dd0314c0f7b2291e5b200ac8c7c3b92560405160405180910390a45050565b610a46828260405180602001604052806000815250612caf565b600061258d826124b0565b6125ee5760405162461bcd60e51b815260206004820152602c60248201527f4552433732313a206f70657261746f7220717565727920666f72206e6f6e657860448201526b34b9ba32b73a103a37b5b2b760a11b6064820152608401610a8e565b60006125f9836113fe565b9050806001600160a01b0316846001600160a01b031614806126345750836001600160a01b031661262984610bd7565b6001600160a01b0316145b8061266457506001600160a01b0380821660009081526007602090815260408083209388168352929052205460ff165b949350505050565b826001600160a01b031661267f826113fe565b6001600160a01b0316146126fb5760405162461bcd60e51b815260206004820152602960248201527f4552433732313a207472616e73666572206f6620746f6b656e2074686174206960448201527f73206e6f74206f776e00000000000000000000000000000000000000000000006064820152608401610a8e565b6001600160a01b0382166127765760405162461bcd60e51b8152602060048201526024808201527f4552433732313a207472616e7366657220746f20746865207a65726f2061646460448201527f72657373000000000000000000000000000000000000000000000000000000006064820152608401610a8e565b6127816000826124fa565b81600582815481106127955761279561357d565b6000918252602082200180546001600160a01b0319166001600160a01b03938416179055604051839285811692908716917fddf252ad1be2c89b69c2b068fc378daa952ba7f163c4a11628f55a4df523b3ef9190a4505050565b6127106bffffffffffffffffffffffff821611156128625760405162461bcd60e51b815260206004820152602a60248201527f455243323938313a20726f79616c7479206665652077696c6c206578636565646044820152692073616c65507269636560b01b6064820152608401610a8e565b6001600160a01b0382166128b85760405162461bcd60e51b815260206004820152601b60248201527f455243323938313a20496e76616c696420706172616d657465727300000000006044820152606401610a8e565b6040805180820182526001600160a01b0393841681526bffffffffffffffffffffffff92831660208083019182526000968752600290529190942093519051909116600160a01b029116179055565b600080546001600160a01b038381166001600160a01b0319831681178455604051919092169283917f8be0079c531659141344cd1fd0a4f28419497f9722a3daafe3b4186f6b6457e09190a35050565b6000826129648584612d2d565b14949350505050565b61297884848461266c565b61298484848484612d7a565b6110505760405162461bcd60e51b815260206004820152603260248201527f4552433732313a207472616e7366657220746f206e6f6e20455243373231526560448201527131b2b4bb32b91034b6b83632b6b2b73a32b960711b6064820152608401610a8e565b6001600160a01b038216612a415760405162461bcd60e51b815260206004820181905260248201527f4552433732313a206d696e7420746f20746865207a65726f20616464726573736044820152606401610a8e565b612a4a816124b0565b15612a975760405162461bcd60e51b815260206004820152601c60248201527f4552433732313a20746f6b656e20616c7265616479206d696e746564000000006044820152606401610a8e565b6005805460018101825560009182527f036b6384b5eca791c62761152d0c79bb0604c104a5fb6f4eb0703f3154bb3db00180546001600160a01b0319166001600160a01b0385169081179091556040518392907fddf252ad1be2c89b69c2b068fc378daa952ba7f163c4a11628f55a4df523b3ef908290a45050565b606081600003612b5657505060408051808201909152600181527f3000000000000000000000000000000000000000000000000000000000000000602082015290565b8160005b8115612b805780612b6a81613564565b9150612b799050600a836135c0565b9150612b5a565b60008167ffffffffffffffff811115612b9b57612b9b613279565b6040519080825280601f01601f191660200182016040528015612bc5576020820181803683370190505b5090505b841561266457612bda6001836135d4565b9150612be7600a8661366e565b612bf2906030613551565b60f81b818381518110612c0757612c0761357d565b60200101907effffffffffffffffffffffffffffffffffffffffffffffffffffffffffffff1916908160001a905350612c41600a866135c0565b9450612bc9565b60006001600160e01b031982167f2a55205a000000000000000000000000000000000000000000000000000000001480610a3657507f01ffc9a7000000000000000000000000000000000000000000000000000000006001600160e01b0319831614610a36565b612cb983836129eb565b612cc66000848484612d7a565b610da95760405162461bcd60e51b815260206004820152603260248201527f4552433732313a207472616e7366657220746f206e6f6e20455243373231526560448201527131b2b4bb32b91034b6b83632b6b2b73a32b960711b6064820152608401610a8e565b600081815b8451811015612d7257612d5e82868381518110612d5157612d5161357d565b6020026020010151612ec6565b915080612d6a81613564565b915050612d32565b509392505050565b60006001600160a01b0384163b15612ebb57604051630a85bd0160e11b81526001600160a01b0385169063150b7a0290612dbe903390899088908890600401613682565b6020604051808303816000875af1925050508015612df9575060408051601f3d908101601f19168201909252612df6918101906136be565b60015b612ea1573d808015612e27576040519150601f19603f3d011682016040523d82523d6000602084013e612e2c565b606091505b508051600003612e995760405162461bcd60e51b815260206004820152603260248201527f4552433732313a207472616e7366657220746f206e6f6e20455243373231526560448201527131b2b4bb32b91034b6b83632b6b2b73a32b960711b6064820152608401610a8e565b805181602001fd5b6001600160e01b031916630a85bd0160e11b149050612664565b506001949350505050565b6000818310612ee2576000828152602084905260409020612ef1565b60008381526020839052604090205b9392505050565b6001600160e01b03198116811461138057600080fd5b600060208284031215612f2057600080fd5b8135612ef181612ef8565b80356001600160a01b0381168114612f4257600080fd5b919050565b80356bffffffffffffffffffffffff81168114612f4257600080fd5b60008060408385031215612f7657600080fd5b612f7f83612f2b565b9150612f8d60208401612f47565b90509250929050565b600060208284031215612fa857600080fd5b612ef182612f2b565b60005b83811015612fcc578181015183820152602001612fb4565b50506000910152565b60008151808452612fed816020860160208601612fb1565b601f01601f19169290920160200192915050565b602081526000612ef16020830184612fd5565b60006020828403121561302657600080fd5b5035919050565b6000806040838503121561304057600080fd5b61304983612f2b565b946020939093013593505050565b6000806020838503121561306a57600080fd5b823567ffffffffffffffff8082111561308257600080fd5b818501915085601f83011261309657600080fd5b8135818111156130a557600080fd5b8660208285010111156130b757600080fd5b60209290920196919550909350505050565b60008083601f8401126130db57600080fd5b50813567ffffffffffffffff8111156130f357600080fd5b6020830191508360208260051b85010111156112f857600080fd5b6000806020838503121561312157600080fd5b823567ffffffffffffffff81111561313857600080fd5b613144858286016130c9565b90969095509350505050565b60008060006060848603121561316557600080fd5b61316e84612f2b565b925061317c60208501612f2b565b9150604084013590509250925092565b6000806040838503121561319f57600080fd5b50508035926020909101359150565b6000806000606084860312156131c357600080fd5b833592506131d360208501612f2b565b91506131e160408501612f47565b90509250925092565b6000806000604084860312156131ff57600080fd5b61320884612f2b565b9250602084013567ffffffffffffffff81111561322457600080fd5b613230868287016130c9565b9497909650939450505050565b6000806040838503121561325057600080fd5b61325983612f2b565b91506020830135801515811461326e57600080fd5b809150509250929050565b634e487b7160e01b600052604160045260246000fd5b600080600080608085870312156132a557600080fd5b6132ae85612f2b565b93506132bc60208601612f2b565b925060408501359150606085013567ffffffffffffffff808211156132e057600080fd5b818701915087601f8301126132f457600080fd5b81358181111561330657613306613279565b604051601f8201601f19908116603f0116810190838211818310171561332e5761332e613279565b816040528281528a602084870101111561334757600080fd5b82602086016020830137600060208483010152809550505050505092959194509250565b6000806000806060858703121561338157600080fd5b84359350602085013567ffffffffffffffff81111561339f57600080fd5b6133ab878288016130c9565b90945092506133be905060408601612f2b565b905092959194509250565b600080604083850312156133dc57600080fd5b6133e583612f2b565b9150612f8d60208401612f2b565b600181811c9082168061340757607f821691505b60208210810361342757634e487b7160e01b600052602260045260246000fd5b50919050565b601f821115610da957600081815260208120601f850160051c810160208610156134545750805b601f850160051c820191505b8181101561347357828155600101613460565b505050505050565b67ffffffffffffffff83111561349357613493613279565b6134a7836134a183546133f3565b8361342d565b6000601f8411600181146134db57600085156134c35750838201355b600019600387901b1c1916600186901b178355611f64565b600083815260209020601f19861690835b8281101561350c57868501358255602094850194600190920191016134ec565b50868210156135295760001960f88860031b161c19848701351681555b505060018560011b0183555050505050565b634e487b7160e01b600052601160045260246000fd5b80820180821115610a3657610a3661353b565b6000600182016135765761357661353b565b5060010190565b634e487b7160e01b600052603260045260246000fd5b8082028115828204841417610a3657610a3661353b565b634e487b7160e01b600052601260045260246000fd5b6000826135cf576135cf6135aa565b500490565b81810381811115610a3657610a3661353b565b60008084546135f5816133f3565b6001828116801561360d576001811461362257613651565b60ff1984168752821515830287019450613651565b8860005260208060002060005b858110156136485781548a82015290840190820161362f565b50505082870194505b505050508351613665818360208801612fb1565b01949350505050565b60008261367d5761367d6135aa565b500690565b60006001600160a01b038087168352808616602084015250836040830152608060608301526136b46080830184612fd5565b9695505050505050565b6000602082840312156136d057600080fd5b8151612ef181612ef856fe4f776e61626c653a2063616c6c6572206973206e6f7420746865206f776e6572a2646970667358221220e240958b5d7477f94a1ae25a02331f29ec4ad81bcd9c8ae50100686241fd20f264736f6c63430008110033",
  "linkReferences": {},
  "deployedLinkReferences": {}
}